{
  "contractName": "ConfirmedOwnerWithProposal",
  "abi": [
    {
      "inputs": [
        {
          "internalType": "address",
          "name": "newOwner",
          "type": "address"
        },
        {
          "internalType": "address",
          "name": "pendingOwner",
          "type": "address"
        }
      ],
      "stateMutability": "nonpayable",
      "type": "constructor"
    },
    {
      "anonymous": false,
      "inputs": [
        {
          "indexed": true,
          "internalType": "address",
          "name": "from",
          "type": "address"
        },
        {
          "indexed": true,
          "internalType": "address",
          "name": "to",
          "type": "address"
        }
      ],
      "name": "OwnershipTransferRequested",
      "type": "event"
    },
    {
      "anonymous": false,
      "inputs": [
        {
          "indexed": true,
          "internalType": "address",
          "name": "from",
          "type": "address"
        },
        {
          "indexed": true,
          "internalType": "address",
          "name": "to",
          "type": "address"
        }
      ],
      "name": "OwnershipTransferred",
      "type": "event"
    },
    {
      "inputs": [
        {
          "internalType": "address",
          "name": "to",
          "type": "address"
        }
      ],
      "name": "transferOwnership",
      "outputs": [],
      "stateMutability": "nonpayable",
      "type": "function"
    },
    {
      "inputs": [],
      "name": "acceptOwnership",
      "outputs": [],
      "stateMutability": "nonpayable",
      "type": "function"
    },
    {
      "inputs": [],
      "name": "owner",
      "outputs": [
        {
          "internalType": "address",
          "name": "",
          "type": "address"
        }
      ],
      "stateMutability": "view",
      "type": "function"
    }
  ],
  "bytecode": "0x608060405234801561001057600080fd5b506040516104bd3803806104bd83398101604081905261002f9161012b565b6001600160a01b03821661005e5760405162461bcd60e51b81526004016100559061015d565b60405180910390fd5b600080546001600160a01b0319166001600160a01b038481169190911790915581161561008e5761008e81610095565b50506101cb565b6001600160a01b0381163314156100be5760405162461bcd60e51b815260040161005590610194565b600180546001600160a01b0319166001600160a01b0383811691821790925560008054604051929316917fed8889f560326eb138920d842192f0eb3dd22b4f139c87a2c57538e05bae12789190a350565b80516001600160a01b038116811461012657600080fd5b919050565b6000806040838503121561013d578182fd5b6101468361010f565b91506101546020840161010f565b90509250929050565b60208082526018908201527f43616e6e6f7420736574206f776e657220746f207a65726f0000000000000000604082015260600190565b60208082526017908201527f43616e6e6f74207472616e7366657220746f2073656c66000000000000000000604082015260600190565b6102e3806101da6000396000f3fe608060405234801561001057600080fd5b50600436106100415760003560e01c806379ba5097146100465780638da5cb5b14610050578063f2fde38b1461006e575b600080fd5b61004e610081565b005b61005861010b565b6040516100659190610202565b60405180910390f35b61004e61007c3660046101d4565b61011a565b6001546001600160a01b031633146100b45760405162461bcd60e51b81526004016100ab90610216565b60405180910390fd5b60008054336001600160a01b0319808316821784556001805490911690556040516001600160a01b0390921692909183917f8be0079c531659141344cd1fd0a4f28419497f9722a3daafe3b4186f6b6457e091a350565b6000546001600160a01b031690565b61012261012e565b61012b8161015a565b50565b6000546001600160a01b031633146101585760405162461bcd60e51b81526004016100ab90610246565b565b6001600160a01b0381163314156101835760405162461bcd60e51b81526004016100ab90610276565b600180546001600160a01b0319166001600160a01b0383811691821790925560008054604051929316917fed8889f560326eb138920d842192f0eb3dd22b4f139c87a2c57538e05bae12789190a350565b6000602082840312156101e5578081fd5b81356001600160a01b03811681146101fb578182fd5b9392505050565b6001600160a01b0391909116815260200190565b60208082526016908201527526bab9ba10313290383937b837b9b2b21037bbb732b960511b604082015260600190565b60208082526016908201527527b7363c9031b0b63630b1363290313c9037bbb732b960511b604082015260600190565b60208082526017908201527f43616e6e6f74207472616e7366657220746f2073656c6600000000000000000060408201526060019056fea26469706673582212206b1b08321713cc56219ff0d04c3351e81950a2b8466518331ed9f04c523ba35b64736f6c63430008010033",
  "immutableReferences": {},
  "source": "// SPDX-License-Identifier: MIT\npragma solidity ^0.8.0;\n\nimport \"./interfaces/OwnableInterface.sol\";\n\n/**\n * @title The ConfirmedOwner contract\n * @notice A contract with helpers for basic contract ownership.\n */\ncontract ConfirmedOwnerWithProposal is OwnableInterface {\n  address private s_owner;\n  address private s_pendingOwner;\n\n  event OwnershipTransferRequested(address indexed from, address indexed to);\n  event OwnershipTransferred(address indexed from, address indexed to);\n\n  constructor(address newOwner, address pendingOwner) {\n    require(newOwner != address(0), \"Cannot set owner to zero\");\n\n    s_owner = newOwner;\n    if (pendingOwner != address(0)) {\n      _transferOwnership(pendingOwner);\n    }\n  }\n\n  /**\n   * @notice Allows an owner to begin transferring ownership to a new address,\n   * pending.\n   */\n  function transferOwnership(address to) public override onlyOwner {\n    _transferOwnership(to);\n  }\n\n  /**\n   * @notice Allows an ownership transfer to be completed by the recipient.\n   */\n  function acceptOwnership() external override {\n    require(msg.sender == s_pendingOwner, \"Must be proposed owner\");\n\n    address oldOwner = s_owner;\n    s_owner = msg.sender;\n    s_pendingOwner = address(0);\n\n    emit OwnershipTransferred(oldOwner, msg.sender);\n  }\n\n  /**\n   * @notice Get the current owner\n   */\n  function owner() public view override returns (address) {\n    return s_owner;\n  }\n\n  /**\n   * @notice validate, transfer ownership, and emit relevant events\n   */\n  function _transferOwnership(address to) private {\n    require(to != msg.sender, \"Cannot transfer to self\");\n\n    s_pendingOwner = to;\n\n    emit OwnershipTransferRequested(s_owner, to);\n  }\n\n  /**\n   * @notice validate access\n   */\n  function _validateOwnership() internal view {\n    require(msg.sender == s_owner, \"Only callable by owner\");\n  }\n\n  /**\n   * @notice Reverts if called by anyone other than the contract owner.\n   */\n  modifier onlyOwner() {\n    _validateOwnership();\n    _;\n  }\n}\n",
  "sourcePath": "@chainlink\\contracts\\src\\v0.8\\ConfirmedOwnerWithProposal.sol",
  "compiler": {
    "name": "solc",
    "version": "0.8.1+commit.df193b15.Emscripten.clang"
  },
  "schemaVersion": "3.4.16",
  "updatedAt": "2025-04-22T09:46:07.113Z",
  "devdoc": {
    "kind": "dev",
    "methods": {},
    "title": "The ConfirmedOwner contract",
    "version": 1
  },
  "userdoc": {
    "kind": "user",
    "methods": {
      "acceptOwnership()": {
        "notice": "Allows an ownership transfer to be completed by the recipient."
      },
      "owner()": {
        "notice": "Get the current owner"
      },
      "transferOwnership(address)": {
        "notice": "Allows an owner to begin transferring ownership to a new address, pending."
      }
    },
    "notice": "A contract with helpers for basic contract ownership.",
    "version": 1
  }
}