{
  "contractName": "ContractIp",
  "abi": [
    {
      "inputs": [],
      "stateMutability": "nonpayable",
      "type": "constructor"
    },
    {
      "anonymous": false,
      "inputs": [
        {
          "indexed": true,
          "internalType": "address",
          "name": "owner",
          "type": "address"
        },
        {
          "indexed": true,
          "internalType": "address",
          "name": "approved",
          "type": "address"
        },
        {
          "indexed": true,
          "internalType": "uint256",
          "name": "tokenId",
          "type": "uint256"
        }
      ],
      "name": "Approval",
      "type": "event"
    },
    {
      "anonymous": false,
      "inputs": [
        {
          "indexed": true,
          "internalType": "address",
          "name": "owner",
          "type": "address"
        },
        {
          "indexed": true,
          "internalType": "address",
          "name": "operator",
          "type": "address"
        },
        {
          "indexed": false,
          "internalType": "bool",
          "name": "approved",
          "type": "bool"
        }
      ],
      "name": "ApprovalForAll",
      "type": "event"
    },
    {
      "anonymous": false,
      "inputs": [
        {
          "indexed": true,
          "internalType": "uint256",
          "name": "tokenId",
          "type": "uint256"
        },
        {
          "indexed": false,
          "internalType": "address",
          "name": "Nftowner",
          "type": "address"
        },
        {
          "indexed": false,
          "internalType": "uint256",
          "name": "timestamp",
          "type": "uint256"
        },
        {
          "indexed": false,
          "internalType": "string",
          "name": "status",
          "type": "string"
        },
        {
          "indexed": false,
          "internalType": "bool",
          "name": "isRegistered",
          "type": "bool"
        }
      ],
      "name": "TokenAcceptedNft",
      "type": "event"
    },
    {
      "anonymous": false,
      "inputs": [
        {
          "indexed": true,
          "internalType": "address",
          "name": "from",
          "type": "address"
        },
        {
          "indexed": true,
          "internalType": "address",
          "name": "to",
          "type": "address"
        },
        {
          "indexed": true,
          "internalType": "uint256",
          "name": "tokenId",
          "type": "uint256"
        }
      ],
      "name": "Transfer",
      "type": "event"
    },
    {
      "inputs": [
        {
          "internalType": "uint256",
          "name": "",
          "type": "uint256"
        }
      ],
      "name": "acceptedIps",
      "outputs": [
        {
          "internalType": "uint256",
          "name": "",
          "type": "uint256"
        }
      ],
      "stateMutability": "view",
      "type": "function"
    },
    {
      "inputs": [
        {
          "internalType": "address",
          "name": "to",
          "type": "address"
        },
        {
          "internalType": "uint256",
          "name": "tokenId",
          "type": "uint256"
        }
      ],
      "name": "approve",
      "outputs": [],
      "stateMutability": "nonpayable",
      "type": "function"
    },
    {
      "inputs": [
        {
          "internalType": "address",
          "name": "owner",
          "type": "address"
        }
      ],
      "name": "balanceOf",
      "outputs": [
        {
          "internalType": "uint256",
          "name": "",
          "type": "uint256"
        }
      ],
      "stateMutability": "view",
      "type": "function"
    },
    {
      "inputs": [],
      "name": "commissionPrice",
      "outputs": [
        {
          "internalType": "uint256",
          "name": "",
          "type": "uint256"
        }
      ],
      "stateMutability": "view",
      "type": "function"
    },
    {
      "inputs": [
        {
          "internalType": "uint256",
          "name": "tokenId",
          "type": "uint256"
        }
      ],
      "name": "getApproved",
      "outputs": [
        {
          "internalType": "address",
          "name": "",
          "type": "address"
        }
      ],
      "stateMutability": "view",
      "type": "function"
    },
    {
      "inputs": [
        {
          "internalType": "uint256",
          "name": "",
          "type": "uint256"
        }
      ],
      "name": "idToListedToken",
      "outputs": [
        {
          "internalType": "uint256",
          "name": "tokenId",
          "type": "uint256"
        },
        {
          "internalType": "address payable",
          "name": "Nftowner",
          "type": "address"
        },
        {
          "internalType": "uint256",
          "name": "timestamp",
          "type": "uint256"
        },
        {
          "internalType": "string",
          "name": "status",
          "type": "string"
        },
        {
          "internalType": "bool",
          "name": "isRegistered",
          "type": "bool"
        }
      ],
      "stateMutability": "view",
      "type": "function"
    },
    {
      "inputs": [
        {
          "internalType": "address",
          "name": "owner",
          "type": "address"
        },
        {
          "internalType": "address",
          "name": "operator",
          "type": "address"
        }
      ],
      "name": "isApprovedForAll",
      "outputs": [
        {
          "internalType": "bool",
          "name": "",
          "type": "bool"
        }
      ],
      "stateMutability": "view",
      "type": "function"
    },
    {
      "inputs": [],
      "name": "name",
      "outputs": [
        {
          "internalType": "string",
          "name": "",
          "type": "string"
        }
      ],
      "stateMutability": "view",
      "type": "function"
    },
    {
      "inputs": [
        {
          "internalType": "uint256",
          "name": "tokenId",
          "type": "uint256"
        }
      ],
      "name": "ownerOf",
      "outputs": [
        {
          "internalType": "address",
          "name": "",
          "type": "address"
        }
      ],
      "stateMutability": "view",
      "type": "function"
    },
    {
      "inputs": [
        {
          "internalType": "uint256",
          "name": "",
          "type": "uint256"
        }
      ],
      "name": "pendingIps",
      "outputs": [
        {
          "internalType": "uint256",
          "name": "",
          "type": "uint256"
        }
      ],
      "stateMutability": "view",
      "type": "function"
    },
    {
      "inputs": [],
      "name": "receivedWei",
      "outputs": [
        {
          "internalType": "uint256",
          "name": "",
          "type": "uint256"
        }
      ],
      "stateMutability": "view",
      "type": "function"
    },
    {
      "inputs": [
        {
          "internalType": "uint256",
          "name": "",
          "type": "uint256"
        }
      ],
      "name": "rejectedIps",
      "outputs": [
        {
          "internalType": "uint256",
          "name": "",
          "type": "uint256"
        }
      ],
      "stateMutability": "view",
      "type": "function"
    },
    {
      "inputs": [],
      "name": "result",
      "outputs": [
        {
          "internalType": "string",
          "name": "",
          "type": "string"
        }
      ],
      "stateMutability": "view",
      "type": "function"
    },
    {
      "inputs": [],
      "name": "returnedWei",
      "outputs": [
        {
          "internalType": "uint256",
          "name": "",
          "type": "uint256"
        }
      ],
      "stateMutability": "view",
      "type": "function"
    },
    {
      "inputs": [
        {
          "internalType": "address",
          "name": "from",
          "type": "address"
        },
        {
          "internalType": "address",
          "name": "to",
          "type": "address"
        },
        {
          "internalType": "uint256",
          "name": "tokenId",
          "type": "uint256"
        }
      ],
      "name": "safeTransferFrom",
      "outputs": [],
      "stateMutability": "nonpayable",
      "type": "function"
    },
    {
      "inputs": [
        {
          "internalType": "address",
          "name": "from",
          "type": "address"
        },
        {
          "internalType": "address",
          "name": "to",
          "type": "address"
        },
        {
          "internalType": "uint256",
          "name": "tokenId",
          "type": "uint256"
        },
        {
          "internalType": "bytes",
          "name": "data",
          "type": "bytes"
        }
      ],
      "name": "safeTransferFrom",
      "outputs": [],
      "stateMutability": "nonpayable",
      "type": "function"
    },
    {
      "inputs": [
        {
          "internalType": "address",
          "name": "operator",
          "type": "address"
        },
        {
          "internalType": "bool",
          "name": "approved",
          "type": "bool"
        }
      ],
      "name": "setApprovalForAll",
      "outputs": [],
      "stateMutability": "nonpayable",
      "type": "function"
    },
    {
      "inputs": [
        {
          "internalType": "bytes4",
          "name": "interfaceId",
          "type": "bytes4"
        }
      ],
      "name": "supportsInterface",
      "outputs": [
        {
          "internalType": "bool",
          "name": "",
          "type": "bool"
        }
      ],
      "stateMutability": "view",
      "type": "function"
    },
    {
      "inputs": [],
      "name": "symbol",
      "outputs": [
        {
          "internalType": "string",
          "name": "",
          "type": "string"
        }
      ],
      "stateMutability": "view",
      "type": "function"
    },
    {
      "inputs": [
        {
          "internalType": "uint256",
          "name": "tokenId",
          "type": "uint256"
        }
      ],
      "name": "tokenURI",
      "outputs": [
        {
          "internalType": "string",
          "name": "",
          "type": "string"
        }
      ],
      "stateMutability": "view",
      "type": "function"
    },
    {
      "inputs": [
        {
          "internalType": "address",
          "name": "from",
          "type": "address"
        },
        {
          "internalType": "address",
          "name": "to",
          "type": "address"
        },
        {
          "internalType": "uint256",
          "name": "tokenId",
          "type": "uint256"
        }
      ],
      "name": "transferFrom",
      "outputs": [],
      "stateMutability": "nonpayable",
      "type": "function"
    },
    {
      "inputs": [
        {
          "internalType": "uint256",
          "name": "_cp",
          "type": "uint256"
        }
      ],
      "name": "updateCommissionFee",
      "outputs": [],
      "stateMutability": "payable",
      "type": "function"
    },
    {
      "inputs": [
        {
          "internalType": "string",
          "name": "tokenURI",
          "type": "string"
        }
      ],
      "name": "createToken",
      "outputs": [
        {
          "internalType": "uint256",
          "name": "",
          "type": "uint256"
        }
      ],
      "stateMutability": "payable",
      "type": "function"
    },
    {
      "inputs": [
        {
          "internalType": "uint256",
          "name": "tokenId",
          "type": "uint256"
        },
        {
          "internalType": "string",
          "name": "status",
          "type": "string"
        }
      ],
      "name": "changeStatus",
      "outputs": [
        {
          "internalType": "bool",
          "name": "",
          "type": "bool"
        }
      ],
      "stateMutability": "nonpayable",
      "type": "function"
    },
    {
      "inputs": [
        {
          "internalType": "uint256",
          "name": "_index",
          "type": "uint256"
        }
      ],
      "name": "removeAccepted",
      "outputs": [],
      "stateMutability": "nonpayable",
      "type": "function"
    },
    {
      "inputs": [
        {
          "internalType": "uint256",
          "name": "_index",
          "type": "uint256"
        }
      ],
      "name": "removePending",
      "outputs": [],
      "stateMutability": "nonpayable",
      "type": "function"
    },
    {
      "inputs": [
        {
          "internalType": "uint256",
          "name": "_index",
          "type": "uint256"
        }
      ],
      "name": "removeRejected",
      "outputs": [],
      "stateMutability": "nonpayable",
      "type": "function"
    },
    {
      "inputs": [],
      "name": "countAcceptedIPs",
      "outputs": [
        {
          "internalType": "uint256",
          "name": "",
          "type": "uint256"
        }
      ],
      "stateMutability": "view",
      "type": "function"
    },
    {
      "inputs": [],
      "name": "countPendingIPs",
      "outputs": [
        {
          "internalType": "uint256",
          "name": "",
          "type": "uint256"
        }
      ],
      "stateMutability": "view",
      "type": "function"
    },
    {
      "inputs": [],
      "name": "countRejectedIPs",
      "outputs": [
        {
          "internalType": "uint256",
          "name": "",
          "type": "uint256"
        }
      ],
      "stateMutability": "view",
      "type": "function"
    },
    {
      "inputs": [],
      "name": "getAllNFTs",
      "outputs": [
        {
          "components": [
            {
              "internalType": "uint256",
              "name": "tokenId",
              "type": "uint256"
            },
            {
              "internalType": "address payable",
              "name": "Nftowner",
              "type": "address"
            },
            {
              "internalType": "uint256",
              "name": "timestamp",
              "type": "uint256"
            },
            {
              "internalType": "string",
              "name": "status",
              "type": "string"
            },
            {
              "internalType": "bool",
              "name": "isRegistered",
              "type": "bool"
            }
          ],
          "internalType": "struct ContractIp.RequestedNfts[]",
          "name": "",
          "type": "tuple[]"
        }
      ],
      "stateMutability": "view",
      "type": "function"
    },
    {
      "inputs": [],
      "name": "getMyNFTs",
      "outputs": [
        {
          "components": [
            {
              "internalType": "uint256",
              "name": "tokenId",
              "type": "uint256"
            },
            {
              "internalType": "address payable",
              "name": "Nftowner",
              "type": "address"
            },
            {
              "internalType": "uint256",
              "name": "timestamp",
              "type": "uint256"
            },
            {
              "internalType": "string",
              "name": "status",
              "type": "string"
            },
            {
              "internalType": "bool",
              "name": "isRegistered",
              "type": "bool"
            }
          ],
          "internalType": "struct ContractIp.RequestedNfts[]",
          "name": "",
          "type": "tuple[]"
        }
      ],
      "stateMutability": "view",
      "type": "function"
    },
    {
      "inputs": [
        {
          "internalType": "uint256",
          "name": "tokenId",
          "type": "uint256"
        },
        {
          "internalType": "address",
          "name": "bidderAddress",
          "type": "address"
        }
      ],
      "name": "bidVal",
      "outputs": [
        {
          "internalType": "uint256",
          "name": "",
          "type": "uint256"
        }
      ],
      "stateMutability": "view",
      "type": "function"
    },
    {
      "inputs": [
        {
          "internalType": "address",
          "name": "bidderAddress",
          "type": "address"
        }
      ],
      "name": "check",
      "outputs": [
        {
          "internalType": "bool",
          "name": "",
          "type": "bool"
        }
      ],
      "stateMutability": "view",
      "type": "function"
    },
    {
      "inputs": [
        {
          "internalType": "uint256",
          "name": "tokenId",
          "type": "uint256"
        },
        {
          "internalType": "address",
          "name": "bidderAddress",
          "type": "address"
        }
      ],
      "name": "executeSale",
      "outputs": [],
      "stateMutability": "payable",
      "type": "function"
    }
  ],
  "bytecode": "0x60806040819052600780546001600160a01b03191673e31cd465b9030b7d1bfe2d6f93e5d5e5a1bef9c517905566038d7ea4c68000600b55620000429062000111565b604051809103906000f0801580156200005f573d6000803e3d6000fd5b50600c80546001600160a01b0319166001600160a01b03929092169190911790553480156200008d57600080fd5b50604080518082018252600e81526d4e46544d61726b6574706c61636560901b6020808301918252835180850190945260048452634e46544d60e01b908401528151919291620000e0916000916200011f565b508051620000f69060019060208401906200011f565b5050600a80546001600160a01b031916331790555062000202565b610a6f80620038df83390190565b8280546200012d90620001c5565b90600052602060002090601f0160209004810192826200015157600085556200019c565b82601f106200016c57805160ff19168380011785556200019c565b828001600101855582156200019c579182015b828111156200019c5782518255916020019190600101906200017f565b50620001aa929150620001ae565b5090565b5b80821115620001aa5760008155600101620001af565b600281046001821680620001da57607f821691505b60208210811415620001fc57634e487b7160e01b600052602260045260246000fd5b50919050565b6136cd80620002126000396000f3fe6080604052600436106102045760003560e01c806364edc20f11610118578063c87b56dd116100a0578063e57a497a1161006f578063e57a497a1461058d578063e985e9c5146105be578063f5f680e0146105de578063fb645bd8146105f3578063fd4f0b4f1461061357610204565b8063c87b56dd14610523578063cea62a1b14610543578063d5606fbf14610558578063e0391b091461057857610204565b8063a22cb465116100e7578063a22cb46514610483578063b13d3ecc146104a3578063b46c9ac7146104c3578063b88d4fde146104e3578063c23697a81461050357610204565b806364edc20f14610426578063653721471461043957806370a082311461044e57806395d89b411461046e57610204565b806327bbc10d1161019b57806345576f941161016a57806345576f941461039c5780634558593e146103af57806356d01613146103cf578063629cb2e4146103e45780636352211e1461040657610204565b806327bbc10d1461032757806334020f4b1461034757806338d5d3251461035c57806342842e0e1461037c57610204565b8063095ea7b3116101d7578063095ea7b3146102b057806310e22d41146102d25780631cdaea22146102e757806323b872dd1461030757610204565b806301ffc9a71461020957806302000bd41461023f57806306fdde0314610261578063081812fc14610283575b600080fd5b34801561021557600080fd5b50610229610224366004612c15565b610626565b6040516102369190612f04565b60405180910390f35b34801561024b57600080fd5b5061025461066e565b6040516102369190613481565b34801561026d57600080fd5b50610276610674565b6040516102369190612f0f565b34801561028f57600080fd5b506102a361029e366004612c80565b610706565b6040516102369190612dd7565b3480156102bc57600080fd5b506102d06102cb366004612bd0565b61072d565b005b3480156102de57600080fd5b506102546107ce565b3480156102f357600080fd5b50610254610302366004612c80565b6107d4565b34801561031357600080fd5b506102d0610322366004612ae6565b6107f5565b34801561033357600080fd5b50610254610342366004612c80565b61082d565b34801561035357600080fd5b5061025461083d565b34801561036857600080fd5b506102d0610377366004612c80565b610843565b34801561038857600080fd5b506102d0610397366004612ae6565b61092a565b6102546103aa366004612c4d565b610945565b3480156103bb57600080fd5b506102296103ca366004612cd2565b610aaa565b3480156103db57600080fd5b50610254610afc565b3480156103f057600080fd5b506103f9610b02565b6040516102369190612e62565b34801561041257600080fd5b506102a3610421366004612c80565b610d6a565b6102d0610434366004612c80565b610d9f565b34801561044557600080fd5b50610276610dbb565b34801561045a57600080fd5b50610254610469366004612a9a565b610e49565b34801561047a57600080fd5b50610276610e8d565b34801561048f57600080fd5b506102d061049e366004612b9a565b610e9c565b3480156104af57600080fd5b506102d06104be366004612c80565b610eb2565b3480156104cf57600080fd5b506102546104de366004612cb0565b610f80565b3480156104ef57600080fd5b506102d06104fe366004612b21565b61100a565b34801561050f57600080fd5b5061022961051e366004612a9a565b611049565b34801561052f57600080fd5b5061027661053e366004612c80565b6110ca565b34801561054f57600080fd5b506102546111cf565b34801561056457600080fd5b50610254610573366004612c80565b6111d5565b34801561058457600080fd5b506103f96111e5565b34801561059957600080fd5b506105ad6105a8366004612c80565b6113ba565b6040516102369594939291906134a1565b3480156105ca57600080fd5b506102296105d9366004612ab4565b611480565b3480156105ea57600080fd5b506102546114ae565b3480156105ff57600080fd5b506102d061060e366004612c80565b6114b4565b6102d0610621366004612cb0565b611582565b60006001600160e01b031982166380ac58cd60e01b148061065757506001600160e01b03198216635b5e139f60e01b145b8061066657506106668261182f565b90505b919050565b600d5490565b606060008054610683906135c7565b80601f01602080910402602001604051908101604052809291908181526020018280546106af906135c7565b80156106fc5780601f106106d1576101008083540402835291602001916106fc565b820191906000526020600020905b8154815290600101906020018083116106df57829003601f168201915b5050505050905090565b600061071182611848565b506000908152600460205260409020546001600160a01b031690565b600061073882610d6a565b9050806001600160a01b0316836001600160a01b031614156107755760405162461bcd60e51b815260040161076c906133af565b60405180910390fd5b806001600160a01b0316610787611870565b6001600160a01b031614806107a357506107a3816105d9611870565b6107bf5760405162461bcd60e51b815260040161076c906132ba565b6107c98383611874565b505050565b60125481565b600f81815481106107e457600080fd5b600091825260209091200154905081565b610806610800611870565b826118e2565b6108225760405162461bcd60e51b815260040161076c90613433565b6107c9838383611940565b600d81815481106107e457600080fd5b600e5490565b600f5481106108645760405162461bcd60e51b815260040161076c9061334c565b805b600f5461087590600190613584565b8110156108f157600f610889826001613558565b815481106108a757634e487b7160e01b600052603260045260246000fd5b9060005260206000200154600f82815481106108d357634e487b7160e01b600052603260045260246000fd5b600091825260209091200155806108e981613602565b915050610866565b50600f80548061091157634e487b7160e01b600052603160045260246000fd5b6001900381819060005260206000200160009055905550565b6107c98383836040518060200160405280600081525061100a565b60006109516008611a73565b600061095d6008611a7c565b90506109693382611a80565b6109738184611a9a565b604080518082018252600781526650656e64696e6760c81b602080830191909152825160a0810184528481523381830190815242828601908152606083018581526001608085018190526000898152601187529790972084518155925196830180546001600160a01b0319166001600160a01b039098169790971790965551600282015593518051939491939192610a139260038501929091019061291b565b50608091909101516004909101805460ff1916911515919091179055600e8054600181810183556000929092527fbb7b4a454dc3493923482f07822329ed19e8244eff582cc204f8554c3620c3fd0183905560405183917f6e22b084a5f448e7b37abdf4bb505723438e4f4f4a4d96f9b60b0b14e93a4c6491610a9b91339142918791612e28565b60405180910390a25092915050565b600a546000906001600160a01b03163314610ac457600080fd5b60008381526011602090815260409091208351610ae99260039092019185019061291b565b50610af383611ade565b50600192915050565b600b5481565b60606000610b106008611a7c565b905060008080805b84811015610b73573360116000610b30846001613558565b81526020810191909152604001600020600101546001600160a01b03161415610b6157610b5e600185613558565b93505b80610b6b81613602565b915050610b18565b5060008367ffffffffffffffff811115610b9d57634e487b7160e01b600052604160045260246000fd5b604051908082528060200260200182016040528015610bd657816020015b610bc361299f565b815260200190600190039081610bbb5790505b50905060005b85811015610d60573360116000610bf4846001613558565b81526020810191909152604001600020600101546001600160a01b03161415610d4e57610c22816001613558565b600081815260116020908152604091829020825160a0810184528154815260018201546001600160a01b031692810192909252600281015492820192909252600382018054939650919290918391606084019190610c7f906135c7565b80601f0160208091040260200160405190810160405280929190818152602001828054610cab906135c7565b8015610cf85780601f10610ccd57610100808354040283529160200191610cf8565b820191906000526020600020905b815481529060010190602001808311610cdb57829003601f168201915b50505091835250506004919091015460ff1615156020909101528351849087908110610d3457634e487b7160e01b600052603260045260246000fd5b6020908102919091010152610d4a600186613558565b9450505b80610d5881613602565b915050610bdc565b5094505050505090565b6000818152600260205260408120546001600160a01b0316806106665760405162461bcd60e51b815260040161076c90613378565b600a546001600160a01b03163314610db657600080fd5b600b55565b60108054610dc8906135c7565b80601f0160208091040260200160405190810160405280929190818152602001828054610df4906135c7565b8015610e415780601f10610e1657610100808354040283529160200191610e41565b820191906000526020600020905b815481529060010190602001808311610e2457829003601f168201915b505050505081565b60006001600160a01b038216610e715760405162461bcd60e51b815260040161076c90613146565b506001600160a01b031660009081526003602052604090205490565b606060018054610683906135c7565b610eae610ea7611870565b8383612451565b5050565b600e548110610ed35760405162461bcd60e51b815260040161076c9061334c565b805b600e54610ee490600190613584565b811015610f6057600e610ef8826001613558565b81548110610f1657634e487b7160e01b600052603260045260246000fd5b9060005260206000200154600e8281548110610f4257634e487b7160e01b600052603260045260246000fd5b60009182526020909120015580610f5881613602565b915050610ed5565b50600e80548061091157634e487b7160e01b600052603160045260246000fd5b600754604051639f04996d60e01b81526000916001600160a01b031690639f04996d90610fb3908690869060040161348a565b60206040518083038186803b158015610fcb57600080fd5b505afa158015610fdf573d6000803e3d6000fd5b505050506040513d601f19601f820116820180604052508101906110039190612c98565b9392505050565b61101b611015611870565b836118e2565b6110375760405162461bcd60e51b815260040161076c90613433565b611043848484846124f4565b50505050565b600754604051630cfef0fb60e11b81526000916001600160a01b0316906319fde1f69061107a908590600401612dd7565b60206040518083038186803b15801561109257600080fd5b505afa1580156110a6573d6000803e3d6000fd5b505050506040513d601f19601f820116820180604052508101906106669190612bf9565b60606110d582611848565b600082815260066020526040812080546110ee906135c7565b80601f016020809104026020016040519081016040528092919081815260200182805461111a906135c7565b80156111675780601f1061113c57610100808354040283529160200191611167565b820191906000526020600020905b81548152906001019060200180831161114a57829003601f168201915b505050505090506000611178612527565b905080516000141561118c57509050610669565b8151156111be5780826040516020016111a6929190612d6d565b60405160208183030381529060405292505050610669565b6111c784612539565b949350505050565b600f5490565b600e81815481106107e457600080fd5b606060006111f36008611a7c565b905060008167ffffffffffffffff81111561121e57634e487b7160e01b600052604160045260246000fd5b60405190808252806020026020018201604052801561125757816020015b61124461299f565b81526020019060019003908161123c5790505b509050600080805b848110156113b057611272816001613558565b600081815260116020908152604091829020825160a0810184528154815260018201546001600160a01b0316928101929092526002810154928201929092526003820180549395509192909183916060840191906112cf906135c7565b80601f01602080910402602001604051908101604052809291908181526020018280546112fb906135c7565b80156113485780601f1061131d57610100808354040283529160200191611348565b820191906000526020600020905b81548152906001019060200180831161132b57829003601f168201915b50505091835250506004919091015460ff161515602090910152855186908690811061138457634e487b7160e01b600052603260045260246000fd5b602090810291909101015261139a600185613558565b93505080806113a890613602565b91505061125f565b5091935050505090565b601160205260009081526040902080546001820154600283015460038401805493946001600160a01b03909316939192916113f4906135c7565b80601f0160208091040260200160405190810160405280929190818152602001828054611420906135c7565b801561146d5780601f106114425761010080835404028352916020019161146d565b820191906000526020600020905b81548152906001019060200180831161145057829003601f168201915b5050506004909301549192505060ff1685565b6001600160a01b03918216600090815260056020908152604080832093909416825291909152205460ff1690565b60135481565b600d5481106114d55760405162461bcd60e51b815260040161076c9061334c565b805b600d546114e690600190613584565b81101561156257600d6114fa826001613558565b8154811061151857634e487b7160e01b600052603260045260246000fd5b9060005260206000200154600d828154811061154457634e487b7160e01b600052603260045260246000fd5b6000918252602090912001558061155a81613602565b9150506114d7565b50600d80548061091157634e487b7160e01b600052603160045260246000fd5b600754604051639f04996d60e01b81526000916001600160a01b031690639f04996d906115b5908690869060040161348a565b60206040518083038186803b1580156115cd57600080fd5b505afa1580156115e1573d6000803e3d6000fd5b505050506040513d601f19601f820116820180604052508101906116059190612c98565b905061161083610d6a565b6001600160a01b0316336001600160a01b0316146116405760405162461bcd60e51b815260040161076c906133f0565b80341461165f5760405162461bcd60e51b815260040161076c9061325c565b61166882611049565b6116845760405162461bcd60e51b815260040161076c90613103565b3361168e84610d6a565b6001600160a01b0316146116b45760405162461bcd60e51b815260040161076c90613214565b600a546001600160a01b0316316116dd5760405162461bcd60e51b815260040161076c90612ff0565b6000838152601160205260409020600180820180546004909301805460ff19169092179091556001600160a01b038481166001600160a01b0319841617909155166117286009611a73565b611733338486611940565b6000600b54836117439190613584565b600b54600a546040519195509192506001600160a01b039091169084156108fc029085906000818181858888f19350505050158015611786573d6000803e3d6000fd5b506040516001600160a01b0383169082156108fc029083906000818181858888f193505050501580156117bd573d6000803e3d6000fd5b50600754604051632074e3e360e21b81526001600160a01b03909116906381d38f8c906117f690889088906001906000906004016134e2565b600060405180830381600087803b15801561181057600080fd5b505af1158015611824573d6000803e3d6000fd5b505050505050505050565b6001600160e01b031981166301ffc9a760e01b14919050565b6118518161259f565b61186d5760405162461bcd60e51b815260040161076c90613378565b50565b3390565b600081815260046020526040902080546001600160a01b0319166001600160a01b03841690811790915581906118a982610d6a565b6001600160a01b03167f8c5be1e5ebec7d5bd14f71427d1e84f3dd0314c0f7b2291e5b200ac8c7c3b92560405160405180910390a45050565b6000806118ee83610d6a565b9050806001600160a01b0316846001600160a01b0316148061191557506119158185611480565b806111c75750836001600160a01b031661192e84610706565b6001600160a01b031614949350505050565b826001600160a01b031661195382610d6a565b6001600160a01b0316146119795760405162461bcd60e51b815260040161076c90612f74565b6001600160a01b03821661199f5760405162461bcd60e51b815260040161076c90613088565b6119aa8383836107c9565b6119b5600082611874565b6001600160a01b03831660009081526003602052604081208054600192906119de908490613584565b90915550506001600160a01b0382166000908152600360205260408120805460019290611a0c908490613558565b909155505060008181526002602052604080822080546001600160a01b0319166001600160a01b0386811691821790925591518493918716917fddf252ad1be2c89b69c2b068fc378daa952ba7f163c4a11628f55a4df523b3ef91a46107c98383836107c9565b80546001019055565b5490565b610eae8282604051806020016040528060008152506125bc565b611aa38261259f565b611abf5760405162461bcd60e51b815260040161076c906131c6565b600082815260066020908152604090912082516107c99284019061291b565b60008181526011602052604081206003018054611afa906135c7565b80601f0160208091040260200160405190810160405280929190818152602001828054611b26906135c7565b8015611b735780601f10611b4857610100808354040283529160200191611b73565b820191906000526020600020905b815481529060010190602001808311611b5657829003601f168201915b50505050509050604051602001611b8990612dc3565b6040516020818303038152906040528051906020012081604051602001611bb09190612d51565b604051602081830303815290604052805190602001201415611e8757600c54604051630675620360e21b81526000916001600160a01b0316906319d5880c90611c00908690600d90600401613508565b60206040518083038186803b158015611c1857600080fd5b505afa158015611c2c573d6000803e3d6000fd5b505050506040513d601f19601f82011682018060405250810190611c509190612bf9565b90506001604051602001611c649190612d43565b6040516020818303038152906040528051906020012081604051602001611c8b9190612d43565b604051602081830303815290604052805190602001201415611cbf5760405162461bcd60e51b815260040161076c9061301a565b600d805460018101825560009182527fd7b6990105719101dabeb77144f2a3385c8033acd3af97e9423a695e81ad1eb501849055600c5460405163085dca9160e21b81526001600160a01b03909116906321772a4490611d26908790600e90600401613508565b60206040518083038186803b158015611d3e57600080fd5b505afa158015611d52573d6000803e3d6000fd5b505050506040513d601f19601f82011682018060405250810190611d769190612c98565b600c5460405163d25a84eb60e01b81529192506000916001600160a01b039091169063d25a84eb90611daf908890600f90600401613508565b60206040518083038186803b158015611dc757600080fd5b505afa158015611ddb573d6000803e3d6000fd5b505050506040513d601f19601f82011682018060405250810190611dff9190612c98565b9050848214158015611e115750848114155b15611e2857611e1f82610eb2565b611e2881610843565b848214611e3d57611e3882610eb2565b611e7f565b848114611e4d57611e3881610843565b604080518082019091526009808252681b9bdd08199bdd5b9960ba1b6020909201918252611e7d9160109161291b565b505b505050610eae565b604051602001611e9690612db0565b6040516020818303038152906040528051906020012081604051602001611ebd9190612d51565b60405160208183030381529060405280519060200120141561214557600c5460405163032a5d1760e41b81526000916001600160a01b0316906332a5d17090611f0d908690600e90600401613508565b60206040518083038186803b158015611f2557600080fd5b505afa158015611f39573d6000803e3d6000fd5b505050506040513d601f19601f82011682018060405250810190611f5d9190612bf9565b90506001604051602001611f719190612d43565b6040516020818303038152906040528051906020012081604051602001611f989190612d43565b604051602081830303815290604052805190602001201415611fcc5760405162461bcd60e51b815260040161076c90613051565b600e805460018101825560009182527fbb7b4a454dc3493923482f07822329ed19e8244eff582cc204f8554c3620c3fd01849055600c5460405163d25a84eb60e01b81526001600160a01b039091169063d25a84eb90612033908790600d90600401613508565b60206040518083038186803b15801561204b57600080fd5b505afa15801561205f573d6000803e3d6000fd5b505050506040513d601f19601f820116820180604052508101906120839190612c98565b600c54604051630145146960e71b81529192506000916001600160a01b039091169063a28a3480906120bc908890600f90600401613508565b60206040518083038186803b1580156120d457600080fd5b505afa1580156120e8573d6000803e3d6000fd5b505050506040513d601f19601f8201168201806040525081019061210c9190612c98565b905084821415801561211e5750848114155b156121355761212c826114b4565b611e3881610843565b848214611e3d57611e38826114b4565b60405160200161215490612d9c565b604051602081830303815290604052805190602001208160405160200161217b9190612d51565b604051602081830303815290604052805190602001201415610eae57600c54604051637ef1cd4b60e01b81526000916001600160a01b031690637ef1cd4b906121cb908690600f90600401613508565b60206040518083038186803b1580156121e357600080fd5b505afa1580156121f7573d6000803e3d6000fd5b505050506040513d601f19601f8201168201806040525081019061221b9190612bf9565b9050600160405160200161222f9190612d43565b60405160208183030381529060405280519060200120816040516020016122569190612d43565b60405160208183030381529060405280519060200120141561228a5760405162461bcd60e51b815260040161076c9061318f565b600f805460018101825560009182527f8d1108e10bcb7c27dddfc02ed9d693a074039d026cf4ea4240b40f7d581ac80201849055600c5460405163d25a84eb60e01b81526001600160a01b039091169063d25a84eb906122f1908790600d90600401613508565b60206040518083038186803b15801561230957600080fd5b505afa15801561231d573d6000803e3d6000fd5b505050506040513d601f19601f820116820180604052508101906123419190612c98565b600c5460405163085dca9160e21b81529192506000916001600160a01b03909116906321772a449061237a908890600e90600401613508565b60206040518083038186803b15801561239257600080fd5b505afa1580156123a6573d6000803e3d6000fd5b505050506040513d601f19601f820116820180604052508101906123ca9190612c98565b90508482141580156123dc5750848114155b156123f8576123ea826114b4565b6123f381610eb2565b61244a565b848214612408576123f3826114b4565b848114612418576123f381610eb2565b604080518082019091526009808252681b9bdd08199bdd5b9960ba1b60209092019182526124489160109161291b565b505b5050505050565b816001600160a01b0316836001600160a01b031614156124835760405162461bcd60e51b815260040161076c906130cc565b6001600160a01b0383811660008181526005602090815260408083209487168084529490915290819020805460ff1916851515179055517f17307eab39ab6107e8899845ad3d59bd9653f200f220920489ca2b5937696c31906124e7908590612f04565b60405180910390a3505050565b6124ff848484611940565b61250b848484846125ef565b6110435760405162461bcd60e51b815260040161076c90612f22565b60408051602081019091526000815290565b606061254482611848565b600061254e612527565b9050600081511161256e5760405180602001604052806000815250611003565b806125788461270a565b604051602001612589929190612d6d565b6040516020818303038152906040529392505050565b6000908152600260205260409020546001600160a01b0316151590565b6125c68383612825565b6125d360008484846125ef565b6107c95760405162461bcd60e51b815260040161076c90612f22565b6000612603846001600160a01b031661290c565b156126ff57836001600160a01b031663150b7a0261261f611870565b8786866040518563ffffffff1660e01b81526004016126419493929190612deb565b602060405180830381600087803b15801561265b57600080fd5b505af192505050801561268b575060408051601f3d908101601f1916820190925261268891810190612c31565b60015b6126e5573d8080156126b9576040519150601f19603f3d011682016040523d82523d6000602084013e6126be565b606091505b5080516126dd5760405162461bcd60e51b815260040161076c90612f22565b805181602001fd5b6001600160e01b031916630a85bd0160e11b1490506111c7565b506001949350505050565b60608161272f57506040805180820190915260018152600360fc1b6020820152610669565b8160005b8115612759578061274381613602565b91506127529050600a83613570565b9150612733565b60008167ffffffffffffffff81111561278257634e487b7160e01b600052604160045260246000fd5b6040519080825280601f01601f1916602001820160405280156127ac576020820181803683370190505b5090505b84156111c7576127c1600183613584565b91506127ce600a8661361d565b6127d9906030613558565b60f81b8183815181106127fc57634e487b7160e01b600052603260045260246000fd5b60200101906001600160f81b031916908160001a90535061281e600a86613570565b94506127b0565b6001600160a01b03821661284b5760405162461bcd60e51b815260040161076c90613317565b6128548161259f565b156128715760405162461bcd60e51b815260040161076c90612fb9565b61287d600083836107c9565b6001600160a01b03821660009081526003602052604081208054600192906128a6908490613558565b909155505060008181526002602052604080822080546001600160a01b0319166001600160a01b03861690811790915590518392907fddf252ad1be2c89b69c2b068fc378daa952ba7f163c4a11628f55a4df523b3ef908290a4610eae600083836107c9565b6001600160a01b03163b151590565b828054612927906135c7565b90600052602060002090601f016020900481019282612949576000855561298f565b82601f1061296257805160ff191683800117855561298f565b8280016001018555821561298f579182015b8281111561298f578251825591602001919060010190612974565b5061299b9291506129d9565b5090565b6040518060a001604052806000815260200160006001600160a01b0316815260200160008152602001606081526020016000151581525090565b5b8082111561299b57600081556001016129da565b600067ffffffffffffffff80841115612a0957612a0961365d565b604051601f8501601f19908116603f01168101908282118183101715612a3157612a3161365d565b81604052809350858152868686011115612a4a57600080fd5b858560208301376000602087830101525050509392505050565b80356001600160a01b038116811461066957600080fd5b600082601f830112612a8b578081fd5b611003838335602085016129ee565b600060208284031215612aab578081fd5b61100382612a64565b60008060408385031215612ac6578081fd5b612acf83612a64565b9150612add60208401612a64565b90509250929050565b600080600060608486031215612afa578081fd5b612b0384612a64565b9250612b1160208501612a64565b9150604084013590509250925092565b60008060008060808587031215612b36578081fd5b612b3f85612a64565b9350612b4d60208601612a64565b925060408501359150606085013567ffffffffffffffff811115612b6f578182fd5b8501601f81018713612b7f578182fd5b612b8e878235602084016129ee565b91505092959194509250565b60008060408385031215612bac578182fd5b612bb583612a64565b91506020830135612bc581613673565b809150509250929050565b60008060408385031215612be2578182fd5b612beb83612a64565b946020939093013593505050565b600060208284031215612c0a578081fd5b815161100381613673565b600060208284031215612c26578081fd5b813561100381613681565b600060208284031215612c42578081fd5b815161100381613681565b600060208284031215612c5e578081fd5b813567ffffffffffffffff811115612c74578182fd5b6111c784828501612a7b565b600060208284031215612c91578081fd5b5035919050565b600060208284031215612ca9578081fd5b5051919050565b60008060408385031215612cc2578182fd5b82359150612add60208401612a64565b60008060408385031215612ce4578081fd5b82359150602083013567ffffffffffffffff811115612d01578182fd5b612d0d85828601612a7b565b9150509250929050565b60008151808452612d2f81602086016020860161359b565b601f01601f19169290920160200192915050565b90151560f81b815260010190565b60008251612d6381846020870161359b565b9190910192915050565b60008351612d7f81846020880161359b565b835190830190612d9381836020880161359b565b01949350505050565b6714995a9958dd195960c21b815260080190565b6650656e64696e6760c81b815260070190565b671058d8d95c1d195960c21b815260080190565b6001600160a01b0391909116815260200190565b6001600160a01b0385811682528416602082015260408101839052608060608201819052600090612e1e90830184612d17565b9695505050505050565b600060018060a01b038616825284602083015260806040830152612e4f6080830185612d17565b9050821515606083015295945050505050565b60208082528251828201819052600091906040908185019080840286018301878501865b83811015612ef657888303603f19018552815180518452878101516001600160a01b031688850152868101518785015260608082015160a08287018190529190612ed283880182612d17565b60809485015115159790940196909652505094870194925090860190600101612e86565b509098975050505050505050565b901515815260200190565b6000602082526110036020830184612d17565b60208082526032908201527f4552433732313a207472616e7366657220746f206e6f6e20455243373231526560408201527131b2b4bb32b91034b6b83632b6b2b73a32b960711b606082015260800190565b60208082526025908201527f4552433732313a207472616e736665722066726f6d20696e636f72726563742060408201526437bbb732b960d91b606082015260800190565b6020808252601c908201527f4552433732313a20746f6b656e20616c7265616479206d696e74656400000000604082015260600190565b60208082526010908201526f4e6f7420656e6f7567682066756e647360801b604082015260600190565b60208082526018908201527f4164647265737320616c72656164792061636365707465640000000000000000604082015260600190565b60208082526017908201527f4164647265737320616c72656164792070656e64696e67000000000000000000604082015260600190565b60208082526024908201527f4552433732313a207472616e7366657220746f20746865207a65726f206164646040820152637265737360e01b606082015260800190565b60208082526019908201527f4552433732313a20617070726f766520746f2063616c6c657200000000000000604082015260600190565b60208082526023908201527f54686973206164647265737320646964206e6f7420626964206f6e207468697360408201526202049560ec1b606082015260800190565b60208082526029908201527f4552433732313a2061646472657373207a65726f206973206e6f7420612076616040820152683634b21037bbb732b960b91b606082015260800190565b60208082526018908201527f4164647265737320616c72656164792072656a65637465640000000000000000604082015260600190565b6020808252602e908201527f45524337323155524953746f726167653a2055524920736574206f66206e6f6e60408201526d32bc34b9ba32b73a103a37b5b2b760911b606082015260800190565b60208082526028908201527f596f757220617265206e6f7420746865206f776e6572206f66207468697320746040820152671bdad95b8813919560c21b606082015260800190565b602080825260409082018190527f506c65617365207375626d6974207468652061736b696e672070726963652069908201527f6e206f7264657220746f20636f6d706c65746520746865207075726368617365606082015260800190565b6020808252603e908201527f4552433732313a20617070726f76652063616c6c6572206973206e6f7420746f60408201527f6b656e206f776e6572206e6f7220617070726f76656420666f7220616c6c0000606082015260800190565b6020808252818101527f4552433732313a206d696e7420746f20746865207a65726f2061646472657373604082015260600190565b6020808252601290820152711a5b99195e081bdd5d081bd988189bdd5b9960721b604082015260600190565b60208082526018908201527f4552433732313a20696e76616c696420746f6b656e2049440000000000000000604082015260600190565b60208082526021908201527f4552433732313a20617070726f76616c20746f2063757272656e74206f776e656040820152603960f91b606082015260800190565b60208082526023908201527f596f7520617265206e6f7420746865206f776e6572206f6620746865204950206040820152621b999d60ea1b606082015260800190565b6020808252602e908201527f4552433732313a2063616c6c6572206973206e6f7420746f6b656e206f776e6560408201526d1c881b9bdc88185c1c1c9bdd995960921b606082015260800190565b90815260200190565b9182526001600160a01b0316602082015260400190565b600086825260018060a01b038616602083015284604083015260a060608301526134ce60a0830185612d17565b905082151560808301529695505050505050565b9384526001600160a01b0392909216602084015215156040830152606082015260800190565b60006040820184835260206040818501528185548084526060860191508685528285209350845b8181101561354b5784548352600194850194928401920161352f565b5090979650505050505050565b6000821982111561356b5761356b613631565b500190565b60008261357f5761357f613647565b500490565b60008282101561359657613596613631565b500390565b60005b838110156135b657818101518382015260200161359e565b838111156110435750506000910152565b6002810460018216806135db57607f821691505b602082108114156135fc57634e487b7160e01b600052602260045260246000fd5b50919050565b600060001982141561361657613616613631565b5060010190565b60008261362c5761362c613647565b500690565b634e487b7160e01b600052601160045260246000fd5b634e487b7160e01b600052601260045260246000fd5b634e487b7160e01b600052604160045260246000fd5b801515811461186d57600080fd5b6001600160e01b03198116811461186d57600080fdfea26469706673582212202c2b0ab0ec361bd55925526e08bf0141ae951e077b797b14925dfbef38c4e30264736f6c63430008010033608060405234801561001057600080fd5b50610a4f806100206000396000f3fe608060405234801561001057600080fd5b50600436106100885760003560e01c80637ef1cd4b1161005b5780637ef1cd4b146100fc578063a28a34801461010f578063d25a84eb14610122578063fc966d451461013557610088565b806319d5880c1461008d57806321772a44146100b657806332a5d170146100d657806379cd9055146100e9575b600080fd5b6100a061009b3660046106e7565b610155565b6040516100ad91906107a3565b60405180910390f35b6100c96100c43660046106e7565b610206565b6040516100ad919061079a565b6100a06100e43660046106e7565b610263565b6100c96100f7366004610642565b610308565b6100a061010a3660046106e7565b6103bc565b6100c961011d3660046106e7565b610461565b6100c96101303660046106e7565b6104b6565b6101486101433660046106cf565b61050b565b6040516100ad91906107ae565b600060015b82518110156101fa5783604051602001610174919061079a565b604051602081830303815290604052805190602001208382815181106101aa57634e487b7160e01b600052603260045260246000fd5b60200260200101516040516020016101c2919061079a565b6040516020818303038152906040528051906020012014156101e8576001915050610200565b806101f2816109a8565b91505061015a565b50600090505b92915050565b6000805b825181101561025b578383828151811061023457634e487b7160e01b600052603260045260246000fd5b60200260200101511415610249579050610200565b80610253816109a8565b91505061020a565b509192915050565b600060015b82518110156101fa5783604051602001610282919061079a565b604051602081830303815290604052805190602001208382815181106102b857634e487b7160e01b600052603260045260246000fd5b60200260200101516040516020016102d0919061079a565b6040516020818303038152906040528051906020012014156102f6576001915050610200565b80610300816109a8565b915050610268565b60008082815b81518110156103b15760008183516103269190610991565b9050600083838151811061034a57634e487b7160e01b600052603260045260246000fd5b01602001516001600160f81b03198116915060f81c600061036c603083610991565b9050610379600185610991565b61038490600a6108a4565b61038e9082610972565b6103989088610832565b96505050505080806103a9906109a8565b91505061030e565b50909150505b919050565b600060015b82518110156101fa57836040516020016103db919061079a565b6040516020818303038152906040528051906020012083828151811061041157634e487b7160e01b600052603260045260246000fd5b6020026020010151604051602001610429919061079a565b60405160208183030381529060405280519060200120141561044f576001915050610200565b80610459816109a8565b9150506103c1565b6000805b825181101561025b578383828151811061048f57634e487b7160e01b600052603260045260246000fd5b602002602001015114156104a4579050610200565b806104ae816109a8565b915050610465565b6000805b825181101561025b57838382815181106104e457634e487b7160e01b600052603260045260246000fd5b602002602001015114156104f9579050610200565b80610503816109a8565b9150506104ba565b606060006105188361051f565b9392505050565b60608161054457506040805180820190915260018152600360fc1b60208201526103b7565b8160005b811561056e5780610558816109a8565b91506105679050600a8361084a565b9150610548565b60008167ffffffffffffffff81111561059757634e487b7160e01b600052604160045260246000fd5b6040519080825280601f01601f1916602001820160405280156105c1576020820181803683370190505b5090505b841561063a576105d6600183610991565b91506105e3600a866109c3565b6105ee906030610832565b60f81b81838151811061061157634e487b7160e01b600052603260045260246000fd5b60200101906001600160f81b031916908160001a905350610633600a8661084a565b94506105c5565b949350505050565b60006020808385031215610654578182fd5b823567ffffffffffffffff8082111561066b578384fd5b818501915085601f83011261067e578384fd5b81358181111561069057610690610a03565b6106a2601f8201601f19168501610801565b915080825286848285010111156106b7578485fd5b80848401858401378101909201929092529392505050565b6000602082840312156106e0578081fd5b5035919050565b600080604083850312156106f9578081fd5b8235915060208084013567ffffffffffffffff80821115610718578384fd5b818601915086601f83011261072b578384fd5b81358181111561073d5761073d610a03565b838102915061074d848301610801565b8181528481019084860184860187018b1015610767578788fd5b8795505b8386101561078957803583526001959095019491860191860161076b565b508096505050505050509250929050565b90815260200190565b901515815260200190565b6000602080835283518082850152825b818110156107da578581018301518582016040015282016107be565b818111156107eb5783604083870101525b50601f01601f1916929092016040019392505050565b604051601f8201601f1916810167ffffffffffffffff8111828210171561082a5761082a610a03565b604052919050565b60008219821115610845576108456109d7565b500190565b600082610859576108596109ed565b500490565b80825b6001808611610870575061089b565b818704821115610882576108826109d7565b8086161561088f57918102915b9490941c938002610861565b94509492505050565b600061051860001984846000826108bd57506001610518565b816108ca57506000610518565b81600181146108e057600281146108ea57610917565b6001915050610518565b60ff8411156108fb576108fb6109d7565b6001841b915084821115610911576109116109d7565b50610518565b5060208310610133831016604e8410600b841016171561094a575081810a83811115610945576109456109d7565b610518565b610957848484600161085e565b808604821115610969576109696109d7565b02949350505050565b600081600019048311821515161561098c5761098c6109d7565b500290565b6000828210156109a3576109a36109d7565b500390565b60006000198214156109bc576109bc6109d7565b5060010190565b6000826109d2576109d26109ed565b500690565b634e487b7160e01b600052601160045260246000fd5b634e487b7160e01b600052601260045260246000fd5b634e487b7160e01b600052604160045260246000fdfea26469706673582212206718810264a92761ab270d68aebbab319be10bb0a2485de341ef1c5ab4d4da9264736f6c63430008010033",
  "immutableReferences": {},
  "source": "//SPDX-License-Identifier: Unlicense\r\npragma solidity ^0.8.0;\r\n\r\nimport \"hardhat/console.sol\";\r\nimport \"@openzeppelin/contracts/utils/Counters.sol\";\r\nimport \"@openzeppelin/contracts/token/ERC721/extensions/ERC721URIStorage.sol\";\r\nimport \"@openzeppelin/contracts/token/ERC721/ERC721.sol\";\r\nimport \"@chainlink/contracts/src/v0.8/ChainlinkClient.sol\";\r\nimport \"@chainlink/contracts/src/v0.8/ConfirmedOwner.sol\";\r\n\r\nimport {convert} from \"./Convert.sol\";\r\n\r\ninterface Ipbidder {\r\n   function bid(uint256 val, address bidderAdd) external view returns(uint);\r\n   function isBidder(address bidderAdd) external view returns(bool);\r\n   function valueChange(uint256 tokenId, address bidAdd, bool text, uint256 value) external;\r\n   function bidderDeposit(uint256 tokenId) payable external returns(bool); \r\n}\r\n\r\ncontract ContractIp is ERC721URIStorage{\r\n    address bidcontract = 0xE31cD465B9030b7D1bfE2D6F93e5D5E5A1Bef9c5;\r\n    \r\n    // using Chainlink for Chainlink.Request;\r\n\r\n    // string public test;\r\n    // bytes32 private jobId;\r\n    // uint256 private fee;\r\n\r\n    // event RequestVolume(bytes32 indexed requestId, string test);\r\n\r\n    using Counters for Counters.Counter;\r\n    //_tokenIds variable has the most recent minted tokenId\r\n    Counters.Counter private _tokenIds;\r\n    //Keeps track of the number of items sold on the marketplace\r\n    Counters.Counter private _itemsSold;\r\n    //owner is the contract address that created the smart contract\r\n    address payable owner;\r\n    //The fee charged by the marketplace to be allowed to list an NFT\r\n    uint256 public commissionPrice = 0.001 ether;\r\n\r\n    convert conv = new convert();\r\n\r\n    //The structure to store info about a listed token\r\n    struct RequestedNfts {\r\n        uint256 tokenId;\r\n        address payable Nftowner;\r\n        uint256 timestamp;        \r\n        string status; \r\n        bool isRegistered;\r\n    }\r\n\r\n    //the event emitted when a token is successfully listed\r\n    event TokenAcceptedNft (\r\n        uint256 indexed tokenId,\r\n        address Nftowner,\r\n        uint256 timestamp,       \r\n        string status,\r\n        bool isRegistered\r\n    );\r\n\r\n    uint[] public acceptedIps;\r\n    uint[] public pendingIps;\r\n    uint[] public rejectedIps;\r\n    string public result;\r\n    //This mapping maps tokenId to token info and is helpful when retrieving details about a tokenId\r\n    mapping(uint256 => RequestedNfts) public idToListedToken;    \r\n    modifier onlyOwner {\r\n        require(msg.sender == owner);\r\n        _;\r\n    }\r\n\r\n    uint public receivedWei;\r\n    uint public returnedWei;\r\n\r\n    constructor() ERC721(\"NFTMarketplace\", \"NFTM\") { \r\n        owner = payable(msg.sender);\r\n    }\r\n    \r\n    // constructor() ERC721(\"NFTMarketplace\", \"NFTM\") {\r\n    //     owner = payable(msg.sender);\r\n    //     setChainlinkToken(0x779877A7B0D9E8603169DdbD7836e478b4624789);\r\n    //     setChainlinkOracle(0x6090149792dAAeE9D1D568c9f9a6F6B46AA29eFD);\r\n    //     jobId = \"7d80a6386ef543a3abb52817f6707e3b\";\r\n    //     fee = (1 * LINK_DIVISIBILITY) / 10; // 0,1 * 10**18 (Varies by network and job)\r\n    // }\r\n\r\n    // function requestVolumeData() public returns (bytes32 requestId) {\r\n    //     Chainlink.Request memory req = buildChainlinkRequest(\r\n    //         jobId,\r\n    //         address(this),\r\n    //         this.fulfill.selector\r\n    //     );\r\n\r\n    //     // Set the URL to perform the GET request on\r\n    //     req.add(\r\n    //         \"get\",\r\n    //         \"http://www.patentsview.org/api/assignees/\"\r\n    //     );\r\n\r\n    \r\n    //     req.add(\"path\", \"args,patent_name,patent_date\"); // Chainlink nodes 1.0.0 and later support this format\r\n\r\n    //     // Sends the request\r\n    //     return sendChainlinkRequest(req, fee);\r\n    // }\r\n\r\n    // setup royality fee that is going to be paid to artist the creator\r\n    function updateCommissionFee(uint256 _cp) external payable onlyOwner  {\r\n        commissionPrice = _cp; // 15 basis points = 0.15 percent\r\n        \r\n    }\r\n\r\n    //The first time a token is created, it is listed here\r\n    function createToken(string memory tokenURI) public payable returns (uint) {\r\n        //Increment the tokenId counter, which is keeping track of the number of minted NFTs\r\n        _tokenIds.increment();\r\n        uint256 newTokenId = _tokenIds.current();\r\n\r\n        //Mint the NFT with tokenId newTokenId to the address who called createToken\r\n        _safeMint(msg.sender, newTokenId);\r\n\r\n        //Map the tokenId to the tokenURI (which is an IPFS URL with the NFT metadata)\r\n        _setTokenURI(newTokenId, tokenURI);\r\n        \r\n        string memory currentstatus = \"Pending\" ;\r\n        //Helper function to update Global variables and emit an event\r\n        //createListedToken(newTokenId, currentstatus);\r\n          idToListedToken[newTokenId] = RequestedNfts(\r\n            newTokenId,\r\n         //   payable(address(this)),\r\n            payable(msg.sender),\r\n            block.timestamp,\r\n            currentstatus,\r\n            true\r\n        );\r\n         pendingIps.push(newTokenId);  \r\n\r\n        //Emit the event for successful transfer. The frontend parses this message and updates the end user\r\n        emit TokenAcceptedNft( newTokenId, msg.sender, block.timestamp, currentstatus, true);\r\n \r\n        return newTokenId;\r\n    }\r\n\r\n    // Admin function\r\n    function changeStatus(uint tokenId, string memory status) public onlyOwner returns(bool) {\r\n        idToListedToken[tokenId].status = status;\r\n        // newcount[i].count++; \r\n        conditionStatus(tokenId);\r\n        return true;\r\n    }\r\n\r\n    function conditionStatus(uint tokenId) private {\r\n        // uint num = newcount[i].count;\r\n        string memory statustext = idToListedToken[tokenId].status;\r\n        if(keccak256(abi.encodePacked(statustext)) == keccak256(abi.encodePacked('Accepted'))){\r\n            bool val = conv.addressExistAccept(tokenId, acceptedIps);\r\n            require((keccak256(abi.encodePacked(val)) != keccak256(abi.encodePacked(true))), 'Address already accepted');\r\n            acceptedIps.push(tokenId);\r\n            uint256 value1 = conv.indexOfPending(tokenId, pendingIps);\r\n            uint256 value2 = conv.indexOfAccepted(tokenId, rejectedIps);                     \r\n           if(value1 != tokenId && value2 != tokenId){         \r\n                removePending(value1);  \r\n                removeRejected(value2);\r\n           } \r\n           if (value1 != tokenId){\r\n              removePending(value1);  \r\n            }\r\n           else if(value2 != tokenId){\r\n              removeRejected(value2);\r\n            }\r\n            else {\r\n              result = 'not found';\r\n           }\r\n        } \r\n        else if(keccak256(abi.encodePacked(statustext)) == keccak256(abi.encodePacked('Pending'))){\r\n            bool val = conv.addressExistPend(tokenId, pendingIps);\r\n            require((keccak256(abi.encodePacked(val)) != keccak256(abi.encodePacked(true))), 'Address already pending');\r\n            pendingIps.push(tokenId);\r\n            uint256 value1 = conv.indexOfAccepted(tokenId, acceptedIps);\r\n            uint256 value2 = conv.indexOfRejected(tokenId, rejectedIps);\r\n            if(value1 != tokenId && value2 != tokenId){\r\n                removeAccepted(value1); \r\n                removeRejected(value2);\r\n            }\r\n            else if(value1 != tokenId){\r\n                removeAccepted(value1); \r\n            }\r\n            else if(value2 != tokenId){\r\n                removeRejected(value2);       \r\n            }\r\n                else {\r\n                result = 'not found';\r\n            }\r\n           } else if(keccak256(abi.encodePacked(statustext)) == keccak256(abi.encodePacked('Rejected'))){\r\n            bool val = conv.addressExistReject(tokenId, rejectedIps);\r\n            require((keccak256(abi.encodePacked(val)) != keccak256(abi.encodePacked(true))), 'Address already rejected');\r\n            rejectedIps.push(tokenId);\r\n            uint256 value1 = conv.indexOfAccepted(tokenId, acceptedIps);\r\n            uint256 value2 = conv.indexOfPending(tokenId, pendingIps);\r\n                    \r\n            if(value1 != tokenId && value2 != tokenId){\r\n                removeAccepted(value1);            \r\n                removePending(value2);\r\n            }\r\n            else if(value1 != tokenId){\r\n                removeAccepted(value1); \r\n            }\r\n            else if(value2 != tokenId){\r\n                removePending(value2);      \r\n            }\r\n                else {\r\n                result = 'not found';\r\n            }\r\n        }   \r\n    }    \r\n\r\n    function removeAccepted(uint _index) public {\r\n        require(_index < acceptedIps.length, \"index out of bound\");\r\n        for (uint i = _index; i < acceptedIps.length - 1; i++){\r\n            acceptedIps[i] = acceptedIps[i+1];\r\n        }\r\n        acceptedIps.pop();\r\n    }\r\n\r\n    function removePending(uint _index) public {\r\n        require(_index < pendingIps.length, \"index out of bound\");\r\n        for (uint i = _index; i < pendingIps.length - 1; i++){\r\n            pendingIps[i] = pendingIps[i+1];\r\n        }\r\n        pendingIps.pop();\r\n    }\r\n\r\n    function removeRejected(uint _index) public {\r\n        require(_index < rejectedIps.length, \"index out of bound\");\r\n        for (uint i = _index; i < rejectedIps.length - 1; i++){\r\n            rejectedIps[i] = rejectedIps[i+1];\r\n        }\r\n        rejectedIps.pop();\r\n    }\r\n    \r\n    function countAcceptedIPs() view public returns (uint) { return acceptedIps.length;  }\r\n\r\n    function countPendingIPs() view public returns (uint) { return pendingIps.length; }\r\n\r\n    function countRejectedIPs() view public returns (uint) { return rejectedIps.length; }\r\n\r\n    //This will return all the NFTs currently listed to be sold on the marketplace\r\n    function getAllNFTs() public view returns (RequestedNfts[] memory) {\r\n        uint nftCount = _tokenIds.current();\r\n        RequestedNfts[] memory tokens = new RequestedNfts[](nftCount);\r\n        uint currentIndex = 0;\r\n        uint currentId;\r\n        //at the moment currentlyListed is true for all, if it becomes false in the future we will \r\n        //filter out currentlyListed == false over here\r\n        for(uint i=0;i<nftCount;i++)\r\n        {\r\n            currentId = i + 1;\r\n            RequestedNfts storage currentItem = idToListedToken[currentId];\r\n            tokens[currentIndex] = currentItem;\r\n            currentIndex += 1;\r\n        }\r\n        //the array 'tokens' has the list of all NFTs in the marketplace\r\n        return tokens;\r\n    }\r\n\r\n    function getMyNFTs() public view returns (RequestedNfts[] memory) {\r\n        uint totalItemCount = _tokenIds.current();\r\n        uint itemCount = 0;\r\n        uint currentIndex = 0;\r\n        uint currentId;\r\n        //Important to get a count of all the NFTs that belong to the user before we can make an array for them\r\n        for(uint i=0; i < totalItemCount; i++)\r\n        {\r\n            if(idToListedToken[i+1].Nftowner == msg.sender){\r\n                itemCount += 1;\r\n            }\r\n        }\r\n\r\n        //Once you have the count of relevant NFTs, create an array then store all the NFTs in it\r\n        RequestedNfts[] memory items = new RequestedNfts[](itemCount);\r\n        for(uint i=0; i < totalItemCount; i++) {\r\n            if(idToListedToken[i+1].Nftowner == msg.sender) {\r\n                currentId = i+1;\r\n                RequestedNfts storage currentItem = idToListedToken[currentId];\r\n                items[currentIndex] = currentItem;\r\n                currentIndex += 1;\r\n            }\r\n        }\r\n        return items;\r\n    }\r\n\r\n    function bidVal(uint256 tokenId, address bidderAddress) public view returns(uint) {\r\n        return Ipbidder(bidcontract).bid(tokenId,bidderAddress); \r\n    }\r\n\r\n    function check(address bidderAddress) public view returns(bool){\r\n        return Ipbidder(bidcontract).isBidder(bidderAddress);\r\n    }\r\n\r\n    function executeSale(uint256 tokenId, address bidderAddress) public payable{\r\n            uint256 bidValue = Ipbidder(bidcontract).bid(tokenId,bidderAddress); \r\n            require(msg.sender == ownerOf(tokenId), \"You are not the owner of the IP nft\");\r\n            require(msg.value == bidValue, \"Please submit the asking price in order to complete the purchase\");\r\n            require(check(bidderAddress), \"This address did not bid on this IP\");\r\n            require(ownerOf(tokenId) == msg.sender, \"Your are not the owner of this token NFT\");\r\n            require(owner.balance > 0, \"Not enough funds\" );\r\n           \r\n            address seller = idToListedToken[tokenId].Nftowner;            \r\n            idToListedToken[tokenId].isRegistered = true;\r\n            idToListedToken[tokenId].Nftowner = payable(bidderAddress);\r\n            _itemsSold.increment();\r\n          \r\n            _transfer(msg.sender, bidderAddress, tokenId);           \r\n            //uint256 comPrice = bidValue * commissionPrice;\r\n            uint256 bidPrice = bidValue - commissionPrice;\r\n            bidValue = commissionPrice;\r\n            payable(owner).transfer(bidValue);\r\n            payable(seller).transfer(bidPrice);\r\n            Ipbidder(bidcontract).valueChange(tokenId, bidderAddress, true, 0);\r\n       \r\n        }\r\n}",
  "sourcePath": "P:\\IPR-Management\\smart_contract\\contracts\\ContractIp.sol",
  "compiler": {
    "name": "solc",
    "version": "0.8.1+commit.df193b15.Emscripten.clang"
  },
  "schemaVersion": "3.4.16",
  "updatedAt": "2025-04-22T09:46:07.187Z",
  "devdoc": {
    "kind": "dev",
    "methods": {
      "approve(address,uint256)": {
        "details": "See {IERC721-approve}."
      },
      "balanceOf(address)": {
        "details": "See {IERC721-balanceOf}."
      },
      "getApproved(uint256)": {
        "details": "See {IERC721-getApproved}."
      },
      "isApprovedForAll(address,address)": {
        "details": "See {IERC721-isApprovedForAll}."
      },
      "name()": {
        "details": "See {IERC721Metadata-name}."
      },
      "ownerOf(uint256)": {
        "details": "See {IERC721-ownerOf}."
      },
      "safeTransferFrom(address,address,uint256)": {
        "details": "See {IERC721-safeTransferFrom}."
      },
      "safeTransferFrom(address,address,uint256,bytes)": {
        "details": "See {IERC721-safeTransferFrom}."
      },
      "setApprovalForAll(address,bool)": {
        "details": "See {IERC721-setApprovalForAll}."
      },
      "supportsInterface(bytes4)": {
        "details": "See {IERC165-supportsInterface}."
      },
      "symbol()": {
        "details": "See {IERC721Metadata-symbol}."
      },
      "tokenURI(uint256)": {
        "details": "See {IERC721Metadata-tokenURI}."
      },
      "transferFrom(address,address,uint256)": {
        "details": "See {IERC721-transferFrom}."
      }
    },
    "version": 1
  },
  "userdoc": {
    "kind": "user",
    "methods": {},
    "version": 1
  }
}