{
  "contractName": "ContractIp",
  "abi": [
    {
      "inputs": [],
      "stateMutability": "nonpayable",
      "type": "constructor"
    },
    {
      "anonymous": false,
      "inputs": [
        {
          "indexed": true,
          "internalType": "address",
          "name": "owner",
          "type": "address"
        },
        {
          "indexed": true,
          "internalType": "address",
          "name": "approved",
          "type": "address"
        },
        {
          "indexed": true,
          "internalType": "uint256",
          "name": "tokenId",
          "type": "uint256"
        }
      ],
      "name": "Approval",
      "type": "event"
    },
    {
      "anonymous": false,
      "inputs": [
        {
          "indexed": true,
          "internalType": "address",
          "name": "owner",
          "type": "address"
        },
        {
          "indexed": true,
          "internalType": "address",
          "name": "operator",
          "type": "address"
        },
        {
          "indexed": false,
          "internalType": "bool",
          "name": "approved",
          "type": "bool"
        }
      ],
      "name": "ApprovalForAll",
      "type": "event"
    },
    {
      "anonymous": false,
      "inputs": [
        {
          "indexed": true,
          "internalType": "uint256",
          "name": "tokenId",
          "type": "uint256"
        },
        {
          "indexed": false,
          "internalType": "address",
          "name": "Nftowner",
          "type": "address"
        },
        {
          "indexed": false,
          "internalType": "uint256",
          "name": "timestamp",
          "type": "uint256"
        },
        {
          "indexed": false,
          "internalType": "string",
          "name": "status",
          "type": "string"
        },
        {
          "indexed": false,
          "internalType": "bool",
          "name": "isRegistered",
          "type": "bool"
        }
      ],
      "name": "TokenAcceptedNft",
      "type": "event"
    },
    {
      "anonymous": false,
      "inputs": [
        {
          "indexed": true,
          "internalType": "address",
          "name": "from",
          "type": "address"
        },
        {
          "indexed": true,
          "internalType": "address",
          "name": "to",
          "type": "address"
        },
        {
          "indexed": true,
          "internalType": "uint256",
          "name": "tokenId",
          "type": "uint256"
        }
      ],
      "name": "Transfer",
      "type": "event"
    },
    {
      "inputs": [
        {
          "internalType": "uint256",
          "name": "",
          "type": "uint256"
        }
      ],
      "name": "acceptedIps",
      "outputs": [
        {
          "internalType": "uint256",
          "name": "",
          "type": "uint256"
        }
      ],
      "stateMutability": "view",
      "type": "function"
    },
    {
      "inputs": [
        {
          "internalType": "address",
          "name": "to",
          "type": "address"
        },
        {
          "internalType": "uint256",
          "name": "tokenId",
          "type": "uint256"
        }
      ],
      "name": "approve",
      "outputs": [],
      "stateMutability": "nonpayable",
      "type": "function"
    },
    {
      "inputs": [
        {
          "internalType": "address",
          "name": "owner",
          "type": "address"
        }
      ],
      "name": "balanceOf",
      "outputs": [
        {
          "internalType": "uint256",
          "name": "",
          "type": "uint256"
        }
      ],
      "stateMutability": "view",
      "type": "function"
    },
    {
      "inputs": [],
      "name": "commissionPrice",
      "outputs": [
        {
          "internalType": "uint256",
          "name": "",
          "type": "uint256"
        }
      ],
      "stateMutability": "view",
      "type": "function"
    },
    {
      "inputs": [
        {
          "internalType": "uint256",
          "name": "tokenId",
          "type": "uint256"
        }
      ],
      "name": "getApproved",
      "outputs": [
        {
          "internalType": "address",
          "name": "",
          "type": "address"
        }
      ],
      "stateMutability": "view",
      "type": "function"
    },
    {
      "inputs": [
        {
          "internalType": "uint256",
          "name": "",
          "type": "uint256"
        }
      ],
      "name": "idToListedToken",
      "outputs": [
        {
          "internalType": "uint256",
          "name": "tokenId",
          "type": "uint256"
        },
        {
          "internalType": "address payable",
          "name": "Nftowner",
          "type": "address"
        },
        {
          "internalType": "uint256",
          "name": "timestamp",
          "type": "uint256"
        },
        {
          "internalType": "string",
          "name": "status",
          "type": "string"
        },
        {
          "internalType": "bool",
          "name": "isRegistered",
          "type": "bool"
        }
      ],
      "stateMutability": "view",
      "type": "function"
    },
    {
      "inputs": [
        {
          "internalType": "address",
          "name": "owner",
          "type": "address"
        },
        {
          "internalType": "address",
          "name": "operator",
          "type": "address"
        }
      ],
      "name": "isApprovedForAll",
      "outputs": [
        {
          "internalType": "bool",
          "name": "",
          "type": "bool"
        }
      ],
      "stateMutability": "view",
      "type": "function"
    },
    {
      "inputs": [],
      "name": "name",
      "outputs": [
        {
          "internalType": "string",
          "name": "",
          "type": "string"
        }
      ],
      "stateMutability": "view",
      "type": "function"
    },
    {
      "inputs": [
        {
          "internalType": "uint256",
          "name": "tokenId",
          "type": "uint256"
        }
      ],
      "name": "ownerOf",
      "outputs": [
        {
          "internalType": "address",
          "name": "",
          "type": "address"
        }
      ],
      "stateMutability": "view",
      "type": "function"
    },
    {
      "inputs": [
        {
          "internalType": "uint256",
          "name": "",
          "type": "uint256"
        }
      ],
      "name": "pendingIps",
      "outputs": [
        {
          "internalType": "uint256",
          "name": "",
          "type": "uint256"
        }
      ],
      "stateMutability": "view",
      "type": "function"
    },
    {
      "inputs": [],
      "name": "receivedWei",
      "outputs": [
        {
          "internalType": "uint256",
          "name": "",
          "type": "uint256"
        }
      ],
      "stateMutability": "view",
      "type": "function"
    },
    {
      "inputs": [
        {
          "internalType": "uint256",
          "name": "",
          "type": "uint256"
        }
      ],
      "name": "rejectedIps",
      "outputs": [
        {
          "internalType": "uint256",
          "name": "",
          "type": "uint256"
        }
      ],
      "stateMutability": "view",
      "type": "function"
    },
    {
      "inputs": [],
      "name": "result",
      "outputs": [
        {
          "internalType": "string",
          "name": "",
          "type": "string"
        }
      ],
      "stateMutability": "view",
      "type": "function"
    },
    {
      "inputs": [],
      "name": "returnedWei",
      "outputs": [
        {
          "internalType": "uint256",
          "name": "",
          "type": "uint256"
        }
      ],
      "stateMutability": "view",
      "type": "function"
    },
    {
      "inputs": [
        {
          "internalType": "address",
          "name": "from",
          "type": "address"
        },
        {
          "internalType": "address",
          "name": "to",
          "type": "address"
        },
        {
          "internalType": "uint256",
          "name": "tokenId",
          "type": "uint256"
        }
      ],
      "name": "safeTransferFrom",
      "outputs": [],
      "stateMutability": "nonpayable",
      "type": "function"
    },
    {
      "inputs": [
        {
          "internalType": "address",
          "name": "from",
          "type": "address"
        },
        {
          "internalType": "address",
          "name": "to",
          "type": "address"
        },
        {
          "internalType": "uint256",
          "name": "tokenId",
          "type": "uint256"
        },
        {
          "internalType": "bytes",
          "name": "data",
          "type": "bytes"
        }
      ],
      "name": "safeTransferFrom",
      "outputs": [],
      "stateMutability": "nonpayable",
      "type": "function"
    },
    {
      "inputs": [
        {
          "internalType": "address",
          "name": "operator",
          "type": "address"
        },
        {
          "internalType": "bool",
          "name": "approved",
          "type": "bool"
        }
      ],
      "name": "setApprovalForAll",
      "outputs": [],
      "stateMutability": "nonpayable",
      "type": "function"
    },
    {
      "inputs": [
        {
          "internalType": "bytes4",
          "name": "interfaceId",
          "type": "bytes4"
        }
      ],
      "name": "supportsInterface",
      "outputs": [
        {
          "internalType": "bool",
          "name": "",
          "type": "bool"
        }
      ],
      "stateMutability": "view",
      "type": "function"
    },
    {
      "inputs": [],
      "name": "symbol",
      "outputs": [
        {
          "internalType": "string",
          "name": "",
          "type": "string"
        }
      ],
      "stateMutability": "view",
      "type": "function"
    },
    {
      "inputs": [
        {
          "internalType": "uint256",
          "name": "tokenId",
          "type": "uint256"
        }
      ],
      "name": "tokenURI",
      "outputs": [
        {
          "internalType": "string",
          "name": "",
          "type": "string"
        }
      ],
      "stateMutability": "view",
      "type": "function"
    },
    {
      "inputs": [
        {
          "internalType": "address",
          "name": "from",
          "type": "address"
        },
        {
          "internalType": "address",
          "name": "to",
          "type": "address"
        },
        {
          "internalType": "uint256",
          "name": "tokenId",
          "type": "uint256"
        }
      ],
      "name": "transferFrom",
      "outputs": [],
      "stateMutability": "nonpayable",
      "type": "function"
    },
    {
      "inputs": [
        {
          "internalType": "uint256",
          "name": "_cp",
          "type": "uint256"
        }
      ],
      "name": "updateCommissionFee",
      "outputs": [],
      "stateMutability": "payable",
      "type": "function"
    },
    {
      "inputs": [
        {
          "internalType": "string",
          "name": "tokenURI",
          "type": "string"
        }
      ],
      "name": "createToken",
      "outputs": [
        {
          "internalType": "uint256",
          "name": "",
          "type": "uint256"
        }
      ],
      "stateMutability": "payable",
      "type": "function"
    },
    {
      "inputs": [
        {
          "internalType": "uint256",
          "name": "tokenId",
          "type": "uint256"
        },
        {
          "internalType": "string",
          "name": "status",
          "type": "string"
        }
      ],
      "name": "changeStatus",
      "outputs": [
        {
          "internalType": "bool",
          "name": "",
          "type": "bool"
        }
      ],
      "stateMutability": "nonpayable",
      "type": "function"
    },
    {
      "inputs": [
        {
          "internalType": "uint256",
          "name": "_index",
          "type": "uint256"
        }
      ],
      "name": "removeAccepted",
      "outputs": [],
      "stateMutability": "nonpayable",
      "type": "function"
    },
    {
      "inputs": [
        {
          "internalType": "uint256",
          "name": "_index",
          "type": "uint256"
        }
      ],
      "name": "removePending",
      "outputs": [],
      "stateMutability": "nonpayable",
      "type": "function"
    },
    {
      "inputs": [
        {
          "internalType": "uint256",
          "name": "_index",
          "type": "uint256"
        }
      ],
      "name": "removeRejected",
      "outputs": [],
      "stateMutability": "nonpayable",
      "type": "function"
    },
    {
      "inputs": [],
      "name": "countAcceptedIPs",
      "outputs": [
        {
          "internalType": "uint256",
          "name": "",
          "type": "uint256"
        }
      ],
      "stateMutability": "view",
      "type": "function"
    },
    {
      "inputs": [],
      "name": "countPendingIPs",
      "outputs": [
        {
          "internalType": "uint256",
          "name": "",
          "type": "uint256"
        }
      ],
      "stateMutability": "view",
      "type": "function"
    },
    {
      "inputs": [],
      "name": "countRejectedIPs",
      "outputs": [
        {
          "internalType": "uint256",
          "name": "",
          "type": "uint256"
        }
      ],
      "stateMutability": "view",
      "type": "function"
    },
    {
      "inputs": [],
      "name": "getAllNFTs",
      "outputs": [
        {
          "components": [
            {
              "internalType": "uint256",
              "name": "tokenId",
              "type": "uint256"
            },
            {
              "internalType": "address payable",
              "name": "Nftowner",
              "type": "address"
            },
            {
              "internalType": "uint256",
              "name": "timestamp",
              "type": "uint256"
            },
            {
              "internalType": "string",
              "name": "status",
              "type": "string"
            },
            {
              "internalType": "bool",
              "name": "isRegistered",
              "type": "bool"
            }
          ],
          "internalType": "struct ContractIp.RequestedNfts[]",
          "name": "",
          "type": "tuple[]"
        }
      ],
      "stateMutability": "view",
      "type": "function"
    },
    {
      "inputs": [],
      "name": "getMyNFTs",
      "outputs": [
        {
          "components": [
            {
              "internalType": "uint256",
              "name": "tokenId",
              "type": "uint256"
            },
            {
              "internalType": "address payable",
              "name": "Nftowner",
              "type": "address"
            },
            {
              "internalType": "uint256",
              "name": "timestamp",
              "type": "uint256"
            },
            {
              "internalType": "string",
              "name": "status",
              "type": "string"
            },
            {
              "internalType": "bool",
              "name": "isRegistered",
              "type": "bool"
            }
          ],
          "internalType": "struct ContractIp.RequestedNfts[]",
          "name": "",
          "type": "tuple[]"
        }
      ],
      "stateMutability": "view",
      "type": "function"
    },
    {
      "inputs": [
        {
          "internalType": "uint256",
          "name": "tokenId",
          "type": "uint256"
        },
        {
          "internalType": "address",
          "name": "bidderAddress",
          "type": "address"
        }
      ],
      "name": "bidVal",
      "outputs": [
        {
          "internalType": "uint256",
          "name": "",
          "type": "uint256"
        }
      ],
      "stateMutability": "view",
      "type": "function"
    },
    {
      "inputs": [
        {
          "internalType": "address",
          "name": "bidderAddress",
          "type": "address"
        }
      ],
      "name": "check",
      "outputs": [
        {
          "internalType": "bool",
          "name": "",
          "type": "bool"
        }
      ],
      "stateMutability": "view",
      "type": "function"
    },
    {
      "inputs": [
        {
          "internalType": "uint256",
          "name": "tokenId",
          "type": "uint256"
        },
        {
          "internalType": "address",
          "name": "bidderAddress",
          "type": "address"
        }
      ],
      "name": "executeSale",
      "outputs": [],
      "stateMutability": "payable",
      "type": "function"
    }
  ],
  "bytecode": "0x608060405273e31cd465b9030b7d1bfe2d6f93e5d5e5a1bef9c560075f6101000a81548173ffffffffffffffffffffffffffffffffffffffff021916908373ffffffffffffffffffffffffffffffffffffffff16021790555066038d7ea4c68000600b556040516200007190620001af565b604051809103905ff0801580156200008b573d5f803e3d5ffd5b50600c5f6101000a81548173ffffffffffffffffffffffffffffffffffffffff021916908373ffffffffffffffffffffffffffffffffffffffff160217905550348015620000d7575f80fd5b506040518060400160405280600e81526020017f4e46544d61726b6574706c6163650000000000000000000000000000000000008152506040518060400160405280600481526020017f4e46544d00000000000000000000000000000000000000000000000000000000815250815f908162000154919062000421565b50806001908162000166919062000421565b50505033600a5f6101000a81548173ffffffffffffffffffffffffffffffffffffffff021916908373ffffffffffffffffffffffffffffffffffffffff16021790555062000505565b610f008062005d4a83390190565b5f81519050919050565b7f4e487b71000000000000000000000000000000000000000000000000000000005f52604160045260245ffd5b7f4e487b71000000000000000000000000000000000000000000000000000000005f52602260045260245ffd5b5f60028204905060018216806200023957607f821691505b6020821081036200024f576200024e620001f4565b5b50919050565b5f819050815f5260205f209050919050565b5f6020601f8301049050919050565b5f82821b905092915050565b5f60088302620002b37fffffffffffffffffffffffffffffffffffffffffffffffffffffffffffffffff8262000276565b620002bf868362000276565b95508019841693508086168417925050509392505050565b5f819050919050565b5f819050919050565b5f6200030962000303620002fd84620002d7565b620002e0565b620002d7565b9050919050565b5f819050919050565b6200032483620002e9565b6200033c620003338262000310565b84845462000282565b825550505050565b5f90565b6200035262000344565b6200035f81848462000319565b505050565b5b8181101562000386576200037a5f8262000348565b60018101905062000365565b5050565b601f821115620003d5576200039f8162000255565b620003aa8462000267565b81016020851015620003ba578190505b620003d2620003c98562000267565b83018262000364565b50505b505050565b5f82821c905092915050565b5f620003f75f1984600802620003da565b1980831691505092915050565b5f620004118383620003e6565b9150826002028217905092915050565b6200042c82620001bd565b67ffffffffffffffff811115620004485762000447620001c7565b5b62000454825462000221565b620004618282856200038a565b5f60209050601f83116001811462000497575f841562000482578287015190505b6200048e858262000404565b865550620004fd565b601f198416620004a78662000255565b5f5b82811015620004d057848901518255600182019150602085019450602081019050620004a9565b86831015620004f05784890151620004ec601f891682620003e6565b8355505b6001600288020188555050505b505050505050565b61583780620005135f395ff3fe608060405260043610610203575f3560e01c806364edc20f11610117578063c87b56dd1161009f578063e57a497a1161006e578063e57a497a146107a3578063e985e9c5146107e3578063f5f680e01461081f578063fb645bd814610849578063fd4f0b4f1461087157610203565b8063c87b56dd146106d7578063cea62a1b14610713578063d5606fbf1461073d578063e0391b091461077957610203565b8063a22cb465116100e6578063a22cb465146105e7578063b13d3ecc1461060f578063b46c9ac714610637578063b88d4fde14610673578063c23697a81461069b57610203565b806364edc20f1461053b578063653721471461055757806370a082311461058157806395d89b41146105bd57610203565b806327bbc10d1161019a57806345576f941161016957806345576f941461043f5780634558593e1461046f57806356d01613146104ab578063629cb2e4146104d55780636352211e146104ff57610203565b806327bbc10d1461038957806334020f4b146103c557806338d5d325146103ef57806342842e0e1461041757610203565b8063095ea7b3116101d6578063095ea7b3146102d357806310e22d41146102fb5780631cdaea221461032557806323b872dd1461036157610203565b806301ffc9a71461020757806302000bd41461024357806306fdde031461026d578063081812fc14610297575b5f80fd5b348015610212575f80fd5b5061022d60048036038101906102289190613b03565b61088d565b60405161023a9190613b48565b60405180910390f35b34801561024e575f80fd5b5061025761096e565b6040516102649190613b79565b60405180910390f35b348015610278575f80fd5b5061028161097a565b60405161028e9190613c1c565b60405180910390f35b3480156102a2575f80fd5b506102bd60048036038101906102b89190613c66565b610a09565b6040516102ca9190613cd0565b60405180910390f35b3480156102de575f80fd5b506102f960048036038101906102f49190613d13565b610a4b565b005b348015610306575f80fd5b5061030f610b61565b60405161031c9190613b79565b60405180910390f35b348015610330575f80fd5b5061034b60048036038101906103469190613c66565b610b67565b6040516103589190613b79565b60405180910390f35b34801561036c575f80fd5b5061038760048036038101906103829190613d51565b610b87565b005b348015610394575f80fd5b506103af60048036038101906103aa9190613c66565b610be7565b6040516103bc9190613b79565b60405180910390f35b3480156103d0575f80fd5b506103d9610c07565b6040516103e69190613b79565b60405180910390f35b3480156103fa575f80fd5b5061041560048036038101906104109190613c66565b610c13565b005b348015610422575f80fd5b5061043d60048036038101906104389190613d51565b610cfd565b005b61045960048036038101906104549190613ecd565b610d1c565b6040516104669190613b79565b60405180910390f35b34801561047a575f80fd5b5061049560048036038101906104909190613f14565b610ed1565b6040516104a29190613b48565b60405180910390f35b3480156104b6575f80fd5b506104bf610f5f565b6040516104cc9190613b79565b60405180910390f35b3480156104e0575f80fd5b506104e9610f65565b6040516104f69190614122565b60405180910390f35b34801561050a575f80fd5b5061052560048036038101906105209190613c66565b61127c565b6040516105329190613cd0565b60405180910390f35b61055560048036038101906105509190613c66565b611328565b005b348015610562575f80fd5b5061056b61138a565b6040516105789190613c1c565b60405180910390f35b34801561058c575f80fd5b506105a760048036038101906105a29190614142565b611416565b6040516105b49190613b79565b60405180910390f35b3480156105c8575f80fd5b506105d16114ca565b6040516105de9190613c1c565b60405180910390f35b3480156105f2575f80fd5b5061060d60048036038101906106089190614197565b61155a565b005b34801561061a575f80fd5b5061063560048036038101906106309190613c66565b611570565b005b348015610642575f80fd5b5061065d600480360381019061065891906141d5565b61165a565b60405161066a9190613b79565b60405180910390f35b34801561067e575f80fd5b50610699600480360381019061069491906142b1565b6116fe565b005b3480156106a6575f80fd5b506106c160048036038101906106bc9190614142565b611760565b6040516106ce9190613b48565b60405180910390f35b3480156106e2575f80fd5b506106fd60048036038101906106f89190613c66565b611801565b60405161070a9190613c1c565b60405180910390f35b34801561071e575f80fd5b5061072761190b565b6040516107349190613b79565b60405180910390f35b348015610748575f80fd5b50610763600480360381019061075e9190613c66565b611917565b6040516107709190613b79565b60405180910390f35b348015610784575f80fd5b5061078d611937565b60405161079a9190614122565b60405180910390f35b3480156107ae575f80fd5b506107c960048036038101906107c49190613c66565b611b39565b6040516107da959493929190614340565b60405180910390f35b3480156107ee575f80fd5b5061080960048036038101906108049190614398565b611c1c565b6040516108169190613b48565b60405180910390f35b34801561082a575f80fd5b50610833611caa565b6040516108409190613b79565b60405180910390f35b348015610854575f80fd5b5061086f600480360381019061086a9190613c66565b611cb0565b005b61088b600480360381019061088691906141d5565b611d9a565b005b5f7f80ac58cd000000000000000000000000000000000000000000000000000000007bffffffffffffffffffffffffffffffffffffffffffffffffffffffff1916827bffffffffffffffffffffffffffffffffffffffffffffffffffffffff1916148061095757507f5b5e139f000000000000000000000000000000000000000000000000000000007bffffffffffffffffffffffffffffffffffffffffffffffffffffffff1916827bffffffffffffffffffffffffffffffffffffffffffffffffffffffff1916145b80610967575061096682612246565b5b9050919050565b5f600d80549050905090565b60605f805461098890614403565b80601f01602080910402602001604051908101604052809291908181526020018280546109b490614403565b80156109ff5780601f106109d6576101008083540402835291602001916109ff565b820191905f5260205f20905b8154815290600101906020018083116109e257829003601f168201915b5050505050905090565b5f610a13826122af565b60045f8381526020019081526020015f205f9054906101000a900473ffffffffffffffffffffffffffffffffffffffff169050919050565b5f610a558261127c565b90508073ffffffffffffffffffffffffffffffffffffffff168373ffffffffffffffffffffffffffffffffffffffff1603610ac5576040517f08c379a0000000000000000000000000000000000000000000000000000000008152600401610abc906144a3565b60405180910390fd5b8073ffffffffffffffffffffffffffffffffffffffff16610ae46122fa565b73ffffffffffffffffffffffffffffffffffffffff161480610b135750610b1281610b0d6122fa565b611c1c565b5b610b52576040517f08c379a0000000000000000000000000000000000000000000000000000000008152600401610b4990614531565b60405180910390fd5b610b5c8383612301565b505050565b60125481565b600f8181548110610b76575f80fd5b905f5260205f20015f915090505481565b610b98610b926122fa565b826123b7565b610bd7576040517f08c379a0000000000000000000000000000000000000000000000000000000008152600401610bce906145bf565b60405180910390fd5b610be283838361244b565b505050565b600d8181548110610bf6575f80fd5b905f5260205f20015f915090505481565b5f600e80549050905090565b600f805490508110610c5a576040517f08c379a0000000000000000000000000000000000000000000000000000000008152600401610c5190614627565b60405180910390fd5b5f8190505b6001600f80549050610c719190614672565b811015610cd457600f600182610c8791906146a5565b81548110610c9857610c976146d8565b5b905f5260205f200154600f8281548110610cb557610cb46146d8565b5b905f5260205f2001819055508080610ccc90614705565b915050610c5f565b50600f805480610ce757610ce661474c565b5b600190038181905f5260205f20015f9055905550565b610d1783838360405180602001604052805f8152506116fe565b505050565b5f610d2760086126a6565b5f610d3260086126ba565b9050610d3e33826126c6565b610d4881846126e3565b5f6040518060400160405280600781526020017f50656e64696e670000000000000000000000000000000000000000000000000081525090506040518060a001604052808381526020013373ffffffffffffffffffffffffffffffffffffffff1681526020014281526020018281526020016001151581525060115f8481526020019081526020015f205f820151815f01556020820151816001015f6101000a81548173ffffffffffffffffffffffffffffffffffffffff021916908373ffffffffffffffffffffffffffffffffffffffff160217905550604082015181600201556060820151816003019081610e3f9190614916565b506080820151816004015f6101000a81548160ff021916908315150217905550905050600e82908060018154018082558091505060019003905f5260205f20015f9091909190915055817f6e22b084a5f448e7b37abdf4bb505723438e4f4f4a4d96f9b60b0b14e93a4c643342846001604051610ebf94939291906149e5565b60405180910390a28192505050919050565b5f600a5f9054906101000a900473ffffffffffffffffffffffffffffffffffffffff1673ffffffffffffffffffffffffffffffffffffffff163373ffffffffffffffffffffffffffffffffffffffff1614610f2a575f80fd5b8160115f8581526020019081526020015f206003019081610f4b9190614916565b50610f558361274e565b6001905092915050565b600b5481565b60605f610f7260086126ba565b90505f805f805f90505b84811015611019573373ffffffffffffffffffffffffffffffffffffffff1660115f600184610fab91906146a5565b81526020019081526020015f206001015f9054906101000a900473ffffffffffffffffffffffffffffffffffffffff1673ffffffffffffffffffffffffffffffffffffffff16036110065760018461100391906146a5565b93505b808061101190614705565b915050610f7c565b505f8367ffffffffffffffff81111561103557611034613da9565b5b60405190808252806020026020018201604052801561106e57816020015b61105b613a5a565b8152602001906001900390816110535790505b5090505f5b85811015611270573373ffffffffffffffffffffffffffffffffffffffff1660115f6001846110a291906146a5565b81526020019081526020015f206001015f9054906101000a900473ffffffffffffffffffffffffffffffffffffffff1673ffffffffffffffffffffffffffffffffffffffff160361125d576001816110fa91906146a5565b92505f60115f8581526020019081526020015f209050806040518060a00160405290815f8201548152602001600182015f9054906101000a900473ffffffffffffffffffffffffffffffffffffffff1673ffffffffffffffffffffffffffffffffffffffff1673ffffffffffffffffffffffffffffffffffffffff1681526020016002820154815260200160038201805461119490614403565b80601f01602080910402602001604051908101604052809291908181526020018280546111c090614403565b801561120b5780601f106111e25761010080835404028352916020019161120b565b820191905f5260205f20905b8154815290600101906020018083116111ee57829003601f168201915b50505050508152602001600482015f9054906101000a900460ff161515151581525050838681518110611241576112406146d8565b5b602002602001018190525060018561125991906146a5565b9450505b808061126890614705565b915050611073565b50809550505050505090565b5f8060025f8481526020019081526020015f205f9054906101000a900473ffffffffffffffffffffffffffffffffffffffff1690505f73ffffffffffffffffffffffffffffffffffffffff168173ffffffffffffffffffffffffffffffffffffffff160361131f576040517f08c379a000000000000000000000000000000000000000000000000000000000815260040161131690614a79565b60405180910390fd5b80915050919050565b600a5f9054906101000a900473ffffffffffffffffffffffffffffffffffffffff1673ffffffffffffffffffffffffffffffffffffffff163373ffffffffffffffffffffffffffffffffffffffff1614611380575f80fd5b80600b8190555050565b6010805461139790614403565b80601f01602080910402602001604051908101604052809291908181526020018280546113c390614403565b801561140e5780601f106113e55761010080835404028352916020019161140e565b820191905f5260205f20905b8154815290600101906020018083116113f157829003601f168201915b505050505081565b5f8073ffffffffffffffffffffffffffffffffffffffff168273ffffffffffffffffffffffffffffffffffffffff1603611485576040517f08c379a000000000000000000000000000000000000000000000000000000000815260040161147c90614b07565b60405180910390fd5b60035f8373ffffffffffffffffffffffffffffffffffffffff1673ffffffffffffffffffffffffffffffffffffffff1681526020019081526020015f20549050919050565b6060600180546114d990614403565b80601f016020809104026020016040519081016040528092919081815260200182805461150590614403565b80156115505780601f1061152757610100808354040283529160200191611550565b820191905f5260205f20905b81548152906001019060200180831161153357829003601f168201915b5050505050905090565b61156c6115656122fa565b8383613284565b5050565b600e8054905081106115b7576040517f08c379a00000000000000000000000000000000000000000000000000000000081526004016115ae90614627565b60405180910390fd5b5f8190505b6001600e805490506115ce9190614672565b81101561163157600e6001826115e491906146a5565b815481106115f5576115f46146d8565b5b905f5260205f200154600e8281548110611612576116116146d8565b5b905f5260205f200181905550808061162990614705565b9150506115bc565b50600e8054806116445761164361474c565b5b600190038181905f5260205f20015f9055905550565b5f60075f9054906101000a900473ffffffffffffffffffffffffffffffffffffffff1673ffffffffffffffffffffffffffffffffffffffff16639f04996d84846040518363ffffffff1660e01b81526004016116b7929190614b25565b602060405180830381865afa1580156116d2573d5f803e3d5ffd5b505050506040513d601f19601f820116820180604052508101906116f69190614b60565b905092915050565b61170f6117096122fa565b836123b7565b61174e576040517f08c379a0000000000000000000000000000000000000000000000000000000008152600401611745906145bf565b60405180910390fd5b61175a848484846133eb565b50505050565b5f60075f9054906101000a900473ffffffffffffffffffffffffffffffffffffffff1673ffffffffffffffffffffffffffffffffffffffff166319fde1f6836040518263ffffffff1660e01b81526004016117bb9190613cd0565b602060405180830381865afa1580156117d6573d5f803e3d5ffd5b505050506040513d601f19601f820116820180604052508101906117fa9190614b9f565b9050919050565b606061180c826122af565b5f60065f8481526020019081526020015f20805461182990614403565b80601f016020809104026020016040519081016040528092919081815260200182805461185590614403565b80156118a05780601f10611877576101008083540402835291602001916118a0565b820191905f5260205f20905b81548152906001019060200180831161188357829003601f168201915b505050505090505f6118b0613447565b90505f8151036118c4578192505050611906565b5f825111156118f85780826040516020016118e0929190614c04565b60405160208183030381529060405292505050611906565b6119018461345d565b925050505b919050565b5f600f80549050905090565b600e8181548110611926575f80fd5b905f5260205f20015f915090505481565b60605f61194460086126ba565b90505f8167ffffffffffffffff81111561196157611960613da9565b5b60405190808252806020026020018201604052801561199a57816020015b611987613a5a565b81526020019060019003908161197f5790505b5090505f80805f90505b84811015611b2e576001816119b991906146a5565b91505f60115f8481526020019081526020015f209050806040518060a00160405290815f8201548152602001600182015f9054906101000a900473ffffffffffffffffffffffffffffffffffffffff1673ffffffffffffffffffffffffffffffffffffffff1673ffffffffffffffffffffffffffffffffffffffff16815260200160028201548152602001600382018054611a5390614403565b80601f0160208091040260200160405190810160405280929190818152602001828054611a7f90614403565b8015611aca5780601f10611aa157610100808354040283529160200191611aca565b820191905f5260205f20905b815481529060010190602001808311611aad57829003601f168201915b50505050508152602001600482015f9054906101000a900460ff161515151581525050858581518110611b0057611aff6146d8565b5b6020026020010181905250600184611b1891906146a5565b9350508080611b2690614705565b9150506119a4565b508294505050505090565b6011602052805f5260405f205f91509050805f015490806001015f9054906101000a900473ffffffffffffffffffffffffffffffffffffffff1690806002015490806003018054611b8990614403565b80601f0160208091040260200160405190810160405280929190818152602001828054611bb590614403565b8015611c005780601f10611bd757610100808354040283529160200191611c00565b820191905f5260205f20905b815481529060010190602001808311611be357829003601f168201915b505050505090806004015f9054906101000a900460ff16905085565b5f60055f8473ffffffffffffffffffffffffffffffffffffffff1673ffffffffffffffffffffffffffffffffffffffff1681526020019081526020015f205f8373ffffffffffffffffffffffffffffffffffffffff1673ffffffffffffffffffffffffffffffffffffffff1681526020019081526020015f205f9054906101000a900460ff16905092915050565b60135481565b600d805490508110611cf7576040517f08c379a0000000000000000000000000000000000000000000000000000000008152600401611cee90614627565b60405180910390fd5b5f8190505b6001600d80549050611d0e9190614672565b811015611d7157600d600182611d2491906146a5565b81548110611d3557611d346146d8565b5b905f5260205f200154600d8281548110611d5257611d516146d8565b5b905f5260205f2001819055508080611d6990614705565b915050611cfc565b50600d805480611d8457611d8361474c565b5b600190038181905f5260205f20015f9055905550565b5f60075f9054906101000a900473ffffffffffffffffffffffffffffffffffffffff1673ffffffffffffffffffffffffffffffffffffffff16639f04996d84846040518363ffffffff1660e01b8152600401611df7929190614b25565b602060405180830381865afa158015611e12573d5f803e3d5ffd5b505050506040513d601f19601f82011682018060405250810190611e369190614b60565b9050611e418361127c565b73ffffffffffffffffffffffffffffffffffffffff163373ffffffffffffffffffffffffffffffffffffffff1614611eae576040517f08c379a0000000000000000000000000000000000000000000000000000000008152600401611ea590614c97565b60405180910390fd5b803414611ef0576040517f08c379a0000000000000000000000000000000000000000000000000000000008152600401611ee790614d25565b60405180910390fd5b611ef982611760565b611f38576040517f08c379a0000000000000000000000000000000000000000000000000000000008152600401611f2f90614db3565b60405180910390fd5b3373ffffffffffffffffffffffffffffffffffffffff16611f588461127c565b73ffffffffffffffffffffffffffffffffffffffff1614611fae576040517f08c379a0000000000000000000000000000000000000000000000000000000008152600401611fa590614e41565b60405180910390fd5b5f600a5f9054906101000a900473ffffffffffffffffffffffffffffffffffffffff1673ffffffffffffffffffffffffffffffffffffffff163111612028576040517f08c379a000000000000000000000000000000000000000000000000000000000815260040161201f90614ea9565b60405180910390fd5b5f60115f8581526020019081526020015f206001015f9054906101000a900473ffffffffffffffffffffffffffffffffffffffff169050600160115f8681526020019081526020015f206004015f6101000a81548160ff0219169083151502179055508260115f8681526020019081526020015f206001015f6101000a81548173ffffffffffffffffffffffffffffffffffffffff021916908373ffffffffffffffffffffffffffffffffffffffff1602179055506120e760096126a6565b6120f233848661244b565b5f600b54836121019190614672565b9050600b549250600a5f9054906101000a900473ffffffffffffffffffffffffffffffffffffffff1673ffffffffffffffffffffffffffffffffffffffff166108fc8490811502906040515f60405180830381858888f1935050505015801561216c573d5f803e3d5ffd5b508173ffffffffffffffffffffffffffffffffffffffff166108fc8290811502906040515f60405180830381858888f193505050501580156121b0573d5f803e3d5ffd5b5060075f9054906101000a900473ffffffffffffffffffffffffffffffffffffffff1673ffffffffffffffffffffffffffffffffffffffff166381d38f8c868660015f6040518563ffffffff1660e01b81526004016122129493929190614f00565b5f604051808303815f87803b158015612229575f80fd5b505af115801561223b573d5f803e3d5ffd5b505050505050505050565b5f7f01ffc9a7000000000000000000000000000000000000000000000000000000007bffffffffffffffffffffffffffffffffffffffffffffffffffffffff1916827bffffffffffffffffffffffffffffffffffffffffffffffffffffffff1916149050919050565b6122b8816134c2565b6122f7576040517f08c379a00000000000000000000000000000000000000000000000000000000081526004016122ee90614a79565b60405180910390fd5b50565b5f33905090565b8160045f8381526020019081526020015f205f6101000a81548173ffffffffffffffffffffffffffffffffffffffff021916908373ffffffffffffffffffffffffffffffffffffffff160217905550808273ffffffffffffffffffffffffffffffffffffffff166123718361127c565b73ffffffffffffffffffffffffffffffffffffffff167f8c5be1e5ebec7d5bd14f71427d1e84f3dd0314c0f7b2291e5b200ac8c7c3b92560405160405180910390a45050565b5f806123c28361127c565b90508073ffffffffffffffffffffffffffffffffffffffff168473ffffffffffffffffffffffffffffffffffffffff16148061240457506124038185611c1c565b5b8061244257508373ffffffffffffffffffffffffffffffffffffffff1661242a84610a09565b73ffffffffffffffffffffffffffffffffffffffff16145b91505092915050565b8273ffffffffffffffffffffffffffffffffffffffff1661246b8261127c565b73ffffffffffffffffffffffffffffffffffffffff16146124c1576040517f08c379a00000000000000000000000000000000000000000000000000000000081526004016124b890614fb3565b60405180910390fd5b5f73ffffffffffffffffffffffffffffffffffffffff168273ffffffffffffffffffffffffffffffffffffffff160361252f576040517f08c379a000000000000000000000000000000000000000000000000000000000815260040161252690615041565b60405180910390fd5b61253a83838361352a565b6125445f82612301565b600160035f8573ffffffffffffffffffffffffffffffffffffffff1673ffffffffffffffffffffffffffffffffffffffff1681526020019081526020015f205f8282546125919190614672565b92505081905550600160035f8473ffffffffffffffffffffffffffffffffffffffff1673ffffffffffffffffffffffffffffffffffffffff1681526020019081526020015f205f8282546125e591906146a5565b925050819055508160025f8381526020019081526020015f205f6101000a81548173ffffffffffffffffffffffffffffffffffffffff021916908373ffffffffffffffffffffffffffffffffffffffff160217905550808273ffffffffffffffffffffffffffffffffffffffff168473ffffffffffffffffffffffffffffffffffffffff167fddf252ad1be2c89b69c2b068fc378daa952ba7f163c4a11628f55a4df523b3ef60405160405180910390a46126a183838361352f565b505050565b6001815f015f828254019250508190555050565b5f815f01549050919050565b6126df828260405180602001604052805f815250613534565b5050565b6126ec826134c2565b61272b576040517f08c379a0000000000000000000000000000000000000000000000000000000008152600401612722906150cf565b60405180910390fd5b8060065f8481526020019081526020015f2090816127499190614916565b505050565b5f60115f8381526020019081526020015f20600301805461276e90614403565b80601f016020809104026020016040519081016040528092919081815260200182805461279a90614403565b80156127e55780601f106127bc576101008083540402835291602001916127e5565b820191905f5260205f20905b8154815290600101906020018083116127c857829003601f168201915b505050505090506040516020016127fb90615137565b6040516020818303038152906040528051906020012081604051602001612822919061514b565b6040516020818303038152906040528051906020012003612b70575f600c5f9054906101000a900473ffffffffffffffffffffffffffffffffffffffff1673ffffffffffffffffffffffffffffffffffffffff166319d5880c84600d6040518363ffffffff1660e01b815260040161289b929190615252565b602060405180830381865afa1580156128b6573d5f803e3d5ffd5b505050506040513d601f19601f820116820180604052508101906128da9190614b9f565b905060016040516020016128ee91906152c5565b604051602081830303815290604052805190602001208160405160200161291591906152c5565b604051602081830303815290604052805190602001200361296b576040517f08c379a000000000000000000000000000000000000000000000000000000000815260040161296290615329565b60405180910390fd5b600d83908060018154018082558091505060019003905f5260205f20015f90919091909150555f600c5f9054906101000a900473ffffffffffffffffffffffffffffffffffffffff1673ffffffffffffffffffffffffffffffffffffffff166321772a4485600e6040518363ffffffff1660e01b81526004016129ef929190615252565b602060405180830381865afa158015612a0a573d5f803e3d5ffd5b505050506040513d601f19601f82011682018060405250810190612a2e9190614b60565b90505f600c5f9054906101000a900473ffffffffffffffffffffffffffffffffffffffff1673ffffffffffffffffffffffffffffffffffffffff1663d25a84eb86600f6040518363ffffffff1660e01b8152600401612a8e929190615252565b602060405180830381865afa158015612aa9573d5f803e3d5ffd5b505050506040513d601f19601f82011682018060405250810190612acd9190614b60565b9050848214158015612adf5750848114155b15612af757612aed82611570565b612af681610c13565b5b848214612b0c57612b0782611570565b612b68565b848114612b2157612b1c81610c13565b612b67565b6040518060400160405280600981526020017f6e6f7420666f756e64000000000000000000000000000000000000000000000081525060109081612b659190614916565b505b5b505050613280565b604051602001612b7f90615391565b6040516020818303038152906040528051906020012081604051602001612ba6919061514b565b6040516020818303038152906040528051906020012003612ef9575f600c5f9054906101000a900473ffffffffffffffffffffffffffffffffffffffff1673ffffffffffffffffffffffffffffffffffffffff166332a5d17084600e6040518363ffffffff1660e01b8152600401612c1f929190615252565b602060405180830381865afa158015612c3a573d5f803e3d5ffd5b505050506040513d601f19601f82011682018060405250810190612c5e9190614b9f565b90506001604051602001612c7291906152c5565b6040516020818303038152906040528051906020012081604051602001612c9991906152c5565b6040516020818303038152906040528051906020012003612cef576040517f08c379a0000000000000000000000000000000000000000000000000000000008152600401612ce6906153ef565b60405180910390fd5b600e83908060018154018082558091505060019003905f5260205f20015f90919091909150555f600c5f9054906101000a900473ffffffffffffffffffffffffffffffffffffffff1673ffffffffffffffffffffffffffffffffffffffff1663d25a84eb85600d6040518363ffffffff1660e01b8152600401612d73929190615252565b602060405180830381865afa158015612d8e573d5f803e3d5ffd5b505050506040513d601f19601f82011682018060405250810190612db29190614b60565b90505f600c5f9054906101000a900473ffffffffffffffffffffffffffffffffffffffff1673ffffffffffffffffffffffffffffffffffffffff1663a28a348086600f6040518363ffffffff1660e01b8152600401612e12929190615252565b602060405180830381865afa158015612e2d573d5f803e3d5ffd5b505050506040513d601f19601f82011682018060405250810190612e519190614b60565b9050848214158015612e635750848114155b15612e7f57612e7182611cb0565b612e7a81610c13565b612ef1565b848214612e9457612e8f82611cb0565b612ef0565b848114612ea957612ea481610c13565b612eef565b6040518060400160405280600981526020017f6e6f7420666f756e64000000000000000000000000000000000000000000000081525060109081612eed9190614916565b505b5b5b50505061327f565b604051602001612f0890615457565b6040516020818303038152906040528051906020012081604051602001612f2f919061514b565b604051602081830303815290604052805190602001200361327e575f600c5f9054906101000a900473ffffffffffffffffffffffffffffffffffffffff1673ffffffffffffffffffffffffffffffffffffffff16637ef1cd4b84600f6040518363ffffffff1660e01b8152600401612fa8929190615252565b602060405180830381865afa158015612fc3573d5f803e3d5ffd5b505050506040513d601f19601f82011682018060405250810190612fe79190614b9f565b90506001604051602001612ffb91906152c5565b604051602081830303815290604052805190602001208160405160200161302291906152c5565b6040516020818303038152906040528051906020012003613078576040517f08c379a000000000000000000000000000000000000000000000000000000000815260040161306f906154b5565b60405180910390fd5b600f83908060018154018082558091505060019003905f5260205f20015f90919091909150555f600c5f9054906101000a900473ffffffffffffffffffffffffffffffffffffffff1673ffffffffffffffffffffffffffffffffffffffff1663d25a84eb85600d6040518363ffffffff1660e01b81526004016130fc929190615252565b602060405180830381865afa158015613117573d5f803e3d5ffd5b505050506040513d601f19601f8201168201806040525081019061313b9190614b60565b90505f600c5f9054906101000a900473ffffffffffffffffffffffffffffffffffffffff1673ffffffffffffffffffffffffffffffffffffffff166321772a4486600e6040518363ffffffff1660e01b815260040161319b929190615252565b602060405180830381865afa1580156131b6573d5f803e3d5ffd5b505050506040513d601f19601f820116820180604052508101906131da9190614b60565b90508482141580156131ec5750848114155b15613208576131fa82611cb0565b61320381611570565b61327a565b84821461321d5761321882611cb0565b613279565b8481146132325761322d81611570565b613278565b6040518060400160405280600981526020017f6e6f7420666f756e640000000000000000000000000000000000000000000000815250601090816132769190614916565b505b5b5b5050505b5b5b5050565b8173ffffffffffffffffffffffffffffffffffffffff168373ffffffffffffffffffffffffffffffffffffffff16036132f2576040517f08c379a00000000000000000000000000000000000000000000000000000000081526004016132e99061551d565b60405180910390fd5b8060055f8573ffffffffffffffffffffffffffffffffffffffff1673ffffffffffffffffffffffffffffffffffffffff1681526020019081526020015f205f8473ffffffffffffffffffffffffffffffffffffffff1673ffffffffffffffffffffffffffffffffffffffff1681526020019081526020015f205f6101000a81548160ff0219169083151502179055508173ffffffffffffffffffffffffffffffffffffffff168373ffffffffffffffffffffffffffffffffffffffff167f17307eab39ab6107e8899845ad3d59bd9653f200f220920489ca2b5937696c31836040516133de9190613b48565b60405180910390a3505050565b6133f684848461244b565b6134028484848461358e565b613441576040517f08c379a0000000000000000000000000000000000000000000000000000000008152600401613438906155ab565b60405180910390fd5b50505050565b606060405180602001604052805f815250905090565b6060613468826122af565b5f613471613447565b90505f81511161348f5760405180602001604052805f8152506134ba565b8061349984613710565b6040516020016134aa929190614c04565b6040516020818303038152906040525b915050919050565b5f8073ffffffffffffffffffffffffffffffffffffffff1660025f8481526020019081526020015f205f9054906101000a900473ffffffffffffffffffffffffffffffffffffffff1673ffffffffffffffffffffffffffffffffffffffff1614159050919050565b505050565b505050565b61353e8383613869565b61354a5f84848461358e565b613589576040517f08c379a0000000000000000000000000000000000000000000000000000000008152600401613580906155ab565b60405180910390fd5b505050565b5f6135ae8473ffffffffffffffffffffffffffffffffffffffff16613a38565b15613703578373ffffffffffffffffffffffffffffffffffffffff1663150b7a026135d76122fa565b8786866040518563ffffffff1660e01b81526004016135f9949392919061561b565b6020604051808303815f875af192505050801561363457506040513d601f19601f820116820180604052508101906136319190615679565b60015b6136b3573d805f8114613662576040519150601f19603f3d011682016040523d82523d5f602084013e613667565b606091505b505f8151036136ab576040517f08c379a00000000000000000000000000000000000000000000000000000000081526004016136a2906155ab565b60405180910390fd5b805181602001fd5b63150b7a0260e01b7bffffffffffffffffffffffffffffffffffffffffffffffffffffffff1916817bffffffffffffffffffffffffffffffffffffffffffffffffffffffff191614915050613708565b600190505b949350505050565b60605f8203613756576040518060400160405280600181526020017f30000000000000000000000000000000000000000000000000000000000000008152509050613864565b5f8290505f5b5f821461378557808061376e90614705565b915050600a8261377e91906156d1565b915061375c565b5f8167ffffffffffffffff8111156137a05761379f613da9565b5b6040519080825280601f01601f1916602001820160405280156137d25781602001600182028036833780820191505090505b5090505b5f851461385d576001826137ea9190614672565b9150600a856137f99190615701565b603061380591906146a5565b60f81b81838151811061381b5761381a6146d8565b5b60200101907effffffffffffffffffffffffffffffffffffffffffffffffffffffffffffff191690815f1a905350600a8561385691906156d1565b94506137d6565b8093505050505b919050565b5f73ffffffffffffffffffffffffffffffffffffffff168273ffffffffffffffffffffffffffffffffffffffff16036138d7576040517f08c379a00000000000000000000000000000000000000000000000000000000081526004016138ce9061577b565b60405180910390fd5b6138e0816134c2565b15613920576040517f08c379a0000000000000000000000000000000000000000000000000000000008152600401613917906157e3565b60405180910390fd5b61392b5f838361352a565b600160035f8473ffffffffffffffffffffffffffffffffffffffff1673ffffffffffffffffffffffffffffffffffffffff1681526020019081526020015f205f82825461397891906146a5565b925050819055508160025f8381526020019081526020015f205f6101000a81548173ffffffffffffffffffffffffffffffffffffffff021916908373ffffffffffffffffffffffffffffffffffffffff160217905550808273ffffffffffffffffffffffffffffffffffffffff165f73ffffffffffffffffffffffffffffffffffffffff167fddf252ad1be2c89b69c2b068fc378daa952ba7f163c4a11628f55a4df523b3ef60405160405180910390a4613a345f838361352f565b5050565b5f808273ffffffffffffffffffffffffffffffffffffffff163b119050919050565b6040518060a001604052805f81526020015f73ffffffffffffffffffffffffffffffffffffffff1681526020015f8152602001606081526020015f151581525090565b5f604051905090565b5f80fd5b5f80fd5b5f7fffffffff0000000000000000000000000000000000000000000000000000000082169050919050565b613ae281613aae565b8114613aec575f80fd5b50565b5f81359050613afd81613ad9565b92915050565b5f60208284031215613b1857613b17613aa6565b5b5f613b2584828501613aef565b91505092915050565b5f8115159050919050565b613b4281613b2e565b82525050565b5f602082019050613b5b5f830184613b39565b92915050565b5f819050919050565b613b7381613b61565b82525050565b5f602082019050613b8c5f830184613b6a565b92915050565b5f81519050919050565b5f82825260208201905092915050565b5f5b83811015613bc9578082015181840152602081019050613bae565b5f8484015250505050565b5f601f19601f8301169050919050565b5f613bee82613b92565b613bf88185613b9c565b9350613c08818560208601613bac565b613c1181613bd4565b840191505092915050565b5f6020820190508181035f830152613c348184613be4565b905092915050565b613c4581613b61565b8114613c4f575f80fd5b50565b5f81359050613c6081613c3c565b92915050565b5f60208284031215613c7b57613c7a613aa6565b5b5f613c8884828501613c52565b91505092915050565b5f73ffffffffffffffffffffffffffffffffffffffff82169050919050565b5f613cba82613c91565b9050919050565b613cca81613cb0565b82525050565b5f602082019050613ce35f830184613cc1565b92915050565b613cf281613cb0565b8114613cfc575f80fd5b50565b5f81359050613d0d81613ce9565b92915050565b5f8060408385031215613d2957613d28613aa6565b5b5f613d3685828601613cff565b9250506020613d4785828601613c52565b9150509250929050565b5f805f60608486031215613d6857613d67613aa6565b5b5f613d7586828701613cff565b9350506020613d8686828701613cff565b9250506040613d9786828701613c52565b9150509250925092565b5f80fd5b5f80fd5b7f4e487b71000000000000000000000000000000000000000000000000000000005f52604160045260245ffd5b613ddf82613bd4565b810181811067ffffffffffffffff82111715613dfe57613dfd613da9565b5b80604052505050565b5f613e10613a9d565b9050613e1c8282613dd6565b919050565b5f67ffffffffffffffff821115613e3b57613e3a613da9565b5b613e4482613bd4565b9050602081019050919050565b828183375f83830152505050565b5f613e71613e6c84613e21565b613e07565b905082815260208101848484011115613e8d57613e8c613da5565b5b613e98848285613e51565b509392505050565b5f82601f830112613eb457613eb3613da1565b5b8135613ec4848260208601613e5f565b91505092915050565b5f60208284031215613ee257613ee1613aa6565b5b5f82013567ffffffffffffffff811115613eff57613efe613aaa565b5b613f0b84828501613ea0565b91505092915050565b5f8060408385031215613f2a57613f29613aa6565b5b5f613f3785828601613c52565b925050602083013567ffffffffffffffff811115613f5857613f57613aaa565b5b613f6485828601613ea0565b9150509250929050565b5f81519050919050565b5f82825260208201905092915050565b5f819050602082019050919050565b613fa081613b61565b82525050565b5f613fb082613c91565b9050919050565b613fc081613fa6565b82525050565b5f82825260208201905092915050565b5f613fe082613b92565b613fea8185613fc6565b9350613ffa818560208601613bac565b61400381613bd4565b840191505092915050565b61401781613b2e565b82525050565b5f60a083015f8301516140325f860182613f97565b5060208301516140456020860182613fb7565b5060408301516140586040860182613f97565b50606083015184820360608601526140708282613fd6565b9150506080830151614085608086018261400e565b508091505092915050565b5f61409b838361401d565b905092915050565b5f602082019050919050565b5f6140b982613f6e565b6140c38185613f78565b9350836020820285016140d585613f88565b805f5b8581101561411057848403895281516140f18582614090565b94506140fc836140a3565b925060208a019950506001810190506140d8565b50829750879550505050505092915050565b5f6020820190508181035f83015261413a81846140af565b905092915050565b5f6020828403121561415757614156613aa6565b5b5f61416484828501613cff565b91505092915050565b61417681613b2e565b8114614180575f80fd5b50565b5f813590506141918161416d565b92915050565b5f80604083850312156141ad576141ac613aa6565b5b5f6141ba85828601613cff565b92505060206141cb85828601614183565b9150509250929050565b5f80604083850312156141eb576141ea613aa6565b5b5f6141f885828601613c52565b925050602061420985828601613cff565b9150509250929050565b5f67ffffffffffffffff82111561422d5761422c613da9565b5b61423682613bd4565b9050602081019050919050565b5f61425561425084614213565b613e07565b90508281526020810184848401111561427157614270613da5565b5b61427c848285613e51565b509392505050565b5f82601f83011261429857614297613da1565b5b81356142a8848260208601614243565b91505092915050565b5f805f80608085870312156142c9576142c8613aa6565b5b5f6142d687828801613cff565b94505060206142e787828801613cff565b93505060406142f887828801613c52565b925050606085013567ffffffffffffffff81111561431957614318613aaa565b5b61432587828801614284565b91505092959194509250565b61433a81613fa6565b82525050565b5f60a0820190506143535f830188613b6a565b6143606020830187614331565b61436d6040830186613b6a565b818103606083015261437f8185613be4565b905061438e6080830184613b39565b9695505050505050565b5f80604083850312156143ae576143ad613aa6565b5b5f6143bb85828601613cff565b92505060206143cc85828601613cff565b9150509250929050565b7f4e487b71000000000000000000000000000000000000000000000000000000005f52602260045260245ffd5b5f600282049050600182168061441a57607f821691505b60208210810361442d5761442c6143d6565b5b50919050565b7f4552433732313a20617070726f76616c20746f2063757272656e74206f776e655f8201527f7200000000000000000000000000000000000000000000000000000000000000602082015250565b5f61448d602183613b9c565b915061449882614433565b604082019050919050565b5f6020820190508181035f8301526144ba81614481565b9050919050565b7f4552433732313a20617070726f76652063616c6c6572206973206e6f7420746f5f8201527f6b656e206f776e6572206e6f7220617070726f76656420666f7220616c6c0000602082015250565b5f61451b603e83613b9c565b9150614526826144c1565b604082019050919050565b5f6020820190508181035f8301526145488161450f565b9050919050565b7f4552433732313a2063616c6c6572206973206e6f7420746f6b656e206f776e655f8201527f72206e6f7220617070726f766564000000000000000000000000000000000000602082015250565b5f6145a9602e83613b9c565b91506145b48261454f565b604082019050919050565b5f6020820190508181035f8301526145d68161459d565b9050919050565b7f696e646578206f7574206f6620626f756e6400000000000000000000000000005f82015250565b5f614611601283613b9c565b915061461c826145dd565b602082019050919050565b5f6020820190508181035f83015261463e81614605565b9050919050565b7f4e487b71000000000000000000000000000000000000000000000000000000005f52601160045260245ffd5b5f61467c82613b61565b915061468783613b61565b925082820390508181111561469f5761469e614645565b5b92915050565b5f6146af82613b61565b91506146ba83613b61565b92508282019050808211156146d2576146d1614645565b5b92915050565b7f4e487b71000000000000000000000000000000000000000000000000000000005f52603260045260245ffd5b5f61470f82613b61565b91507fffffffffffffffffffffffffffffffffffffffffffffffffffffffffffffffff820361474157614740614645565b5b600182019050919050565b7f4e487b71000000000000000000000000000000000000000000000000000000005f52603160045260245ffd5b5f819050815f5260205f209050919050565b5f6020601f8301049050919050565b5f82821b905092915050565b5f600883026147d57fffffffffffffffffffffffffffffffffffffffffffffffffffffffffffffffff8261479a565b6147df868361479a565b95508019841693508086168417925050509392505050565b5f819050919050565b5f61481a61481561481084613b61565b6147f7565b613b61565b9050919050565b5f819050919050565b61483383614800565b61484761483f82614821565b8484546147a6565b825550505050565b5f90565b61485b61484f565b61486681848461482a565b505050565b5b818110156148895761487e5f82614853565b60018101905061486c565b5050565b601f8211156148ce5761489f81614779565b6148a88461478b565b810160208510156148b7578190505b6148cb6148c38561478b565b83018261486b565b50505b505050565b5f82821c905092915050565b5f6148ee5f19846008026148d3565b1980831691505092915050565b5f61490683836148df565b9150826002028217905092915050565b61491f82613b92565b67ffffffffffffffff81111561493857614937613da9565b5b6149428254614403565b61494d82828561488d565b5f60209050601f83116001811461497e575f841561496c578287015190505b61497685826148fb565b8655506149dd565b601f19841661498c86614779565b5f5b828110156149b35784890151825560018201915060208501945060208101905061498e565b868310156149d057848901516149cc601f8916826148df565b8355505b6001600288020188555050505b505050505050565b5f6080820190506149f85f830187613cc1565b614a056020830186613b6a565b8181036040830152614a178185613be4565b9050614a266060830184613b39565b95945050505050565b7f4552433732313a20696e76616c696420746f6b656e20494400000000000000005f82015250565b5f614a63601883613b9c565b9150614a6e82614a2f565b602082019050919050565b5f6020820190508181035f830152614a9081614a57565b9050919050565b7f4552433732313a2061646472657373207a65726f206973206e6f7420612076615f8201527f6c6964206f776e65720000000000000000000000000000000000000000000000602082015250565b5f614af1602983613b9c565b9150614afc82614a97565b604082019050919050565b5f6020820190508181035f830152614b1e81614ae5565b9050919050565b5f604082019050614b385f830185613b6a565b614b456020830184613cc1565b9392505050565b5f81519050614b5a81613c3c565b92915050565b5f60208284031215614b7557614b74613aa6565b5b5f614b8284828501614b4c565b91505092915050565b5f81519050614b998161416d565b92915050565b5f60208284031215614bb457614bb3613aa6565b5b5f614bc184828501614b8b565b91505092915050565b5f81905092915050565b5f614bde82613b92565b614be88185614bca565b9350614bf8818560208601613bac565b80840191505092915050565b5f614c0f8285614bd4565b9150614c1b8284614bd4565b91508190509392505050565b7f596f7520617265206e6f7420746865206f776e6572206f6620746865204950205f8201527f6e66740000000000000000000000000000000000000000000000000000000000602082015250565b5f614c81602383613b9c565b9150614c8c82614c27565b604082019050919050565b5f6020820190508181035f830152614cae81614c75565b9050919050565b7f506c65617365207375626d6974207468652061736b696e6720707269636520695f8201527f6e206f7264657220746f20636f6d706c65746520746865207075726368617365602082015250565b5f614d0f604083613b9c565b9150614d1a82614cb5565b604082019050919050565b5f6020820190508181035f830152614d3c81614d03565b9050919050565b7f54686973206164647265737320646964206e6f7420626964206f6e20746869735f8201527f2049500000000000000000000000000000000000000000000000000000000000602082015250565b5f614d9d602383613b9c565b9150614da882614d43565b604082019050919050565b5f6020820190508181035f830152614dca81614d91565b9050919050565b7f596f757220617265206e6f7420746865206f776e6572206f66207468697320745f8201527f6f6b656e204e4654000000000000000000000000000000000000000000000000602082015250565b5f614e2b602883613b9c565b9150614e3682614dd1565b604082019050919050565b5f6020820190508181035f830152614e5881614e1f565b9050919050565b7f4e6f7420656e6f7567682066756e6473000000000000000000000000000000005f82015250565b5f614e93601083613b9c565b9150614e9e82614e5f565b602082019050919050565b5f6020820190508181035f830152614ec081614e87565b9050919050565b5f819050919050565b5f614eea614ee5614ee084614ec7565b6147f7565b613b61565b9050919050565b614efa81614ed0565b82525050565b5f608082019050614f135f830187613b6a565b614f206020830186613cc1565b614f2d6040830185613b39565b614f3a6060830184614ef1565b95945050505050565b7f4552433732313a207472616e736665722066726f6d20696e636f7272656374205f8201527f6f776e6572000000000000000000000000000000000000000000000000000000602082015250565b5f614f9d602583613b9c565b9150614fa882614f43565b604082019050919050565b5f6020820190508181035f830152614fca81614f91565b9050919050565b7f4552433732313a207472616e7366657220746f20746865207a65726f206164645f8201527f7265737300000000000000000000000000000000000000000000000000000000602082015250565b5f61502b602483613b9c565b915061503682614fd1565b604082019050919050565b5f6020820190508181035f8301526150588161501f565b9050919050565b7f45524337323155524953746f726167653a2055524920736574206f66206e6f6e5f8201527f6578697374656e7420746f6b656e000000000000000000000000000000000000602082015250565b5f6150b9602e83613b9c565b91506150c48261505f565b604082019050919050565b5f6020820190508181035f8301526150e6816150ad565b9050919050565b7f41636365707465640000000000000000000000000000000000000000000000005f82015250565b5f615121600883614bca565b915061512c826150ed565b600882019050919050565b5f61514182615115565b9150819050919050565b5f6151568284614bd4565b915081905092915050565b5f81549050919050565b5f82825260208201905092915050565b5f819050815f5260205f209050919050565b5f6151988383613f97565b60208301905092915050565b5f815f1c9050919050565b5f819050919050565b5f6151ca6151c5836151a4565b6151af565b9050919050565b5f6151dc82546151b8565b9050919050565b5f600182019050919050565b5f6151f982615161565b615203818561516b565b935061520e8361517b565b805f5b8381101561524557615222826151d1565b61522c888261518d565b9750615237836151e3565b925050600181019050615211565b5085935050505092915050565b5f6040820190506152655f830185613b6a565b818103602083015261527781846151ef565b90509392505050565b5f8160f81b9050919050565b5f61529682615280565b9050919050565b5f6152a78261528c565b9050919050565b6152bf6152ba82613b2e565b61529d565b82525050565b5f6152d082846152ae565b60018201915081905092915050565b7f4164647265737320616c726561647920616363657074656400000000000000005f82015250565b5f615313601883613b9c565b915061531e826152df565b602082019050919050565b5f6020820190508181035f83015261534081615307565b9050919050565b7f50656e64696e67000000000000000000000000000000000000000000000000005f82015250565b5f61537b600783614bca565b915061538682615347565b600782019050919050565b5f61539b8261536f565b9150819050919050565b7f4164647265737320616c72656164792070656e64696e670000000000000000005f82015250565b5f6153d9601783613b9c565b91506153e4826153a5565b602082019050919050565b5f6020820190508181035f830152615406816153cd565b9050919050565b7f52656a65637465640000000000000000000000000000000000000000000000005f82015250565b5f615441600883614bca565b915061544c8261540d565b600882019050919050565b5f61546182615435565b9150819050919050565b7f4164647265737320616c72656164792072656a656374656400000000000000005f82015250565b5f61549f601883613b9c565b91506154aa8261546b565b602082019050919050565b5f6020820190508181035f8301526154cc81615493565b9050919050565b7f4552433732313a20617070726f766520746f2063616c6c6572000000000000005f82015250565b5f615507601983613b9c565b9150615512826154d3565b602082019050919050565b5f6020820190508181035f830152615534816154fb565b9050919050565b7f4552433732313a207472616e7366657220746f206e6f6e2045524337323152655f8201527f63656976657220696d706c656d656e7465720000000000000000000000000000602082015250565b5f615595603283613b9c565b91506155a08261553b565b604082019050919050565b5f6020820190508181035f8301526155c281615589565b9050919050565b5f81519050919050565b5f82825260208201905092915050565b5f6155ed826155c9565b6155f781856155d3565b9350615607818560208601613bac565b61561081613bd4565b840191505092915050565b5f60808201905061562e5f830187613cc1565b61563b6020830186613cc1565b6156486040830185613b6a565b818103606083015261565a81846155e3565b905095945050505050565b5f8151905061567381613ad9565b92915050565b5f6020828403121561568e5761568d613aa6565b5b5f61569b84828501615665565b91505092915050565b7f4e487b71000000000000000000000000000000000000000000000000000000005f52601260045260245ffd5b5f6156db82613b61565b91506156e683613b61565b9250826156f6576156f56156a4565b5b828204905092915050565b5f61570b82613b61565b915061571683613b61565b925082615726576157256156a4565b5b828206905092915050565b7f4552433732313a206d696e7420746f20746865207a65726f20616464726573735f82015250565b5f615765602083613b9c565b915061577082615731565b602082019050919050565b5f6020820190508181035f83015261579281615759565b9050919050565b7f4552433732313a20746f6b656e20616c7265616479206d696e746564000000005f82015250565b5f6157cd601c83613b9c565b91506157d882615799565b602082019050919050565b5f6020820190508181035f8301526157fa816157c1565b905091905056fea26469706673582212200f0c7319b7f346b3f92d5c45d2effc07678c7a507f30c6fbe1381d2f63a9108a64736f6c63430008140033608060405234801561000f575f80fd5b50610ee38061001d5f395ff3fe608060405234801561000f575f80fd5b5060043610610086575f3560e01c80637ef1cd4b116100595780637ef1cd4b1461014a578063a28a34801461017a578063d25a84eb146101aa578063fc966d45146101da57610086565b806319d5880c1461008a57806321772a44146100ba57806332a5d170146100ea57806379cd90551461011a575b5f80fd5b6100a4600480360381019061009f91906108b4565b61020a565b6040516100b19190610928565b60405180910390f35b6100d460048036038101906100cf91906108b4565b6102af565b6040516100e19190610950565b60405180910390f35b61010460048036038101906100ff91906108b4565b610306565b6040516101119190610928565b60405180910390f35b610134600480360381019061012f9190610a19565b6103ab565b6040516101419190610950565b60405180910390f35b610164600480360381019061015f91906108b4565b61045d565b6040516101719190610928565b60405180910390f35b610194600480360381019061018f91906108b4565b610502565b6040516101a19190610950565b60405180910390f35b6101c460048036038101906101bf91906108b4565b610559565b6040516101d19190610950565b60405180910390f35b6101f460048036038101906101ef9190610a60565b6105b0565b6040516102019190610b05565b60405180910390f35b5f80600190505b82518110156102a4578360405160200161022b9190610b45565b6040516020818303038152906040528051906020012083828151811061025457610253610b5f565b5b602002602001015160405160200161026c9190610b45565b60405160208183030381529060405280519060200120036102915760019150506102a9565b808061029c90610bb9565b915050610211565b505f90505b92915050565b5f805f90505b82518110156102fb57838382815181106102d2576102d1610b5f565b5b6020026020010151036102e85780915050610300565b80806102f390610bb9565b9150506102b5565b508290505b92915050565b5f80600190505b82518110156103a057836040516020016103279190610b45565b604051602081830303815290604052805190602001208382815181106103505761034f610b5f565b5b60200260200101516040516020016103689190610b45565b604051602081830303815290604052805190602001200361038d5760019150506103a5565b808061039890610bb9565b91505061030d565b505f90505b92915050565b5f805f90505f8390505f5b8151811015610452575f8183516103cd9190610c00565b90505f8383815181106103e3576103e2610b5f565b5b602001015160f81c60f81b90505f8160f81c90505f60308260ff166104089190610c00565b90506001846104179190610c00565b600a6104239190610d62565b8161042e9190610dac565b876104399190610ded565b965050505050808061044a90610bb9565b9150506103b6565b508192505050919050565b5f80600190505b82518110156104f7578360405160200161047e9190610b45565b604051602081830303815290604052805190602001208382815181106104a7576104a6610b5f565b5b60200260200101516040516020016104bf9190610b45565b60405160208183030381529060405280519060200120036104e45760019150506104fc565b80806104ef90610bb9565b915050610464565b505f90505b92915050565b5f805f90505b825181101561054e578383828151811061052557610524610b5f565b5b60200260200101510361053b5780915050610553565b808061054690610bb9565b915050610508565b508290505b92915050565b5f805f90505b82518110156105a5578383828151811061057c5761057b610b5f565b5b60200260200101510361059257809150506105aa565b808061059d90610bb9565b91505061055f565b508290505b92915050565b60605f6105bc836105c7565b905080915050919050565b60605f820361060d576040518060400160405280600181526020017f3000000000000000000000000000000000000000000000000000000000000000815250905061071b565b5f8290505f5b5f821461063c57808061062590610bb9565b915050600a826106359190610e4d565b9150610613565b5f8167ffffffffffffffff81111561065757610656610778565b5b6040519080825280601f01601f1916602001820160405280156106895781602001600182028036833780820191505090505b5090505b5f8514610714576001826106a19190610c00565b9150600a856106b09190610e7d565b60306106bc9190610ded565b60f81b8183815181106106d2576106d1610b5f565b5b60200101907effffffffffffffffffffffffffffffffffffffffffffffffffffffffffffff191690815f1a905350600a8561070d9190610e4d565b945061068d565b8093505050505b919050565b5f604051905090565b5f80fd5b5f80fd5b5f819050919050565b61074381610731565b811461074d575f80fd5b50565b5f8135905061075e8161073a565b92915050565b5f80fd5b5f601f19601f8301169050919050565b7f4e487b71000000000000000000000000000000000000000000000000000000005f52604160045260245ffd5b6107ae82610768565b810181811067ffffffffffffffff821117156107cd576107cc610778565b5b80604052505050565b5f6107df610720565b90506107eb82826107a5565b919050565b5f67ffffffffffffffff82111561080a57610809610778565b5b602082029050602081019050919050565b5f80fd5b5f61083161082c846107f0565b6107d6565b905080838252602082019050602084028301858111156108545761085361081b565b5b835b8181101561087d57806108698882610750565b845260208401935050602081019050610856565b5050509392505050565b5f82601f83011261089b5761089a610764565b5b81356108ab84826020860161081f565b91505092915050565b5f80604083850312156108ca576108c9610729565b5b5f6108d785828601610750565b925050602083013567ffffffffffffffff8111156108f8576108f761072d565b5b61090485828601610887565b9150509250929050565b5f8115159050919050565b6109228161090e565b82525050565b5f60208201905061093b5f830184610919565b92915050565b61094a81610731565b82525050565b5f6020820190506109635f830184610941565b92915050565b5f80fd5b5f67ffffffffffffffff82111561098757610986610778565b5b61099082610768565b9050602081019050919050565b828183375f83830152505050565b5f6109bd6109b88461096d565b6107d6565b9050828152602081018484840111156109d9576109d8610969565b5b6109e484828561099d565b509392505050565b5f82601f830112610a00576109ff610764565b5b8135610a108482602086016109ab565b91505092915050565b5f60208284031215610a2e57610a2d610729565b5b5f82013567ffffffffffffffff811115610a4b57610a4a61072d565b5b610a57848285016109ec565b91505092915050565b5f60208284031215610a7557610a74610729565b5b5f610a8284828501610750565b91505092915050565b5f81519050919050565b5f82825260208201905092915050565b5f5b83811015610ac2578082015181840152602081019050610aa7565b5f8484015250505050565b5f610ad782610a8b565b610ae18185610a95565b9350610af1818560208601610aa5565b610afa81610768565b840191505092915050565b5f6020820190508181035f830152610b1d8184610acd565b905092915050565b5f819050919050565b610b3f610b3a82610731565b610b25565b82525050565b5f610b508284610b2e565b60208201915081905092915050565b7f4e487b71000000000000000000000000000000000000000000000000000000005f52603260045260245ffd5b7f4e487b71000000000000000000000000000000000000000000000000000000005f52601160045260245ffd5b5f610bc382610731565b91507fffffffffffffffffffffffffffffffffffffffffffffffffffffffffffffffff8203610bf557610bf4610b8c565b5b600182019050919050565b5f610c0a82610731565b9150610c1583610731565b9250828203905081811115610c2d57610c2c610b8c565b5b92915050565b5f8160011c9050919050565b5f808291508390505b6001851115610c8857808604811115610c6457610c63610b8c565b5b6001851615610c735780820291505b8081029050610c8185610c33565b9450610c48565b94509492505050565b5f82610ca05760019050610d5b565b81610cad575f9050610d5b565b8160018114610cc35760028114610ccd57610cfc565b6001915050610d5b565b60ff841115610cdf57610cde610b8c565b5b8360020a915084821115610cf657610cf5610b8c565b5b50610d5b565b5060208310610133831016604e8410600b8410161715610d315782820a905083811115610d2c57610d2b610b8c565b5b610d5b565b610d3e8484846001610c3f565b92509050818404811115610d5557610d54610b8c565b5b81810290505b9392505050565b5f610d6c82610731565b9150610d7783610731565b9250610da47fffffffffffffffffffffffffffffffffffffffffffffffffffffffffffffffff8484610c91565b905092915050565b5f610db682610731565b9150610dc183610731565b9250828202610dcf81610731565b91508282048414831517610de657610de5610b8c565b5b5092915050565b5f610df782610731565b9150610e0283610731565b9250828201905080821115610e1a57610e19610b8c565b5b92915050565b7f4e487b71000000000000000000000000000000000000000000000000000000005f52601260045260245ffd5b5f610e5782610731565b9150610e6283610731565b925082610e7257610e71610e20565b5b828204905092915050565b5f610e8782610731565b9150610e9283610731565b925082610ea257610ea1610e20565b5b82820690509291505056fea26469706673582212203645b6f9d656252a8223ae1f166a4f994c47c7d3618a3f9ffe7e714296ed60d264736f6c63430008140033",
  "immutableReferences": {},
  "source": "//SPDX-License-Identifier: Unlicense\r\npragma solidity ^0.8.0;\r\n\r\nimport \"hardhat/console.sol\";\r\nimport \"@openzeppelin/contracts/utils/Counters.sol\";\r\nimport \"@openzeppelin/contracts/token/ERC721/extensions/ERC721URIStorage.sol\";\r\nimport \"@openzeppelin/contracts/token/ERC721/ERC721.sol\";\r\nimport \"@chainlink/contracts/src/v0.8/ChainlinkClient.sol\";\r\nimport \"@chainlink/contracts/src/v0.8/ConfirmedOwner.sol\";\r\n\r\nimport {convert} from \"./Convert.sol\";\r\n\r\ninterface Ipbidder {\r\n   function bid(uint256 val, address bidderAdd) external view returns(uint);\r\n   function isBidder(address bidderAdd) external view returns(bool);\r\n   function valueChange(uint256 tokenId, address bidAdd, bool text, uint256 value) external;\r\n   function bidderDeposit(uint256 tokenId) payable external returns(bool); \r\n}\r\n\r\ncontract ContractIp is ERC721URIStorage{\r\n    address bidcontract = 0xE31cD465B9030b7D1bfE2D6F93e5D5E5A1Bef9c5;\r\n    \r\n    // using Chainlink for Chainlink.Request;\r\n\r\n    // string public test;\r\n    // bytes32 private jobId;\r\n    // uint256 private fee;\r\n\r\n    // event RequestVolume(bytes32 indexed requestId, string test);\r\n\r\n    using Counters for Counters.Counter;\r\n    //_tokenIds variable has the most recent minted tokenId\r\n    Counters.Counter private _tokenIds;\r\n    //Keeps track of the number of items sold on the marketplace\r\n    Counters.Counter private _itemsSold;\r\n    //owner is the contract address that created the smart contract\r\n    address payable owner;\r\n    //The fee charged by the marketplace to be allowed to list an NFT\r\n    uint256 public commissionPrice = 0.001 ether;\r\n\r\n    convert conv = new convert();\r\n\r\n    //The structure to store info about a listed token\r\n    struct RequestedNfts {\r\n        uint256 tokenId;\r\n        address payable Nftowner;\r\n        uint256 timestamp;        \r\n        string status; \r\n        bool isRegistered;\r\n    }\r\n\r\n    //the event emitted when a token is successfully listed\r\n    event TokenAcceptedNft (\r\n        uint256 indexed tokenId,\r\n        address Nftowner,\r\n        uint256 timestamp,       \r\n        string status,\r\n        bool isRegistered\r\n    );\r\n\r\n    uint[] public acceptedIps;\r\n    uint[] public pendingIps;\r\n    uint[] public rejectedIps;\r\n    string public result;\r\n    //This mapping maps tokenId to token info and is helpful when retrieving details about a tokenId\r\n    mapping(uint256 => RequestedNfts) public idToListedToken;    \r\n    modifier onlyOwner {\r\n        require(msg.sender == owner);\r\n        _;\r\n    }\r\n\r\n    uint public receivedWei;\r\n    uint public returnedWei;\r\n\r\n    constructor() ERC721(\"NFTMarketplace\", \"NFTM\") { \r\n        owner = payable(msg.sender);\r\n    }\r\n    \r\n    // constructor() ERC721(\"NFTMarketplace\", \"NFTM\") {\r\n    //     owner = payable(msg.sender);\r\n    //     setChainlinkToken(0x779877A7B0D9E8603169DdbD7836e478b4624789);\r\n    //     setChainlinkOracle(0x6090149792dAAeE9D1D568c9f9a6F6B46AA29eFD);\r\n    //     jobId = \"7d80a6386ef543a3abb52817f6707e3b\";\r\n    //     fee = (1 * LINK_DIVISIBILITY) / 10; // 0,1 * 10**18 (Varies by network and job)\r\n    // }\r\n\r\n    // function requestVolumeData() public returns (bytes32 requestId) {\r\n    //     Chainlink.Request memory req = buildChainlinkRequest(\r\n    //         jobId,\r\n    //         address(this),\r\n    //         this.fulfill.selector\r\n    //     );\r\n\r\n    //     // Set the URL to perform the GET request on\r\n    //     req.add(\r\n    //         \"get\",\r\n    //         \"http://www.patentsview.org/api/assignees/\"\r\n    //     );\r\n\r\n    \r\n    //     req.add(\"path\", \"args,patent_name,patent_date\"); // Chainlink nodes 1.0.0 and later support this format\r\n\r\n    //     // Sends the request\r\n    //     return sendChainlinkRequest(req, fee);\r\n    // }\r\n\r\n    // setup royality fee that is going to be paid to artist the creator\r\n    function updateCommissionFee(uint256 _cp) external payable onlyOwner  {\r\n        commissionPrice = _cp; // 15 basis points = 0.15 percent\r\n        \r\n    }\r\n\r\n    //The first time a token is created, it is listed here\r\n    function createToken(string memory tokenURI) public payable returns (uint) {\r\n        //Increment the tokenId counter, which is keeping track of the number of minted NFTs\r\n        _tokenIds.increment();\r\n        uint256 newTokenId = _tokenIds.current();\r\n\r\n        //Mint the NFT with tokenId newTokenId to the address who called createToken\r\n        _safeMint(msg.sender, newTokenId);\r\n\r\n        //Map the tokenId to the tokenURI (which is an IPFS URL with the NFT metadata)\r\n        _setTokenURI(newTokenId, tokenURI);\r\n        \r\n        string memory currentstatus = \"Pending\" ;\r\n        //Helper function to update Global variables and emit an event\r\n        //createListedToken(newTokenId, currentstatus);\r\n          idToListedToken[newTokenId] = RequestedNfts(\r\n            newTokenId,\r\n         //   payable(address(this)),\r\n            payable(msg.sender),\r\n            block.timestamp,\r\n            currentstatus,\r\n            true\r\n        );\r\n         pendingIps.push(newTokenId);  \r\n\r\n        //Emit the event for successful transfer. The frontend parses this message and updates the end user\r\n        emit TokenAcceptedNft( newTokenId, msg.sender, block.timestamp, currentstatus, true);\r\n \r\n        return newTokenId;\r\n    }\r\n\r\n    // Admin function\r\n    function changeStatus(uint tokenId, string memory status) public onlyOwner returns(bool) {\r\n        idToListedToken[tokenId].status = status;\r\n        // newcount[i].count++; \r\n        conditionStatus(tokenId);\r\n        return true;\r\n    }\r\n\r\n    function conditionStatus(uint tokenId) private {\r\n        // uint num = newcount[i].count;\r\n        string memory statustext = idToListedToken[tokenId].status;\r\n        if(keccak256(abi.encodePacked(statustext)) == keccak256(abi.encodePacked('Accepted'))){\r\n            bool val = conv.addressExistAccept(tokenId, acceptedIps);\r\n            require((keccak256(abi.encodePacked(val)) != keccak256(abi.encodePacked(true))), 'Address already accepted');\r\n            acceptedIps.push(tokenId);\r\n            uint256 value1 = conv.indexOfPending(tokenId, pendingIps);\r\n            uint256 value2 = conv.indexOfAccepted(tokenId, rejectedIps);                     \r\n           if(value1 != tokenId && value2 != tokenId){         \r\n                removePending(value1);  \r\n                removeRejected(value2);\r\n           } \r\n           if (value1 != tokenId){\r\n              removePending(value1);  \r\n            }\r\n           else if(value2 != tokenId){\r\n              removeRejected(value2);\r\n            }\r\n            else {\r\n              result = 'not found';\r\n           }\r\n        } \r\n        else if(keccak256(abi.encodePacked(statustext)) == keccak256(abi.encodePacked('Pending'))){\r\n            bool val = conv.addressExistPend(tokenId, pendingIps);\r\n            require((keccak256(abi.encodePacked(val)) != keccak256(abi.encodePacked(true))), 'Address already pending');\r\n            pendingIps.push(tokenId);\r\n            uint256 value1 = conv.indexOfAccepted(tokenId, acceptedIps);\r\n            uint256 value2 = conv.indexOfRejected(tokenId, rejectedIps);\r\n            if(value1 != tokenId && value2 != tokenId){\r\n                removeAccepted(value1); \r\n                removeRejected(value2);\r\n            }\r\n            else if(value1 != tokenId){\r\n                removeAccepted(value1); \r\n            }\r\n            else if(value2 != tokenId){\r\n                removeRejected(value2);       \r\n            }\r\n                else {\r\n                result = 'not found';\r\n            }\r\n           } else if(keccak256(abi.encodePacked(statustext)) == keccak256(abi.encodePacked('Rejected'))){\r\n            bool val = conv.addressExistReject(tokenId, rejectedIps);\r\n            require((keccak256(abi.encodePacked(val)) != keccak256(abi.encodePacked(true))), 'Address already rejected');\r\n            rejectedIps.push(tokenId);\r\n            uint256 value1 = conv.indexOfAccepted(tokenId, acceptedIps);\r\n            uint256 value2 = conv.indexOfPending(tokenId, pendingIps);\r\n                    \r\n            if(value1 != tokenId && value2 != tokenId){\r\n                removeAccepted(value1);            \r\n                removePending(value2);\r\n            }\r\n            else if(value1 != tokenId){\r\n                removeAccepted(value1); \r\n            }\r\n            else if(value2 != tokenId){\r\n                removePending(value2);      \r\n            }\r\n                else {\r\n                result = 'not found';\r\n            }\r\n        }   \r\n    }    \r\n\r\n    function removeAccepted(uint _index) public {\r\n        require(_index < acceptedIps.length, \"index out of bound\");\r\n        for (uint i = _index; i < acceptedIps.length - 1; i++){\r\n            acceptedIps[i] = acceptedIps[i+1];\r\n        }\r\n        acceptedIps.pop();\r\n    }\r\n\r\n    function removePending(uint _index) public {\r\n        require(_index < pendingIps.length, \"index out of bound\");\r\n        for (uint i = _index; i < pendingIps.length - 1; i++){\r\n            pendingIps[i] = pendingIps[i+1];\r\n        }\r\n        pendingIps.pop();\r\n    }\r\n\r\n    function removeRejected(uint _index) public {\r\n        require(_index < rejectedIps.length, \"index out of bound\");\r\n        for (uint i = _index; i < rejectedIps.length - 1; i++){\r\n            rejectedIps[i] = rejectedIps[i+1];\r\n        }\r\n        rejectedIps.pop();\r\n    }\r\n    \r\n    function countAcceptedIPs() view public returns (uint) { return acceptedIps.length;  }\r\n\r\n    function countPendingIPs() view public returns (uint) { return pendingIps.length; }\r\n\r\n    function countRejectedIPs() view public returns (uint) { return rejectedIps.length; }\r\n\r\n    //This will return all the NFTs currently listed to be sold on the marketplace\r\n    function getAllNFTs() public view returns (RequestedNfts[] memory) {\r\n        uint nftCount = _tokenIds.current();\r\n        RequestedNfts[] memory tokens = new RequestedNfts[](nftCount);\r\n        uint currentIndex = 0;\r\n        uint currentId;\r\n        //at the moment currentlyListed is true for all, if it becomes false in the future we will \r\n        //filter out currentlyListed == false over here\r\n        for(uint i=0;i<nftCount;i++)\r\n        {\r\n            currentId = i + 1;\r\n            RequestedNfts storage currentItem = idToListedToken[currentId];\r\n            tokens[currentIndex] = currentItem;\r\n            currentIndex += 1;\r\n        }\r\n        //the array 'tokens' has the list of all NFTs in the marketplace\r\n        return tokens;\r\n    }\r\n\r\n    function getMyNFTs() public view returns (RequestedNfts[] memory) {\r\n        uint totalItemCount = _tokenIds.current();\r\n        uint itemCount = 0;\r\n        uint currentIndex = 0;\r\n        uint currentId;\r\n        //Important to get a count of all the NFTs that belong to the user before we can make an array for them\r\n        for(uint i=0; i < totalItemCount; i++)\r\n        {\r\n            if(idToListedToken[i+1].Nftowner == msg.sender){\r\n                itemCount += 1;\r\n            }\r\n        }\r\n\r\n        //Once you have the count of relevant NFTs, create an array then store all the NFTs in it\r\n        RequestedNfts[] memory items = new RequestedNfts[](itemCount);\r\n        for(uint i=0; i < totalItemCount; i++) {\r\n            if(idToListedToken[i+1].Nftowner == msg.sender) {\r\n                currentId = i+1;\r\n                RequestedNfts storage currentItem = idToListedToken[currentId];\r\n                items[currentIndex] = currentItem;\r\n                currentIndex += 1;\r\n            }\r\n        }\r\n        return items;\r\n    }\r\n\r\n    function bidVal(uint256 tokenId, address bidderAddress) public view returns(uint) {\r\n        return Ipbidder(bidcontract).bid(tokenId,bidderAddress); \r\n    }\r\n\r\n    function check(address bidderAddress) public view returns(bool){\r\n        return Ipbidder(bidcontract).isBidder(bidderAddress);\r\n    }\r\n\r\n    function executeSale(uint256 tokenId, address bidderAddress) public payable{\r\n            uint256 bidValue = Ipbidder(bidcontract).bid(tokenId,bidderAddress); \r\n            require(msg.sender == ownerOf(tokenId), \"You are not the owner of the IP nft\");\r\n            require(msg.value == bidValue, \"Please submit the asking price in order to complete the purchase\");\r\n            require(check(bidderAddress), \"This address did not bid on this IP\");\r\n            require(ownerOf(tokenId) == msg.sender, \"Your are not the owner of this token NFT\");\r\n            require(owner.balance > 0, \"Not enough funds\" );\r\n           \r\n            address seller = idToListedToken[tokenId].Nftowner;            \r\n            idToListedToken[tokenId].isRegistered = true;\r\n            idToListedToken[tokenId].Nftowner = payable(bidderAddress);\r\n            _itemsSold.increment();\r\n          \r\n            _transfer(msg.sender, bidderAddress, tokenId);           \r\n            //uint256 comPrice = bidValue * commissionPrice;\r\n            uint256 bidPrice = bidValue - commissionPrice;\r\n            bidValue = commissionPrice;\r\n            payable(owner).transfer(bidValue);\r\n            payable(seller).transfer(bidPrice);\r\n            Ipbidder(bidcontract).valueChange(tokenId, bidderAddress, true, 0);\r\n       \r\n        }\r\n}",
  "sourcePath": "C:\\Users\\Moksh Aithandla\\Intellectual-Identity-ethereum\\smart_contract\\contracts\\ContractIp.sol",
  "compiler": {
    "name": "solc",
    "version": "0.8.20+commit.a1b79de6.Emscripten.clang"
  },
  "schemaVersion": "3.4.16",
  "updatedAt": "2025-03-20T15:10:16.272Z",
  "devdoc": {
    "events": {
      "Approval(address,address,uint256)": {
        "details": "Emitted when `owner` enables `approved` to manage the `tokenId` token."
      },
      "ApprovalForAll(address,address,bool)": {
        "details": "Emitted when `owner` enables or disables (`approved`) `operator` to manage all of its assets."
      },
      "Transfer(address,address,uint256)": {
        "details": "Emitted when `tokenId` token is transferred from `from` to `to`."
      }
    },
    "kind": "dev",
    "methods": {
      "approve(address,uint256)": {
        "details": "See {IERC721-approve}."
      },
      "balanceOf(address)": {
        "details": "See {IERC721-balanceOf}."
      },
      "getApproved(uint256)": {
        "details": "See {IERC721-getApproved}."
      },
      "isApprovedForAll(address,address)": {
        "details": "See {IERC721-isApprovedForAll}."
      },
      "name()": {
        "details": "See {IERC721Metadata-name}."
      },
      "ownerOf(uint256)": {
        "details": "See {IERC721-ownerOf}."
      },
      "safeTransferFrom(address,address,uint256)": {
        "details": "See {IERC721-safeTransferFrom}."
      },
      "safeTransferFrom(address,address,uint256,bytes)": {
        "details": "See {IERC721-safeTransferFrom}."
      },
      "setApprovalForAll(address,bool)": {
        "details": "See {IERC721-setApprovalForAll}."
      },
      "supportsInterface(bytes4)": {
        "details": "See {IERC165-supportsInterface}."
      },
      "symbol()": {
        "details": "See {IERC721Metadata-symbol}."
      },
      "tokenURI(uint256)": {
        "details": "See {IERC721Metadata-tokenURI}."
      },
      "transferFrom(address,address,uint256)": {
        "details": "See {IERC721-transferFrom}."
      }
    },
    "version": 1
  },
  "userdoc": {
    "kind": "user",
    "methods": {},
    "version": 1
  }
}