{
  "contractName": "convert",
  "abi": [
    {
      "inputs": [
        {
          "internalType": "string",
          "name": "numString",
          "type": "string"
        }
      ],
      "name": "st2num",
      "outputs": [
        {
          "internalType": "uint256",
          "name": "",
          "type": "uint256"
        }
      ],
      "stateMutability": "pure",
      "type": "function"
    },
    {
      "inputs": [
        {
          "internalType": "uint256",
          "name": "_i",
          "type": "uint256"
        }
      ],
      "name": "uintToStr",
      "outputs": [
        {
          "internalType": "string",
          "name": "_stringValue",
          "type": "string"
        }
      ],
      "stateMutability": "pure",
      "type": "function"
    },
    {
      "inputs": [
        {
          "internalType": "uint256",
          "name": "searchFor",
          "type": "uint256"
        },
        {
          "internalType": "uint256[]",
          "name": "acceptedIps",
          "type": "uint256[]"
        }
      ],
      "name": "addressExistAccept",
      "outputs": [
        {
          "internalType": "bool",
          "name": "",
          "type": "bool"
        }
      ],
      "stateMutability": "pure",
      "type": "function"
    },
    {
      "inputs": [
        {
          "internalType": "uint256",
          "name": "searchFor",
          "type": "uint256"
        },
        {
          "internalType": "uint256[]",
          "name": "pendingIps",
          "type": "uint256[]"
        }
      ],
      "name": "addressExistPend",
      "outputs": [
        {
          "internalType": "bool",
          "name": "",
          "type": "bool"
        }
      ],
      "stateMutability": "pure",
      "type": "function"
    },
    {
      "inputs": [
        {
          "internalType": "uint256",
          "name": "searchFor",
          "type": "uint256"
        },
        {
          "internalType": "uint256[]",
          "name": "rejectedIps",
          "type": "uint256[]"
        }
      ],
      "name": "addressExistReject",
      "outputs": [
        {
          "internalType": "bool",
          "name": "",
          "type": "bool"
        }
      ],
      "stateMutability": "pure",
      "type": "function"
    },
    {
      "inputs": [
        {
          "internalType": "uint256",
          "name": "searchFor",
          "type": "uint256"
        },
        {
          "internalType": "uint256[]",
          "name": "acceptedIps",
          "type": "uint256[]"
        }
      ],
      "name": "indexOfAccepted",
      "outputs": [
        {
          "internalType": "uint256",
          "name": "",
          "type": "uint256"
        }
      ],
      "stateMutability": "pure",
      "type": "function"
    },
    {
      "inputs": [
        {
          "internalType": "uint256",
          "name": "searchFor",
          "type": "uint256"
        },
        {
          "internalType": "uint256[]",
          "name": "pendingIps",
          "type": "uint256[]"
        }
      ],
      "name": "indexOfPending",
      "outputs": [
        {
          "internalType": "uint256",
          "name": "",
          "type": "uint256"
        }
      ],
      "stateMutability": "pure",
      "type": "function"
    },
    {
      "inputs": [
        {
          "internalType": "uint256",
          "name": "searchFor",
          "type": "uint256"
        },
        {
          "internalType": "uint256[]",
          "name": "rejectedIps",
          "type": "uint256[]"
        }
      ],
      "name": "indexOfRejected",
      "outputs": [
        {
          "internalType": "uint256",
          "name": "",
          "type": "uint256"
        }
      ],
      "stateMutability": "pure",
      "type": "function"
    }
  ],
  "bytecode": "0x608060405234801561001057600080fd5b50610a4f806100206000396000f3fe608060405234801561001057600080fd5b50600436106100885760003560e01c80637ef1cd4b1161005b5780637ef1cd4b146100fc578063a28a34801461010f578063d25a84eb14610122578063fc966d451461013557610088565b806319d5880c1461008d57806321772a44146100b657806332a5d170146100d657806379cd9055146100e9575b600080fd5b6100a061009b3660046106e7565b610155565b6040516100ad91906107a3565b60405180910390f35b6100c96100c43660046106e7565b610206565b6040516100ad919061079a565b6100a06100e43660046106e7565b610263565b6100c96100f7366004610642565b610308565b6100a061010a3660046106e7565b6103bc565b6100c961011d3660046106e7565b610461565b6100c96101303660046106e7565b6104b6565b6101486101433660046106cf565b61050b565b6040516100ad91906107ae565b600060015b82518110156101fa5783604051602001610174919061079a565b604051602081830303815290604052805190602001208382815181106101aa57634e487b7160e01b600052603260045260246000fd5b60200260200101516040516020016101c2919061079a565b6040516020818303038152906040528051906020012014156101e8576001915050610200565b806101f2816109a8565b91505061015a565b50600090505b92915050565b6000805b825181101561025b578383828151811061023457634e487b7160e01b600052603260045260246000fd5b60200260200101511415610249579050610200565b80610253816109a8565b91505061020a565b509192915050565b600060015b82518110156101fa5783604051602001610282919061079a565b604051602081830303815290604052805190602001208382815181106102b857634e487b7160e01b600052603260045260246000fd5b60200260200101516040516020016102d0919061079a565b6040516020818303038152906040528051906020012014156102f6576001915050610200565b80610300816109a8565b915050610268565b60008082815b81518110156103b15760008183516103269190610991565b9050600083838151811061034a57634e487b7160e01b600052603260045260246000fd5b01602001516001600160f81b03198116915060f81c600061036c603083610991565b9050610379600185610991565b61038490600a6108a4565b61038e9082610972565b6103989088610832565b96505050505080806103a9906109a8565b91505061030e565b50909150505b919050565b600060015b82518110156101fa57836040516020016103db919061079a565b6040516020818303038152906040528051906020012083828151811061041157634e487b7160e01b600052603260045260246000fd5b6020026020010151604051602001610429919061079a565b60405160208183030381529060405280519060200120141561044f576001915050610200565b80610459816109a8565b9150506103c1565b6000805b825181101561025b578383828151811061048f57634e487b7160e01b600052603260045260246000fd5b602002602001015114156104a4579050610200565b806104ae816109a8565b915050610465565b6000805b825181101561025b57838382815181106104e457634e487b7160e01b600052603260045260246000fd5b602002602001015114156104f9579050610200565b80610503816109a8565b9150506104ba565b606060006105188361051f565b9392505050565b60608161054457506040805180820190915260018152600360fc1b60208201526103b7565b8160005b811561056e5780610558816109a8565b91506105679050600a8361084a565b9150610548565b60008167ffffffffffffffff81111561059757634e487b7160e01b600052604160045260246000fd5b6040519080825280601f01601f1916602001820160405280156105c1576020820181803683370190505b5090505b841561063a576105d6600183610991565b91506105e3600a866109c3565b6105ee906030610832565b60f81b81838151811061061157634e487b7160e01b600052603260045260246000fd5b60200101906001600160f81b031916908160001a905350610633600a8661084a565b94506105c5565b949350505050565b60006020808385031215610654578182fd5b823567ffffffffffffffff8082111561066b578384fd5b818501915085601f83011261067e578384fd5b81358181111561069057610690610a03565b6106a2601f8201601f19168501610801565b915080825286848285010111156106b7578485fd5b80848401858401378101909201929092529392505050565b6000602082840312156106e0578081fd5b5035919050565b600080604083850312156106f9578081fd5b8235915060208084013567ffffffffffffffff80821115610718578384fd5b818601915086601f83011261072b578384fd5b81358181111561073d5761073d610a03565b838102915061074d848301610801565b8181528481019084860184860187018b1015610767578788fd5b8795505b8386101561078957803583526001959095019491860191860161076b565b508096505050505050509250929050565b90815260200190565b901515815260200190565b6000602080835283518082850152825b818110156107da578581018301518582016040015282016107be565b818111156107eb5783604083870101525b50601f01601f1916929092016040019392505050565b604051601f8201601f1916810167ffffffffffffffff8111828210171561082a5761082a610a03565b604052919050565b60008219821115610845576108456109d7565b500190565b600082610859576108596109ed565b500490565b80825b6001808611610870575061089b565b818704821115610882576108826109d7565b8086161561088f57918102915b9490941c938002610861565b94509492505050565b600061051860001984846000826108bd57506001610518565b816108ca57506000610518565b81600181146108e057600281146108ea57610917565b6001915050610518565b60ff8411156108fb576108fb6109d7565b6001841b915084821115610911576109116109d7565b50610518565b5060208310610133831016604e8410600b841016171561094a575081810a83811115610945576109456109d7565b610518565b610957848484600161085e565b808604821115610969576109696109d7565b02949350505050565b600081600019048311821515161561098c5761098c6109d7565b500290565b6000828210156109a3576109a36109d7565b500390565b60006000198214156109bc576109bc6109d7565b5060010190565b6000826109d2576109d26109ed565b500690565b634e487b7160e01b600052601160045260246000fd5b634e487b7160e01b600052601260045260246000fd5b634e487b7160e01b600052604160045260246000fdfea26469706673582212206718810264a92761ab270d68aebbab319be10bb0a2485de341ef1c5ab4d4da9264736f6c63430008010033",
  "immutableReferences": {},
  "source": "//Contract based on [https://docs.openzeppelin.com/contracts/3.x/erc721](https://docs.openzeppelin.com/contracts/3.x/erc721)\r\n// SPDX-License-Identifier: MIT\r\n\r\npragma solidity ^0.8.1;\r\nimport \"hardhat/console.sol\";\r\nimport \"@openzeppelin/contracts/utils/Strings.sol\";\r\n\r\ncontract convert {\r\n\r\n    function st2num(string memory numString) public pure returns(uint) {\r\n          uint  val=0;\r\n          bytes   memory stringBytes = bytes(numString);\r\n          for (uint  i =  0; i<stringBytes.length; i++) {\r\n              uint exp = stringBytes.length - i;\r\n              bytes1 ival = stringBytes[i];\r\n              uint8 uval = uint8(ival);\r\n            uint jval = uval - uint(0x30);\r\n    \r\n            val +=  (uint(jval) * (10**(exp-1))); \r\n          }\r\n          return val;\r\n    }\r\n\r\n    function uintToStr(uint _i) public pure returns (string memory _stringValue) {\r\n       string memory res = Strings.toString(_i);\r\n       return res;\r\n    }\r\n\r\n    function addressExistAccept(uint searchFor, uint[] memory acceptedIps) public pure returns (bool) {\r\n    for (uint i = 1; i < acceptedIps.length; i++) {\r\n        if (keccak256(abi.encodePacked(acceptedIps[i])) == keccak256(abi.encodePacked(searchFor))) {\r\n              return true;\r\n         }\r\n    }  \r\n        return false;\r\n    }\r\n\r\n    function addressExistPend(uint searchFor, uint[] memory pendingIps) public pure returns (bool) {\r\n    for (uint i = 1; i < pendingIps.length; i++) {\r\n        if (keccak256(abi.encodePacked(pendingIps[i])) == keccak256(abi.encodePacked(searchFor))) {\r\n            return true;\r\n        }\r\n    }   \r\n        return false; // not found\r\n    }\r\n\r\n    function addressExistReject(uint searchFor, uint[] memory rejectedIps) public pure returns (bool) {\r\n    for (uint256 i = 1; i < rejectedIps.length; i++) {\r\n        if (keccak256(abi.encodePacked(rejectedIps[i])) == keccak256(abi.encodePacked(searchFor))) {\r\n            return true;\r\n        }\r\n    } \r\n        return false;\r\n    }\r\n       \r\n    function indexOfAccepted(uint searchFor, uint[] memory acceptedIps) public pure returns (uint256) {\r\n    for (uint i = 0; i < acceptedIps.length; i++) {\r\n        if (acceptedIps[i] == searchFor) {\r\n           return i;\r\n         }\r\n    }  \r\n        return searchFor;\r\n    }\r\n  \r\n    function indexOfPending(uint searchFor, uint[] memory pendingIps) public pure returns (uint256) {\r\n    for (uint i = 0; i < pendingIps.length; i++) {\r\n        if (pendingIps[i] == searchFor) {\r\n           return i;\r\n        }\r\n    }  \r\n    return searchFor;\r\n    }\r\n\r\n    function indexOfRejected(uint searchFor, uint[] memory rejectedIps) public pure returns (uint256) {\r\n    for (uint256 i = 0; i < rejectedIps.length; i++) {\r\n        if (rejectedIps[i] == searchFor) {\r\n            return i;\r\n        }\r\n    }  \r\n    return searchFor;\r\n    }\r\n\r\n}",
  "sourcePath": "P:\\IPR-Management\\smart_contract\\contracts\\Convert.sol",
  "compiler": {
    "name": "solc",
    "version": "0.8.1+commit.df193b15.Emscripten.clang"
  },
  "schemaVersion": "3.4.16",
  "updatedAt": "2025-04-22T09:46:07.204Z",
  "devdoc": {
    "kind": "dev",
    "methods": {},
    "version": 1
  },
  "userdoc": {
    "kind": "user",
    "methods": {},
    "version": 1
  }
}