{
  "contractName": "convert",
  "abi": [
    {
      "inputs": [
        {
          "internalType": "string",
          "name": "numString",
          "type": "string"
        }
      ],
      "name": "st2num",
      "outputs": [
        {
          "internalType": "uint256",
          "name": "",
          "type": "uint256"
        }
      ],
      "stateMutability": "pure",
      "type": "function"
    },
    {
      "inputs": [
        {
          "internalType": "uint256",
          "name": "_i",
          "type": "uint256"
        }
      ],
      "name": "uintToStr",
      "outputs": [
        {
          "internalType": "string",
          "name": "_stringValue",
          "type": "string"
        }
      ],
      "stateMutability": "pure",
      "type": "function"
    },
    {
      "inputs": [
        {
          "internalType": "uint256",
          "name": "searchFor",
          "type": "uint256"
        },
        {
          "internalType": "uint256[]",
          "name": "acceptedIps",
          "type": "uint256[]"
        }
      ],
      "name": "addressExistAccept",
      "outputs": [
        {
          "internalType": "bool",
          "name": "",
          "type": "bool"
        }
      ],
      "stateMutability": "pure",
      "type": "function"
    },
    {
      "inputs": [
        {
          "internalType": "uint256",
          "name": "searchFor",
          "type": "uint256"
        },
        {
          "internalType": "uint256[]",
          "name": "pendingIps",
          "type": "uint256[]"
        }
      ],
      "name": "addressExistPend",
      "outputs": [
        {
          "internalType": "bool",
          "name": "",
          "type": "bool"
        }
      ],
      "stateMutability": "pure",
      "type": "function"
    },
    {
      "inputs": [
        {
          "internalType": "uint256",
          "name": "searchFor",
          "type": "uint256"
        },
        {
          "internalType": "uint256[]",
          "name": "rejectedIps",
          "type": "uint256[]"
        }
      ],
      "name": "addressExistReject",
      "outputs": [
        {
          "internalType": "bool",
          "name": "",
          "type": "bool"
        }
      ],
      "stateMutability": "pure",
      "type": "function"
    },
    {
      "inputs": [
        {
          "internalType": "uint256",
          "name": "searchFor",
          "type": "uint256"
        },
        {
          "internalType": "uint256[]",
          "name": "acceptedIps",
          "type": "uint256[]"
        }
      ],
      "name": "indexOfAccepted",
      "outputs": [
        {
          "internalType": "uint256",
          "name": "",
          "type": "uint256"
        }
      ],
      "stateMutability": "pure",
      "type": "function"
    },
    {
      "inputs": [
        {
          "internalType": "uint256",
          "name": "searchFor",
          "type": "uint256"
        },
        {
          "internalType": "uint256[]",
          "name": "pendingIps",
          "type": "uint256[]"
        }
      ],
      "name": "indexOfPending",
      "outputs": [
        {
          "internalType": "uint256",
          "name": "",
          "type": "uint256"
        }
      ],
      "stateMutability": "pure",
      "type": "function"
    },
    {
      "inputs": [
        {
          "internalType": "uint256",
          "name": "searchFor",
          "type": "uint256"
        },
        {
          "internalType": "uint256[]",
          "name": "rejectedIps",
          "type": "uint256[]"
        }
      ],
      "name": "indexOfRejected",
      "outputs": [
        {
          "internalType": "uint256",
          "name": "",
          "type": "uint256"
        }
      ],
      "stateMutability": "pure",
      "type": "function"
    }
  ],
  "bytecode": "0x608060405234801561000f575f80fd5b50610ee38061001d5f395ff3fe608060405234801561000f575f80fd5b5060043610610086575f3560e01c80637ef1cd4b116100595780637ef1cd4b1461014a578063a28a34801461017a578063d25a84eb146101aa578063fc966d45146101da57610086565b806319d5880c1461008a57806321772a44146100ba57806332a5d170146100ea57806379cd90551461011a575b5f80fd5b6100a4600480360381019061009f91906108b4565b61020a565b6040516100b19190610928565b60405180910390f35b6100d460048036038101906100cf91906108b4565b6102af565b6040516100e19190610950565b60405180910390f35b61010460048036038101906100ff91906108b4565b610306565b6040516101119190610928565b60405180910390f35b610134600480360381019061012f9190610a19565b6103ab565b6040516101419190610950565b60405180910390f35b610164600480360381019061015f91906108b4565b61045d565b6040516101719190610928565b60405180910390f35b610194600480360381019061018f91906108b4565b610502565b6040516101a19190610950565b60405180910390f35b6101c460048036038101906101bf91906108b4565b610559565b6040516101d19190610950565b60405180910390f35b6101f460048036038101906101ef9190610a60565b6105b0565b6040516102019190610b05565b60405180910390f35b5f80600190505b82518110156102a4578360405160200161022b9190610b45565b6040516020818303038152906040528051906020012083828151811061025457610253610b5f565b5b602002602001015160405160200161026c9190610b45565b60405160208183030381529060405280519060200120036102915760019150506102a9565b808061029c90610bb9565b915050610211565b505f90505b92915050565b5f805f90505b82518110156102fb57838382815181106102d2576102d1610b5f565b5b6020026020010151036102e85780915050610300565b80806102f390610bb9565b9150506102b5565b508290505b92915050565b5f80600190505b82518110156103a057836040516020016103279190610b45565b604051602081830303815290604052805190602001208382815181106103505761034f610b5f565b5b60200260200101516040516020016103689190610b45565b604051602081830303815290604052805190602001200361038d5760019150506103a5565b808061039890610bb9565b91505061030d565b505f90505b92915050565b5f805f90505f8390505f5b8151811015610452575f8183516103cd9190610c00565b90505f8383815181106103e3576103e2610b5f565b5b602001015160f81c60f81b90505f8160f81c90505f60308260ff166104089190610c00565b90506001846104179190610c00565b600a6104239190610d62565b8161042e9190610dac565b876104399190610ded565b965050505050808061044a90610bb9565b9150506103b6565b508192505050919050565b5f80600190505b82518110156104f7578360405160200161047e9190610b45565b604051602081830303815290604052805190602001208382815181106104a7576104a6610b5f565b5b60200260200101516040516020016104bf9190610b45565b60405160208183030381529060405280519060200120036104e45760019150506104fc565b80806104ef90610bb9565b915050610464565b505f90505b92915050565b5f805f90505b825181101561054e578383828151811061052557610524610b5f565b5b60200260200101510361053b5780915050610553565b808061054690610bb9565b915050610508565b508290505b92915050565b5f805f90505b82518110156105a5578383828151811061057c5761057b610b5f565b5b60200260200101510361059257809150506105aa565b808061059d90610bb9565b91505061055f565b508290505b92915050565b60605f6105bc836105c7565b905080915050919050565b60605f820361060d576040518060400160405280600181526020017f3000000000000000000000000000000000000000000000000000000000000000815250905061071b565b5f8290505f5b5f821461063c57808061062590610bb9565b915050600a826106359190610e4d565b9150610613565b5f8167ffffffffffffffff81111561065757610656610778565b5b6040519080825280601f01601f1916602001820160405280156106895781602001600182028036833780820191505090505b5090505b5f8514610714576001826106a19190610c00565b9150600a856106b09190610e7d565b60306106bc9190610ded565b60f81b8183815181106106d2576106d1610b5f565b5b60200101907effffffffffffffffffffffffffffffffffffffffffffffffffffffffffffff191690815f1a905350600a8561070d9190610e4d565b945061068d565b8093505050505b919050565b5f604051905090565b5f80fd5b5f80fd5b5f819050919050565b61074381610731565b811461074d575f80fd5b50565b5f8135905061075e8161073a565b92915050565b5f80fd5b5f601f19601f8301169050919050565b7f4e487b71000000000000000000000000000000000000000000000000000000005f52604160045260245ffd5b6107ae82610768565b810181811067ffffffffffffffff821117156107cd576107cc610778565b5b80604052505050565b5f6107df610720565b90506107eb82826107a5565b919050565b5f67ffffffffffffffff82111561080a57610809610778565b5b602082029050602081019050919050565b5f80fd5b5f61083161082c846107f0565b6107d6565b905080838252602082019050602084028301858111156108545761085361081b565b5b835b8181101561087d57806108698882610750565b845260208401935050602081019050610856565b5050509392505050565b5f82601f83011261089b5761089a610764565b5b81356108ab84826020860161081f565b91505092915050565b5f80604083850312156108ca576108c9610729565b5b5f6108d785828601610750565b925050602083013567ffffffffffffffff8111156108f8576108f761072d565b5b61090485828601610887565b9150509250929050565b5f8115159050919050565b6109228161090e565b82525050565b5f60208201905061093b5f830184610919565b92915050565b61094a81610731565b82525050565b5f6020820190506109635f830184610941565b92915050565b5f80fd5b5f67ffffffffffffffff82111561098757610986610778565b5b61099082610768565b9050602081019050919050565b828183375f83830152505050565b5f6109bd6109b88461096d565b6107d6565b9050828152602081018484840111156109d9576109d8610969565b5b6109e484828561099d565b509392505050565b5f82601f830112610a00576109ff610764565b5b8135610a108482602086016109ab565b91505092915050565b5f60208284031215610a2e57610a2d610729565b5b5f82013567ffffffffffffffff811115610a4b57610a4a61072d565b5b610a57848285016109ec565b91505092915050565b5f60208284031215610a7557610a74610729565b5b5f610a8284828501610750565b91505092915050565b5f81519050919050565b5f82825260208201905092915050565b5f5b83811015610ac2578082015181840152602081019050610aa7565b5f8484015250505050565b5f610ad782610a8b565b610ae18185610a95565b9350610af1818560208601610aa5565b610afa81610768565b840191505092915050565b5f6020820190508181035f830152610b1d8184610acd565b905092915050565b5f819050919050565b610b3f610b3a82610731565b610b25565b82525050565b5f610b508284610b2e565b60208201915081905092915050565b7f4e487b71000000000000000000000000000000000000000000000000000000005f52603260045260245ffd5b7f4e487b71000000000000000000000000000000000000000000000000000000005f52601160045260245ffd5b5f610bc382610731565b91507fffffffffffffffffffffffffffffffffffffffffffffffffffffffffffffffff8203610bf557610bf4610b8c565b5b600182019050919050565b5f610c0a82610731565b9150610c1583610731565b9250828203905081811115610c2d57610c2c610b8c565b5b92915050565b5f8160011c9050919050565b5f808291508390505b6001851115610c8857808604811115610c6457610c63610b8c565b5b6001851615610c735780820291505b8081029050610c8185610c33565b9450610c48565b94509492505050565b5f82610ca05760019050610d5b565b81610cad575f9050610d5b565b8160018114610cc35760028114610ccd57610cfc565b6001915050610d5b565b60ff841115610cdf57610cde610b8c565b5b8360020a915084821115610cf657610cf5610b8c565b5b50610d5b565b5060208310610133831016604e8410600b8410161715610d315782820a905083811115610d2c57610d2b610b8c565b5b610d5b565b610d3e8484846001610c3f565b92509050818404811115610d5557610d54610b8c565b5b81810290505b9392505050565b5f610d6c82610731565b9150610d7783610731565b9250610da47fffffffffffffffffffffffffffffffffffffffffffffffffffffffffffffffff8484610c91565b905092915050565b5f610db682610731565b9150610dc183610731565b9250828202610dcf81610731565b91508282048414831517610de657610de5610b8c565b5b5092915050565b5f610df782610731565b9150610e0283610731565b9250828201905080821115610e1a57610e19610b8c565b5b92915050565b7f4e487b71000000000000000000000000000000000000000000000000000000005f52601260045260245ffd5b5f610e5782610731565b9150610e6283610731565b925082610e7257610e71610e20565b5b828204905092915050565b5f610e8782610731565b9150610e9283610731565b925082610ea257610ea1610e20565b5b82820690509291505056fea26469706673582212203645b6f9d656252a8223ae1f166a4f994c47c7d3618a3f9ffe7e714296ed60d264736f6c63430008140033",
  "immutableReferences": {},
  "source": "//Contract based on [https://docs.openzeppelin.com/contracts/3.x/erc721](https://docs.openzeppelin.com/contracts/3.x/erc721)\r\n// SPDX-License-Identifier: MIT\r\n\r\npragma solidity ^0.8.1;\r\nimport \"hardhat/console.sol\";\r\nimport \"@openzeppelin/contracts/utils/Strings.sol\";\r\n\r\ncontract convert {\r\n\r\n    function st2num(string memory numString) public pure returns(uint) {\r\n          uint  val=0;\r\n          bytes   memory stringBytes = bytes(numString);\r\n          for (uint  i =  0; i<stringBytes.length; i++) {\r\n              uint exp = stringBytes.length - i;\r\n              bytes1 ival = stringBytes[i];\r\n              uint8 uval = uint8(ival);\r\n            uint jval = uval - uint(0x30);\r\n    \r\n            val +=  (uint(jval) * (10**(exp-1))); \r\n          }\r\n          return val;\r\n    }\r\n\r\n    function uintToStr(uint _i) public pure returns (string memory _stringValue) {\r\n       string memory res = Strings.toString(_i);\r\n       return res;\r\n    }\r\n\r\n    function addressExistAccept(uint searchFor, uint[] memory acceptedIps) public pure returns (bool) {\r\n    for (uint i = 1; i < acceptedIps.length; i++) {\r\n        if (keccak256(abi.encodePacked(acceptedIps[i])) == keccak256(abi.encodePacked(searchFor))) {\r\n              return true;\r\n         }\r\n    }  \r\n        return false;\r\n    }\r\n\r\n    function addressExistPend(uint searchFor, uint[] memory pendingIps) public pure returns (bool) {\r\n    for (uint i = 1; i < pendingIps.length; i++) {\r\n        if (keccak256(abi.encodePacked(pendingIps[i])) == keccak256(abi.encodePacked(searchFor))) {\r\n            return true;\r\n        }\r\n    }   \r\n        return false; // not found\r\n    }\r\n\r\n    function addressExistReject(uint searchFor, uint[] memory rejectedIps) public pure returns (bool) {\r\n    for (uint256 i = 1; i < rejectedIps.length; i++) {\r\n        if (keccak256(abi.encodePacked(rejectedIps[i])) == keccak256(abi.encodePacked(searchFor))) {\r\n            return true;\r\n        }\r\n    } \r\n        return false;\r\n    }\r\n       \r\n    function indexOfAccepted(uint searchFor, uint[] memory acceptedIps) public pure returns (uint256) {\r\n    for (uint i = 0; i < acceptedIps.length; i++) {\r\n        if (acceptedIps[i] == searchFor) {\r\n           return i;\r\n         }\r\n    }  \r\n        return searchFor;\r\n    }\r\n  \r\n    function indexOfPending(uint searchFor, uint[] memory pendingIps) public pure returns (uint256) {\r\n    for (uint i = 0; i < pendingIps.length; i++) {\r\n        if (pendingIps[i] == searchFor) {\r\n           return i;\r\n        }\r\n    }  \r\n    return searchFor;\r\n    }\r\n\r\n    function indexOfRejected(uint searchFor, uint[] memory rejectedIps) public pure returns (uint256) {\r\n    for (uint256 i = 0; i < rejectedIps.length; i++) {\r\n        if (rejectedIps[i] == searchFor) {\r\n            return i;\r\n        }\r\n    }  \r\n    return searchFor;\r\n    }\r\n\r\n}",
  "sourcePath": "C:\\Users\\Moksh Aithandla\\Intellectual-Identity-ethereum\\smart_contract\\contracts\\Convert.sol",
  "compiler": {
    "name": "solc",
    "version": "0.8.20+commit.a1b79de6.Emscripten.clang"
  },
  "schemaVersion": "3.4.16",
  "updatedAt": "2025-03-20T15:10:16.322Z",
  "devdoc": {
    "kind": "dev",
    "methods": {},
    "version": 1
  },
  "userdoc": {
    "kind": "user",
    "methods": {},
    "version": 1
  }
}