{
  "contractName": "Ipbidder",
  "abi": [
    {
      "inputs": [],
      "stateMutability": "nonpayable",
      "type": "constructor"
    },
    {
      "anonymous": false,
      "inputs": [
        {
          "indexed": false,
          "internalType": "uint256",
          "name": "tokenId",
          "type": "uint256"
        },
        {
          "indexed": false,
          "internalType": "address",
          "name": "bidder",
          "type": "address"
        },
        {
          "indexed": false,
          "internalType": "uint256",
          "name": "bidValue",
          "type": "uint256"
        }
      ],
      "name": "BidAccepted",
      "type": "event"
    },
    {
      "anonymous": false,
      "inputs": [
        {
          "indexed": false,
          "internalType": "address",
          "name": "sender",
          "type": "address"
        },
        {
          "indexed": false,
          "internalType": "uint256",
          "name": "amount",
          "type": "uint256"
        },
        {
          "indexed": false,
          "internalType": "uint256",
          "name": "tokenId",
          "type": "uint256"
        }
      ],
      "name": "LogReceivedFunds",
      "type": "event"
    },
    {
      "anonymous": false,
      "inputs": [
        {
          "indexed": false,
          "internalType": "address",
          "name": "recipient",
          "type": "address"
        },
        {
          "indexed": false,
          "internalType": "uint256",
          "name": "amount",
          "type": "uint256"
        },
        {
          "indexed": false,
          "internalType": "uint256",
          "name": "tokenId",
          "type": "uint256"
        }
      ],
      "name": "LogReturnedFunds",
      "type": "event"
    },
    {
      "inputs": [
        {
          "internalType": "uint256",
          "name": "",
          "type": "uint256"
        },
        {
          "internalType": "address",
          "name": "",
          "type": "address"
        }
      ],
      "name": "bid",
      "outputs": [
        {
          "internalType": "uint256",
          "name": "",
          "type": "uint256"
        }
      ],
      "stateMutability": "view",
      "type": "function"
    },
    {
      "inputs": [],
      "name": "bidCount",
      "outputs": [
        {
          "internalType": "uint256",
          "name": "",
          "type": "uint256"
        }
      ],
      "stateMutability": "view",
      "type": "function"
    },
    {
      "inputs": [
        {
          "internalType": "address",
          "name": "",
          "type": "address"
        }
      ],
      "name": "hasBid",
      "outputs": [
        {
          "internalType": "bool",
          "name": "",
          "type": "bool"
        }
      ],
      "stateMutability": "view",
      "type": "function"
    },
    {
      "inputs": [
        {
          "internalType": "uint256",
          "name": "",
          "type": "uint256"
        },
        {
          "internalType": "uint256",
          "name": "",
          "type": "uint256"
        }
      ],
      "name": "ipbidders",
      "outputs": [
        {
          "internalType": "uint256",
          "name": "tokenID",
          "type": "uint256"
        },
        {
          "internalType": "address",
          "name": "owneraddress",
          "type": "address"
        },
        {
          "internalType": "string",
          "name": "ownerIPname",
          "type": "string"
        },
        {
          "internalType": "uint256",
          "name": "bidValue",
          "type": "uint256"
        },
        {
          "internalType": "address",
          "name": "bidderAddress",
          "type": "address"
        },
        {
          "internalType": "bool",
          "name": "bidAccepted",
          "type": "bool"
        },
        {
          "internalType": "uint256",
          "name": "timestamp",
          "type": "uint256"
        }
      ],
      "stateMutability": "view",
      "type": "function"
    },
    {
      "inputs": [
        {
          "internalType": "uint256",
          "name": "tokenId",
          "type": "uint256"
        },
        {
          "internalType": "address",
          "name": "_owneraddress",
          "type": "address"
        },
        {
          "internalType": "string",
          "name": "_ownerIPname",
          "type": "string"
        }
      ],
      "name": "placeBid",
      "outputs": [],
      "stateMutability": "payable",
      "type": "function"
    },
    {
      "inputs": [
        {
          "internalType": "uint256",
          "name": "tokenId",
          "type": "uint256"
        },
        {
          "internalType": "uint256",
          "name": "bidIndex",
          "type": "uint256"
        }
      ],
      "name": "acceptBid",
      "outputs": [],
      "stateMutability": "nonpayable",
      "type": "function"
    },
    {
      "inputs": [
        {
          "internalType": "uint256",
          "name": "tokenId",
          "type": "uint256"
        }
      ],
      "name": "refundBid",
      "outputs": [],
      "stateMutability": "nonpayable",
      "type": "function"
    },
    {
      "inputs": [
        {
          "internalType": "uint256",
          "name": "tokenId",
          "type": "uint256"
        }
      ],
      "name": "getBidsForToken",
      "outputs": [
        {
          "components": [
            {
              "internalType": "uint256",
              "name": "tokenID",
              "type": "uint256"
            },
            {
              "internalType": "address",
              "name": "owneraddress",
              "type": "address"
            },
            {
              "internalType": "string",
              "name": "ownerIPname",
              "type": "string"
            },
            {
              "internalType": "uint256",
              "name": "bidValue",
              "type": "uint256"
            },
            {
              "internalType": "address",
              "name": "bidderAddress",
              "type": "address"
            },
            {
              "internalType": "bool",
              "name": "bidAccepted",
              "type": "bool"
            },
            {
              "internalType": "uint256",
              "name": "timestamp",
              "type": "uint256"
            }
          ],
          "internalType": "struct Ipbidder.IPownerBidders[]",
          "name": "",
          "type": "tuple[]"
        }
      ],
      "stateMutability": "view",
      "type": "function"
    },
    {
      "inputs": [],
      "name": "getMyBids",
      "outputs": [
        {
          "components": [
            {
              "internalType": "uint256",
              "name": "tokenID",
              "type": "uint256"
            },
            {
              "internalType": "address",
              "name": "owneraddress",
              "type": "address"
            },
            {
              "internalType": "string",
              "name": "ownerIPname",
              "type": "string"
            },
            {
              "internalType": "uint256",
              "name": "bidValue",
              "type": "uint256"
            },
            {
              "internalType": "address",
              "name": "bidderAddress",
              "type": "address"
            },
            {
              "internalType": "bool",
              "name": "bidAccepted",
              "type": "bool"
            },
            {
              "internalType": "uint256",
              "name": "timestamp",
              "type": "uint256"
            }
          ],
          "internalType": "struct Ipbidder.IPownerBidders[]",
          "name": "",
          "type": "tuple[]"
        }
      ],
      "stateMutability": "view",
      "type": "function"
    }
  ],
  "bytecode": "0x608060405234801561001057600080fd5b506001600055611192806100256000396000f3fe6080604052600436106100865760003560e01c8063788077a711610059578063788077a7146101165780639f04996d1461012b578063b40a562714610158578063d2639dbf1461016d578063ecb80b621461019a57610086565b806302e9d5e41461008b578063202869fe146100ad57806322f901fb146100e357806326d29ce0146100f6575b600080fd5b34801561009757600080fd5b506100ab6100a6366004610dec565b6101cd565b005b3480156100b957600080fd5b506100cd6100c8366004610ce3565b610361565b6040516100da9190610e79565b60405180910390f35b6100ab6100f1366004610d26565b6104c5565b34801561010257600080fd5b506100ab610111366004610ce3565b610681565b34801561012257600080fd5b506100cd610741565b34801561013757600080fd5b5061014b610146366004610cfb565b610a8a565b6040516100da919061104b565b34801561016457600080fd5b5061014b610aa7565b34801561017957600080fd5b5061018d610188366004610cc2565b610aad565b6040516100da9190610f34565b3480156101a657600080fd5b506101ba6101b5366004610dec565b610ac2565b6040516100da9796959493929190611054565b60008281526001602052604090205481106102035760405162461bcd60e51b81526004016101fa9061101f565b60405180910390fd5b600082815260016020526040812080548390811061023157634e487b7160e01b600052603260045260246000fd5b6000918252602090912060069091020160018101549091506001600160a01b031633146102705760405162461bcd60e51b81526004016101fa90610f3f565b6004810154600160a01b900460ff161561029c5760405162461bcd60e51b81526004016101fa90610f81565b60048101805460ff60a01b1916600160a01b179081905560008481526002602090815260408083206001600160a01b03948516845290915280822082905560018401546003850154915193169281156108fc0292818181858888f1935050505015801561030d573d6000803e3d6000fd5b50600481015460038201546040517f91a721693afff25f233ac308edbd2fa15ad7d4dfacdd164dd4e8c57ab72f4ae9926103549287926001600160a01b03909216916110a3565b60405180910390a1505050565b606060016000838152602001908152602001600020805480602002602001604051908101604052809291908181526020016000905b828210156104b95760008481526020908190206040805160e081018252600686029092018054835260018101546001600160a01b031693830193909352600283018054929392918401916103e9906110da565b80601f0160208091040260200160405190810160405280929190818152602001828054610415906110da565b80156104625780601f1061043757610100808354040283529160200191610462565b820191906000526020600020905b81548152906001019060200180831161044557829003601f168201915b5050509183525050600382015460208083019190915260048301546001600160a01b0381166040840152600160a01b900460ff16151560608301526005909201546080909101529082526001929092019101610396565b5050505090505b919050565b600034116104e55760405162461bcd60e51b81526004016101fa90610fdb565b60008381526002602090815260408083203384529091528120805434929061050e9084906110c2565b90915550506000838152600160208181526040808420815160e0810183528881526001600160a01b038881168286019081528285018981528b89526002808852868a2033808c52908952968a20546060860152608085019690965260a084018990524260c0850152845480890186559489529786902083516006909502019384555195830180546001600160a01b0319169690911695909517909455935180519394936105c393928501929190910190610bc1565b506060820151600380830191909155608083015160048301805460a08601511515600160a01b0260ff60a01b196001600160a01b039094166001600160a01b0319909216919091179290921691909117905560c09092015160059091015533600090815260209190915260408120805460ff191660011790558054908061064983611115565b91905055507fc908711429f50dfb4857b1825611e20e07a112f755b5fa4e57673bdc4370ed6933348560405161035493929190610e58565b60008181526002602090815260408083203384529091529020546106b75760405162461bcd60e51b81526004016101fa90610fb0565b6000818152600260209081526040808320338085529252808320805490849055905190926108fc841502918491818181858888f19350505050158015610701573d6000803e3d6000fd5b507faadec2775b72354a5de4ac8fb7fd3b34e186d9b5a65e8ab384cc4cc67e6e851e33828460405161073593929190610e58565b60405180910390a15050565b600080546060919060015b818110156107f657600081815260016020526040812054905b818110156107e157600083815260016020526040902080543391908390811061079e57634e487b7160e01b600052603260045260246000fd5b60009182526020909120600460069092020101546001600160a01b031614156107cf57846107cb81611115565b9550505b806107d981611115565b915050610765565b505080806107ee90611115565b91505061074c565b5060008267ffffffffffffffff81111561082057634e487b7160e01b600052604160045260246000fd5b60405190808252806020026020018201604052801561085957816020015b610846610c45565b81526020019060019003908161083e5790505b509050600060015b83811015610a8057600081815260016020526040812054905b81811015610a6b5760008381526001602052604090208054339190839081106108b357634e487b7160e01b600052603260045260246000fd5b60009182526020909120600460069092020101546001600160a01b03161415610a5957600083815260016020526040902080548290811061090457634e487b7160e01b600052603260045260246000fd5b90600052602060002090600602016040518060e0016040529081600082015481526020016001820160009054906101000a90046001600160a01b03166001600160a01b03166001600160a01b03168152602001600282018054610966906110da565b80601f0160208091040260200160405190810160405280929190818152602001828054610992906110da565b80156109df5780601f106109b4576101008083540402835291602001916109df565b820191906000526020600020905b8154815290600101906020018083116109c257829003601f168201915b50505091835250506003820154602082015260048201546001600160a01b0381166040830152600160a01b900460ff16151560608201526005909101546080909101528585610a2d81611115565b965081518110610a4d57634e487b7160e01b600052603260045260246000fd5b60200260200101819052505b80610a6381611115565b91505061087a565b50508080610a7890611115565b915050610861565b5090935050505090565b600260209081526000928352604080842090915290825290205481565b60005481565b60036020526000908152604090205460ff1681565b60016020528160005260406000208181548110610ade57600080fd5b60009182526020909120600690910201805460018201546002830180549295506001600160a01b03909116935090610b15906110da565b80601f0160208091040260200160405190810160405280929190818152602001828054610b41906110da565b8015610b8e5780601f10610b6357610100808354040283529160200191610b8e565b820191906000526020600020905b815481529060010190602001808311610b7157829003601f168201915b5050505060038301546004840154600590940154929390926001600160a01b0382169250600160a01b90910460ff169087565b828054610bcd906110da565b90600052602060002090601f016020900481019282610bef5760008555610c35565b82601f10610c0857805160ff1916838001178555610c35565b82800160010185558215610c35579182015b82811115610c35578251825591602001919060010190610c1a565b50610c41929150610c96565b5090565b6040518060e001604052806000815260200160006001600160a01b03168152602001606081526020016000815260200160006001600160a01b03168152602001600015158152602001600081525090565b5b80821115610c415760008155600101610c97565b80356001600160a01b03811681146104c057600080fd5b600060208284031215610cd3578081fd5b610cdc82610cab565b9392505050565b600060208284031215610cf4578081fd5b5035919050565b60008060408385031215610d0d578081fd5b82359150610d1d60208401610cab565b90509250929050565b600080600060608486031215610d3a578081fd5b83359250610d4a60208501610cab565b9150604084013567ffffffffffffffff80821115610d66578283fd5b818601915086601f830112610d79578283fd5b813581811115610d8b57610d8b611146565b604051601f8201601f19908116603f01168101908382118183101715610db357610db3611146565b81604052828152896020848701011115610dcb578586fd5b82602086016020830137856020848301015280955050505050509250925092565b60008060408385031215610dfe578182fd5b50508035926020909101359150565b60008151808452815b81811015610e3257602081850181015186830182015201610e16565b81811115610e435782602083870101525b50601f01601f19169290920160200192915050565b6001600160a01b039390931683526020830191909152604082015260600190565b60208082528251828201819052600091906040908185019080840286018301878501865b83811015610f2657888303603f19018552815180518452878101516001600160a01b03908116898601528782015160e089870181905291610ee083880183610e0d565b606085810151908901526080808601519092169188019190915260a08085015115159088015260c093840151939096019290925250509386019390860190600101610e9d565b509098975050505050505050565b901515815260200190565b60208082526022908201527f4f6e6c7920746865204950206f776e65722063616e2061636365707420626964604082015261399760f11b606082015260800190565b6020808252601590820152742134b21030b63932b0b23c9030b1b1b2b83a32b21760591b604082015260600190565b6020808252601190820152702737903134b2103a37903932b33ab7321760791b604082015260600190565b60208082526024908201527f4269642076616c7565206d7573742062652067726561746572207468616e207a60408201526332b9379760e11b606082015260800190565b60208082526012908201527124b73b30b634b2103134b21034b73232bc1760711b604082015260600190565b90815260200190565b600088825260018060a01b03808916602084015260e0604084015261107c60e0840189610e0d565b606084019790975294909416608082015291151560a083015260c090910152509392505050565b9283526001600160a01b03919091166020830152604082015260600190565b600082198211156110d5576110d5611130565b500190565b6002810460018216806110ee57607f821691505b6020821081141561110f57634e487b7160e01b600052602260045260246000fd5b50919050565b600060001982141561112957611129611130565b5060010190565b634e487b7160e01b600052601160045260246000fd5b634e487b7160e01b600052604160045260246000fdfea26469706673582212205a4417cf1eb88953566b9b86899122915d47437287ff9650358adc41f6ec2e4d64736f6c63430008010033",
  "immutableReferences": {},
  "source": "// SPDX-License-Identifier: GPL-3.0\r\npragma solidity ^0.8.1;\r\nimport \"hardhat/console.sol\";\r\n\r\ncontract Ipbidder {\r\n    uint public bidCount;\r\n\r\n    struct IPownerBidders {\r\n        uint256 tokenID;\r\n        address owneraddress;\r\n        string ownerIPname;\r\n        uint bidValue;\r\n        address bidderAddress;\r\n        bool bidAccepted;\r\n        uint256 timestamp;\r\n    }\r\n\r\n    mapping(uint256 => IPownerBidders[]) public ipbidders;\r\n    mapping(uint256 => mapping(address => uint256)) public bid;\r\n    mapping(address => bool) public hasBid;\r\n\r\n    event LogReceivedFunds(address sender, uint amount, uint tokenId);\r\n    event LogReturnedFunds(address recipient, uint amount, uint tokenId);\r\n    event BidAccepted(uint256 tokenId, address bidder, uint256 bidValue);\r\n    \r\n    constructor() {\r\n        bidCount = 1;\r\n    }\r\n\r\n    function placeBid(uint256 tokenId, address _owneraddress, string memory _ownerIPname) external payable {\r\n        require(msg.value > 0, \"Bid value must be greater than zero.\");\r\n        \r\n        bid[tokenId][msg.sender] += msg.value;\r\n        ipbidders[tokenId].push(IPownerBidders(\r\n            tokenId,\r\n            _owneraddress,\r\n            _ownerIPname,\r\n            bid[tokenId][msg.sender],\r\n            msg.sender,\r\n            false,\r\n            block.timestamp\r\n        ));\r\n\r\n        hasBid[msg.sender] = true;\r\n        bidCount++; //  Increment bid count\r\n        emit LogReceivedFunds(msg.sender, msg.value, tokenId);\r\n    }\r\n\r\n    function acceptBid(uint256 tokenId, uint256 bidIndex) external {\r\n        require(ipbidders[tokenId].length > bidIndex, \"Invalid bid index.\");\r\n        IPownerBidders storage selectedBid = ipbidders[tokenId][bidIndex];\r\n        require(msg.sender == selectedBid.owneraddress, \"Only the IP owner can accept bids.\");\r\n        require(!selectedBid.bidAccepted, \"Bid already accepted.\");\r\n\r\n        selectedBid.bidAccepted = true;\r\n        bid[tokenId][selectedBid.bidderAddress] = 0; //  Reset bid before transferring\r\n\r\n        payable(selectedBid.owneraddress).transfer(selectedBid.bidValue); //  Safe ETH transfer\r\n        emit BidAccepted(tokenId, selectedBid.bidderAddress, selectedBid.bidValue);\r\n    }\r\n\r\n    function refundBid(uint256 tokenId) external {\r\n        require(bid[tokenId][msg.sender] > 0, \"No bid to refund.\");\r\n        \r\n        uint256 refundAmount = bid[tokenId][msg.sender];\r\n        bid[tokenId][msg.sender] = 0; //  Prevent reentrancy\r\n\r\n        payable(msg.sender).transfer(refundAmount); \r\n        emit LogReturnedFunds(msg.sender, refundAmount, tokenId);\r\n    }\r\n\r\n    function getBidsForToken(uint256 tokenId) external view returns (IPownerBidders[] memory) {\r\n        return ipbidders[tokenId];\r\n    }\r\n\r\n    function getMyBids() external view returns (IPownerBidders[] memory) {\r\n        uint256 count = 0;\r\n        uint256 totalTokens = bidCount;\r\n\r\n        for (uint256 i = 1; i < totalTokens; i++) {\r\n            uint256 len = ipbidders[i].length;\r\n            for (uint256 j = 0; j < len; j++) {\r\n                if (ipbidders[i][j].bidderAddress == msg.sender) {\r\n                    count++;\r\n                }\r\n            }\r\n        }\r\n\r\n        IPownerBidders[] memory myBids = new IPownerBidders[](count);\r\n        uint256 index = 0;\r\n\r\n        for (uint256 i = 1; i < totalTokens; i++) {\r\n            uint256 len = ipbidders[i].length;\r\n            for (uint256 j = 0; j < len; j++) {\r\n                if (ipbidders[i][j].bidderAddress == msg.sender) {\r\n                    myBids[index++] = ipbidders[i][j];\r\n                }\r\n            }\r\n        }\r\n\r\n        return myBids;\r\n    }\r\n}\r\n",
  "sourcePath": "P:\\IPR-Management\\smart_contract\\contracts\\Ipbidder.sol",
  "compiler": {
    "name": "solc",
    "version": "0.8.1+commit.df193b15.Emscripten.clang"
  },
  "schemaVersion": "3.4.16",
  "updatedAt": "2025-04-22T09:46:07.199Z",
  "devdoc": {
    "kind": "dev",
    "methods": {},
    "version": 1
  },
  "userdoc": {
    "kind": "user",
    "methods": {},
    "version": 1
  }
}