{
  "contractName": "Ipbidder",
  "abi": [
    {
      "inputs": [],
      "stateMutability": "nonpayable",
      "type": "constructor"
    },
    {
      "anonymous": false,
      "inputs": [
        {
          "indexed": false,
          "internalType": "uint256",
          "name": "tokenId",
          "type": "uint256"
        },
        {
          "indexed": false,
          "internalType": "address",
          "name": "bidder",
          "type": "address"
        },
        {
          "indexed": false,
          "internalType": "uint256",
          "name": "bidValue",
          "type": "uint256"
        }
      ],
      "name": "BidAccepted",
      "type": "event"
    },
    {
      "anonymous": false,
      "inputs": [
        {
          "indexed": false,
          "internalType": "address",
          "name": "sender",
          "type": "address"
        },
        {
          "indexed": false,
          "internalType": "uint256",
          "name": "amount",
          "type": "uint256"
        },
        {
          "indexed": false,
          "internalType": "uint256",
          "name": "tokenId",
          "type": "uint256"
        }
      ],
      "name": "LogReceivedFunds",
      "type": "event"
    },
    {
      "anonymous": false,
      "inputs": [
        {
          "indexed": false,
          "internalType": "address",
          "name": "recipient",
          "type": "address"
        },
        {
          "indexed": false,
          "internalType": "uint256",
          "name": "amount",
          "type": "uint256"
        },
        {
          "indexed": false,
          "internalType": "uint256",
          "name": "tokenId",
          "type": "uint256"
        }
      ],
      "name": "LogReturnedFunds",
      "type": "event"
    },
    {
      "inputs": [
        {
          "internalType": "uint256",
          "name": "",
          "type": "uint256"
        },
        {
          "internalType": "address",
          "name": "",
          "type": "address"
        }
      ],
      "name": "bid",
      "outputs": [
        {
          "internalType": "uint256",
          "name": "",
          "type": "uint256"
        }
      ],
      "stateMutability": "view",
      "type": "function"
    },
    {
      "inputs": [],
      "name": "bidCount",
      "outputs": [
        {
          "internalType": "uint256",
          "name": "",
          "type": "uint256"
        }
      ],
      "stateMutability": "view",
      "type": "function"
    },
    {
      "inputs": [
        {
          "internalType": "address",
          "name": "",
          "type": "address"
        }
      ],
      "name": "hasBid",
      "outputs": [
        {
          "internalType": "bool",
          "name": "",
          "type": "bool"
        }
      ],
      "stateMutability": "view",
      "type": "function"
    },
    {
      "inputs": [
        {
          "internalType": "uint256",
          "name": "",
          "type": "uint256"
        },
        {
          "internalType": "uint256",
          "name": "",
          "type": "uint256"
        }
      ],
      "name": "ipbidders",
      "outputs": [
        {
          "internalType": "uint256",
          "name": "tokenID",
          "type": "uint256"
        },
        {
          "internalType": "address",
          "name": "owneraddress",
          "type": "address"
        },
        {
          "internalType": "string",
          "name": "ownerIPname",
          "type": "string"
        },
        {
          "internalType": "uint256",
          "name": "bidValue",
          "type": "uint256"
        },
        {
          "internalType": "address",
          "name": "bidderAddress",
          "type": "address"
        },
        {
          "internalType": "bool",
          "name": "bidAccepted",
          "type": "bool"
        },
        {
          "internalType": "uint256",
          "name": "timestamp",
          "type": "uint256"
        }
      ],
      "stateMutability": "view",
      "type": "function"
    },
    {
      "inputs": [
        {
          "internalType": "uint256",
          "name": "tokenId",
          "type": "uint256"
        },
        {
          "internalType": "address",
          "name": "_owneraddress",
          "type": "address"
        },
        {
          "internalType": "string",
          "name": "_ownerIPname",
          "type": "string"
        }
      ],
      "name": "placeBid",
      "outputs": [],
      "stateMutability": "payable",
      "type": "function"
    },
    {
      "inputs": [
        {
          "internalType": "uint256",
          "name": "tokenId",
          "type": "uint256"
        },
        {
          "internalType": "uint256",
          "name": "bidIndex",
          "type": "uint256"
        }
      ],
      "name": "acceptBid",
      "outputs": [],
      "stateMutability": "nonpayable",
      "type": "function"
    },
    {
      "inputs": [
        {
          "internalType": "uint256",
          "name": "tokenId",
          "type": "uint256"
        }
      ],
      "name": "refundBid",
      "outputs": [],
      "stateMutability": "nonpayable",
      "type": "function"
    },
    {
      "inputs": [
        {
          "internalType": "uint256",
          "name": "tokenId",
          "type": "uint256"
        }
      ],
      "name": "getBidsForToken",
      "outputs": [
        {
          "components": [
            {
              "internalType": "uint256",
              "name": "tokenID",
              "type": "uint256"
            },
            {
              "internalType": "address",
              "name": "owneraddress",
              "type": "address"
            },
            {
              "internalType": "string",
              "name": "ownerIPname",
              "type": "string"
            },
            {
              "internalType": "uint256",
              "name": "bidValue",
              "type": "uint256"
            },
            {
              "internalType": "address",
              "name": "bidderAddress",
              "type": "address"
            },
            {
              "internalType": "bool",
              "name": "bidAccepted",
              "type": "bool"
            },
            {
              "internalType": "uint256",
              "name": "timestamp",
              "type": "uint256"
            }
          ],
          "internalType": "struct Ipbidder.IPownerBidders[]",
          "name": "",
          "type": "tuple[]"
        }
      ],
      "stateMutability": "view",
      "type": "function"
    },
    {
      "inputs": [],
      "name": "getMyBids",
      "outputs": [
        {
          "components": [
            {
              "internalType": "uint256",
              "name": "tokenID",
              "type": "uint256"
            },
            {
              "internalType": "address",
              "name": "owneraddress",
              "type": "address"
            },
            {
              "internalType": "string",
              "name": "ownerIPname",
              "type": "string"
            },
            {
              "internalType": "uint256",
              "name": "bidValue",
              "type": "uint256"
            },
            {
              "internalType": "address",
              "name": "bidderAddress",
              "type": "address"
            },
            {
              "internalType": "bool",
              "name": "bidAccepted",
              "type": "bool"
            },
            {
              "internalType": "uint256",
              "name": "timestamp",
              "type": "uint256"
            }
          ],
          "internalType": "struct Ipbidder.IPownerBidders[]",
          "name": "",
          "type": "tuple[]"
        }
      ],
      "stateMutability": "view",
      "type": "function"
    }
  ],
  "bytecode": "0x608060405234801561000f575f80fd5b5060015f81905550611e75806100245f395ff3fe608060405260043610610085575f3560e01c8063788077a711610058578063788077a7146101315780639f04996d1461015b578063b40a562714610197578063d2639dbf146101c1578063ecb80b62146101fd57610085565b806302e9d5e414610089578063202869fe146100b157806322f901fb146100ed57806326d29ce014610109575b5f80fd5b348015610094575f80fd5b506100af60048036038101906100aa91906111cf565b61023f565b005b3480156100bc575f80fd5b506100d760048036038101906100d2919061120d565b61050d565b6040516100e4919061147e565b60405180910390f35b610107600480360381019061010291906115f4565b6106ec565b005b348015610114575f80fd5b5061012f600480360381019061012a919061120d565b6109ff565b005b34801561013c575f80fd5b50610145610bb1565b604051610152919061147e565b60405180910390f35b348015610166575f80fd5b50610181600480360381019061017c9190611660565b610fbb565b60405161018e91906116ad565b60405180910390f35b3480156101a2575f80fd5b506101ab610fdb565b6040516101b891906116ad565b60405180910390f35b3480156101cc575f80fd5b506101e760048036038101906101e291906116c6565b610fe0565b6040516101f49190611700565b60405180910390f35b348015610208575f80fd5b50610223600480360381019061021e91906111cf565b610ffd565b6040516102369796959493929190611770565b60405180910390f35b8060015f8481526020019081526020015f208054905011610295576040517f08c379a000000000000000000000000000000000000000000000000000000000815260040161028c9061182e565b60405180910390fd5b5f60015f8481526020019081526020015f2082815481106102b9576102b861184c565b5b905f5260205f2090600602019050806001015f9054906101000a900473ffffffffffffffffffffffffffffffffffffffff1673ffffffffffffffffffffffffffffffffffffffff163373ffffffffffffffffffffffffffffffffffffffff1614610358576040517f08c379a000000000000000000000000000000000000000000000000000000000815260040161034f906118e9565b60405180910390fd5b8060040160149054906101000a900460ff16156103aa576040517f08c379a00000000000000000000000000000000000000000000000000000000081526004016103a190611951565b60405180910390fd5b60018160040160146101000a81548160ff0219169083151502179055505f60025f8581526020019081526020015f205f836004015f9054906101000a900473ffffffffffffffffffffffffffffffffffffffff1673ffffffffffffffffffffffffffffffffffffffff1673ffffffffffffffffffffffffffffffffffffffff1681526020019081526020015f2081905550806001015f9054906101000a900473ffffffffffffffffffffffffffffffffffffffff1673ffffffffffffffffffffffffffffffffffffffff166108fc826003015490811502906040515f60405180830381858888f193505050501580156104a5573d5f803e3d5ffd5b507f91a721693afff25f233ac308edbd2fa15ad7d4dfacdd164dd4e8c57ab72f4ae983826004015f9054906101000a900473ffffffffffffffffffffffffffffffffffffffff1683600301546040516105009392919061196f565b60405180910390a1505050565b606060015f8381526020019081526020015f20805480602002602001604051908101604052809291908181526020015f905b828210156106e1578382905f5260205f2090600602016040518060e00160405290815f8201548152602001600182015f9054906101000a900473ffffffffffffffffffffffffffffffffffffffff1673ffffffffffffffffffffffffffffffffffffffff1673ffffffffffffffffffffffffffffffffffffffff1681526020016002820180546105ce906119d1565b80601f01602080910402602001604051908101604052809291908181526020018280546105fa906119d1565b80156106455780601f1061061c57610100808354040283529160200191610645565b820191905f5260205f20905b81548152906001019060200180831161062857829003601f168201915b5050505050815260200160038201548152602001600482015f9054906101000a900473ffffffffffffffffffffffffffffffffffffffff1673ffffffffffffffffffffffffffffffffffffffff1673ffffffffffffffffffffffffffffffffffffffff1681526020016004820160149054906101000a900460ff161515151581526020016005820154815250508152602001906001019061053f565b505050509050919050565b5f341161072e576040517f08c379a000000000000000000000000000000000000000000000000000000000815260040161072590611a71565b60405180910390fd5b3460025f8581526020019081526020015f205f3373ffffffffffffffffffffffffffffffffffffffff1673ffffffffffffffffffffffffffffffffffffffff1681526020019081526020015f205f8282546107899190611abc565b9250508190555060015f8481526020019081526020015f206040518060e001604052808581526020018473ffffffffffffffffffffffffffffffffffffffff16815260200183815260200160025f8781526020019081526020015f205f3373ffffffffffffffffffffffffffffffffffffffff1673ffffffffffffffffffffffffffffffffffffffff1681526020019081526020015f205481526020013373ffffffffffffffffffffffffffffffffffffffff1681526020015f1515815260200142815250908060018154018082558091505060019003905f5260205f2090600602015f909190919091505f820151815f01556020820151816001015f6101000a81548173ffffffffffffffffffffffffffffffffffffffff021916908373ffffffffffffffffffffffffffffffffffffffff16021790555060408201518160020190816108d79190611c8c565b50606082015181600301556080820151816004015f6101000a81548173ffffffffffffffffffffffffffffffffffffffff021916908373ffffffffffffffffffffffffffffffffffffffff16021790555060a08201518160040160146101000a81548160ff02191690831515021790555060c082015181600501555050600160035f3373ffffffffffffffffffffffffffffffffffffffff1673ffffffffffffffffffffffffffffffffffffffff1681526020019081526020015f205f6101000a81548160ff0219169083151502179055505f808154809291906109ba90611d5b565b91905055507fc908711429f50dfb4857b1825611e20e07a112f755b5fa4e57673bdc4370ed693334856040516109f293929190611da2565b60405180910390a1505050565b5f60025f8381526020019081526020015f205f3373ffffffffffffffffffffffffffffffffffffffff1673ffffffffffffffffffffffffffffffffffffffff1681526020019081526020015f205411610a8d576040517f08c379a0000000000000000000000000000000000000000000000000000000008152600401610a8490611e21565b60405180910390fd5b5f60025f8381526020019081526020015f205f3373ffffffffffffffffffffffffffffffffffffffff1673ffffffffffffffffffffffffffffffffffffffff1681526020019081526020015f205490505f60025f8481526020019081526020015f205f3373ffffffffffffffffffffffffffffffffffffffff1673ffffffffffffffffffffffffffffffffffffffff1681526020019081526020015f20819055503373ffffffffffffffffffffffffffffffffffffffff166108fc8290811502906040515f60405180830381858888f19350505050158015610b71573d5f803e3d5ffd5b507faadec2775b72354a5de4ac8fb7fd3b34e186d9b5a65e8ab384cc4cc67e6e851e338284604051610ba593929190611da2565b60405180910390a15050565b60605f80805490505f600190505b81811015610ca4575f60015f8381526020019081526020015f208054905090505f5b81811015610c8f573373ffffffffffffffffffffffffffffffffffffffff1660015f8581526020019081526020015f208281548110610c2357610c2261184c565b5b905f5260205f2090600602016004015f9054906101000a900473ffffffffffffffffffffffffffffffffffffffff1673ffffffffffffffffffffffffffffffffffffffff1603610c7c578480610c7890611d5b565b9550505b8080610c8790611d5b565b915050610be1565b50508080610c9c90611d5b565b915050610bbf565b505f8267ffffffffffffffff811115610cc057610cbf6114d0565b5b604051908082528060200260200182016040528015610cf957816020015b610ce6611126565b815260200190600190039081610cde5790505b5090505f80600190505b83811015610fb0575f60015f8381526020019081526020015f208054905090505f5b81811015610f9b573373ffffffffffffffffffffffffffffffffffffffff1660015f8581526020019081526020015f208281548110610d6757610d6661184c565b5b905f5260205f2090600602016004015f9054906101000a900473ffffffffffffffffffffffffffffffffffffffff1673ffffffffffffffffffffffffffffffffffffffff1603610f885760015f8481526020019081526020015f208181548110610dd457610dd361184c565b5b905f5260205f2090600602016040518060e00160405290815f8201548152602001600182015f9054906101000a900473ffffffffffffffffffffffffffffffffffffffff1673ffffffffffffffffffffffffffffffffffffffff1673ffffffffffffffffffffffffffffffffffffffff168152602001600282018054610e59906119d1565b80601f0160208091040260200160405190810160405280929190818152602001828054610e85906119d1565b8015610ed05780601f10610ea757610100808354040283529160200191610ed0565b820191905f5260205f20905b815481529060010190602001808311610eb357829003601f168201915b5050505050815260200160038201548152602001600482015f9054906101000a900473ffffffffffffffffffffffffffffffffffffffff1673ffffffffffffffffffffffffffffffffffffffff1673ffffffffffffffffffffffffffffffffffffffff1681526020016004820160149054906101000a900460ff16151515158152602001600582015481525050858580610f6990611d5b565b965081518110610f7c57610f7b61184c565b5b60200260200101819052505b8080610f9390611d5b565b915050610d25565b50508080610fa890611d5b565b915050610d03565b508194505050505090565b6002602052815f5260405f20602052805f5260405f205f91509150505481565b5f5481565b6003602052805f5260405f205f915054906101000a900460ff1681565b6001602052815f5260405f208181548110611016575f80fd5b905f5260205f2090600602015f9150915050805f015490806001015f9054906101000a900473ffffffffffffffffffffffffffffffffffffffff1690806002018054611061906119d1565b80601f016020809104026020016040519081016040528092919081815260200182805461108d906119d1565b80156110d85780601f106110af576101008083540402835291602001916110d8565b820191905f5260205f20905b8154815290600101906020018083116110bb57829003601f168201915b505050505090806003015490806004015f9054906101000a900473ffffffffffffffffffffffffffffffffffffffff16908060040160149054906101000a900460ff16908060050154905087565b6040518060e001604052805f81526020015f73ffffffffffffffffffffffffffffffffffffffff168152602001606081526020015f81526020015f73ffffffffffffffffffffffffffffffffffffffff1681526020015f151581526020015f81525090565b5f604051905090565b5f80fd5b5f80fd5b5f819050919050565b6111ae8161119c565b81146111b8575f80fd5b50565b5f813590506111c9816111a5565b92915050565b5f80604083850312156111e5576111e4611194565b5b5f6111f2858286016111bb565b9250506020611203858286016111bb565b9150509250929050565b5f6020828403121561122257611221611194565b5b5f61122f848285016111bb565b91505092915050565b5f81519050919050565b5f82825260208201905092915050565b5f819050602082019050919050565b61126a8161119c565b82525050565b5f73ffffffffffffffffffffffffffffffffffffffff82169050919050565b5f61129982611270565b9050919050565b6112a98161128f565b82525050565b5f81519050919050565b5f82825260208201905092915050565b5f5b838110156112e65780820151818401526020810190506112cb565b5f8484015250505050565b5f601f19601f8301169050919050565b5f61130b826112af565b61131581856112b9565b93506113258185602086016112c9565b61132e816112f1565b840191505092915050565b5f8115159050919050565b61134d81611339565b82525050565b5f60e083015f8301516113685f860182611261565b50602083015161137b60208601826112a0565b50604083015184820360408601526113938282611301565b91505060608301516113a86060860182611261565b5060808301516113bb60808601826112a0565b5060a08301516113ce60a0860182611344565b5060c08301516113e160c0860182611261565b508091505092915050565b5f6113f78383611353565b905092915050565b5f602082019050919050565b5f61141582611238565b61141f8185611242565b93508360208202850161143185611252565b805f5b8581101561146c578484038952815161144d85826113ec565b9450611458836113ff565b925060208a01995050600181019050611434565b50829750879550505050505092915050565b5f6020820190508181035f830152611496818461140b565b905092915050565b6114a78161128f565b81146114b1575f80fd5b50565b5f813590506114c28161149e565b92915050565b5f80fd5b5f80fd5b7f4e487b71000000000000000000000000000000000000000000000000000000005f52604160045260245ffd5b611506826112f1565b810181811067ffffffffffffffff82111715611525576115246114d0565b5b80604052505050565b5f61153761118b565b905061154382826114fd565b919050565b5f67ffffffffffffffff821115611562576115616114d0565b5b61156b826112f1565b9050602081019050919050565b828183375f83830152505050565b5f61159861159384611548565b61152e565b9050828152602081018484840111156115b4576115b36114cc565b5b6115bf848285611578565b509392505050565b5f82601f8301126115db576115da6114c8565b5b81356115eb848260208601611586565b91505092915050565b5f805f6060848603121561160b5761160a611194565b5b5f611618868287016111bb565b9350506020611629868287016114b4565b925050604084013567ffffffffffffffff81111561164a57611649611198565b5b611656868287016115c7565b9150509250925092565b5f806040838503121561167657611675611194565b5b5f611683858286016111bb565b9250506020611694858286016114b4565b9150509250929050565b6116a78161119c565b82525050565b5f6020820190506116c05f83018461169e565b92915050565b5f602082840312156116db576116da611194565b5b5f6116e8848285016114b4565b91505092915050565b6116fa81611339565b82525050565b5f6020820190506117135f8301846116f1565b92915050565b6117228161128f565b82525050565b5f82825260208201905092915050565b5f611742826112af565b61174c8185611728565b935061175c8185602086016112c9565b611765816112f1565b840191505092915050565b5f60e0820190506117835f83018a61169e565b6117906020830189611719565b81810360408301526117a28188611738565b90506117b1606083018761169e565b6117be6080830186611719565b6117cb60a08301856116f1565b6117d860c083018461169e565b98975050505050505050565b7f496e76616c69642062696420696e6465782e00000000000000000000000000005f82015250565b5f611818601283611728565b9150611823826117e4565b602082019050919050565b5f6020820190508181035f8301526118458161180c565b9050919050565b7f4e487b71000000000000000000000000000000000000000000000000000000005f52603260045260245ffd5b7f4f6e6c7920746865204950206f776e65722063616e20616363657074206269645f8201527f732e000000000000000000000000000000000000000000000000000000000000602082015250565b5f6118d3602283611728565b91506118de82611879565b604082019050919050565b5f6020820190508181035f830152611900816118c7565b9050919050565b7f42696420616c72656164792061636365707465642e00000000000000000000005f82015250565b5f61193b601583611728565b915061194682611907565b602082019050919050565b5f6020820190508181035f8301526119688161192f565b9050919050565b5f6060820190506119825f83018661169e565b61198f6020830185611719565b61199c604083018461169e565b949350505050565b7f4e487b71000000000000000000000000000000000000000000000000000000005f52602260045260245ffd5b5f60028204905060018216806119e857607f821691505b6020821081036119fb576119fa6119a4565b5b50919050565b7f4269642076616c7565206d7573742062652067726561746572207468616e207a5f8201527f65726f2e00000000000000000000000000000000000000000000000000000000602082015250565b5f611a5b602483611728565b9150611a6682611a01565b604082019050919050565b5f6020820190508181035f830152611a8881611a4f565b9050919050565b7f4e487b71000000000000000000000000000000000000000000000000000000005f52601160045260245ffd5b5f611ac68261119c565b9150611ad18361119c565b9250828201905080821115611ae957611ae8611a8f565b5b92915050565b5f819050815f5260205f209050919050565b5f6020601f8301049050919050565b5f82821b905092915050565b5f60088302611b4b7fffffffffffffffffffffffffffffffffffffffffffffffffffffffffffffffff82611b10565b611b558683611b10565b95508019841693508086168417925050509392505050565b5f819050919050565b5f611b90611b8b611b868461119c565b611b6d565b61119c565b9050919050565b5f819050919050565b611ba983611b76565b611bbd611bb582611b97565b848454611b1c565b825550505050565b5f90565b611bd1611bc5565b611bdc818484611ba0565b505050565b5b81811015611bff57611bf45f82611bc9565b600181019050611be2565b5050565b601f821115611c4457611c1581611aef565b611c1e84611b01565b81016020851015611c2d578190505b611c41611c3985611b01565b830182611be1565b50505b505050565b5f82821c905092915050565b5f611c645f1984600802611c49565b1980831691505092915050565b5f611c7c8383611c55565b9150826002028217905092915050565b611c95826112af565b67ffffffffffffffff811115611cae57611cad6114d0565b5b611cb882546119d1565b611cc3828285611c03565b5f60209050601f831160018114611cf4575f8415611ce2578287015190505b611cec8582611c71565b865550611d53565b601f198416611d0286611aef565b5f5b82811015611d2957848901518255600182019150602085019450602081019050611d04565b86831015611d465784890151611d42601f891682611c55565b8355505b6001600288020188555050505b505050505050565b5f611d658261119c565b91507fffffffffffffffffffffffffffffffffffffffffffffffffffffffffffffffff8203611d9757611d96611a8f565b5b600182019050919050565b5f606082019050611db55f830186611719565b611dc2602083018561169e565b611dcf604083018461169e565b949350505050565b7f4e6f2062696420746f20726566756e642e0000000000000000000000000000005f82015250565b5f611e0b601183611728565b9150611e1682611dd7565b602082019050919050565b5f6020820190508181035f830152611e3881611dff565b905091905056fea2646970667358221220a77e1a28bbf68616d5424d6c080876aa176c748e80a75e51b931b221640c450664736f6c63430008140033",
  "immutableReferences": {},
  "source": "// SPDX-License-Identifier: GPL-3.0\r\npragma solidity ^0.8.1;\r\nimport \"hardhat/console.sol\";\r\n\r\ncontract Ipbidder {\r\n    uint public bidCount;\r\n\r\n    struct IPownerBidders {\r\n        uint256 tokenID;\r\n        address owneraddress;\r\n        string ownerIPname;\r\n        uint bidValue;\r\n        address bidderAddress;\r\n        bool bidAccepted;\r\n        uint256 timestamp;\r\n    }\r\n\r\n    mapping(uint256 => IPownerBidders[]) public ipbidders;\r\n    mapping(uint256 => mapping(address => uint256)) public bid;\r\n    mapping(address => bool) public hasBid;\r\n\r\n    event LogReceivedFunds(address sender, uint amount, uint tokenId);\r\n    event LogReturnedFunds(address recipient, uint amount, uint tokenId);\r\n    event BidAccepted(uint256 tokenId, address bidder, uint256 bidValue);\r\n    \r\n    constructor() {\r\n        bidCount = 1;\r\n    }\r\n\r\n    function placeBid(uint256 tokenId, address _owneraddress, string memory _ownerIPname) external payable {\r\n        require(msg.value > 0, \"Bid value must be greater than zero.\");\r\n        \r\n        bid[tokenId][msg.sender] += msg.value;\r\n        ipbidders[tokenId].push(IPownerBidders(\r\n            tokenId,\r\n            _owneraddress,\r\n            _ownerIPname,\r\n            bid[tokenId][msg.sender],\r\n            msg.sender,\r\n            false,\r\n            block.timestamp\r\n        ));\r\n\r\n        hasBid[msg.sender] = true;\r\n        bidCount++; //  Increment bid count\r\n        emit LogReceivedFunds(msg.sender, msg.value, tokenId);\r\n    }\r\n\r\n    function acceptBid(uint256 tokenId, uint256 bidIndex) external {\r\n        require(ipbidders[tokenId].length > bidIndex, \"Invalid bid index.\");\r\n        IPownerBidders storage selectedBid = ipbidders[tokenId][bidIndex];\r\n        require(msg.sender == selectedBid.owneraddress, \"Only the IP owner can accept bids.\");\r\n        require(!selectedBid.bidAccepted, \"Bid already accepted.\");\r\n\r\n        selectedBid.bidAccepted = true;\r\n        bid[tokenId][selectedBid.bidderAddress] = 0; //  Reset bid before transferring\r\n\r\n        payable(selectedBid.owneraddress).transfer(selectedBid.bidValue); //  Safe ETH transfer\r\n        emit BidAccepted(tokenId, selectedBid.bidderAddress, selectedBid.bidValue);\r\n    }\r\n\r\n    function refundBid(uint256 tokenId) external {\r\n        require(bid[tokenId][msg.sender] > 0, \"No bid to refund.\");\r\n        \r\n        uint256 refundAmount = bid[tokenId][msg.sender];\r\n        bid[tokenId][msg.sender] = 0; //  Prevent reentrancy\r\n\r\n        payable(msg.sender).transfer(refundAmount); \r\n        emit LogReturnedFunds(msg.sender, refundAmount, tokenId);\r\n    }\r\n\r\n    function getBidsForToken(uint256 tokenId) external view returns (IPownerBidders[] memory) {\r\n        return ipbidders[tokenId];\r\n    }\r\n\r\n    function getMyBids() external view returns (IPownerBidders[] memory) {\r\n        uint256 count = 0;\r\n        uint256 totalTokens = bidCount;\r\n\r\n        for (uint256 i = 1; i < totalTokens; i++) {\r\n            uint256 len = ipbidders[i].length;\r\n            for (uint256 j = 0; j < len; j++) {\r\n                if (ipbidders[i][j].bidderAddress == msg.sender) {\r\n                    count++;\r\n                }\r\n            }\r\n        }\r\n\r\n        IPownerBidders[] memory myBids = new IPownerBidders[](count);\r\n        uint256 index = 0;\r\n\r\n        for (uint256 i = 1; i < totalTokens; i++) {\r\n            uint256 len = ipbidders[i].length;\r\n            for (uint256 j = 0; j < len; j++) {\r\n                if (ipbidders[i][j].bidderAddress == msg.sender) {\r\n                    myBids[index++] = ipbidders[i][j];\r\n                }\r\n            }\r\n        }\r\n\r\n        return myBids;\r\n    }\r\n}\r\n",
  "sourcePath": "C:\\Users\\Moksh Aithandla\\Intellectual-Identity-ethereum\\smart_contract\\contracts\\Ipbidder.sol",
  "compiler": {
    "name": "solc",
    "version": "0.8.20+commit.a1b79de6.Emscripten.clang"
  },
  "schemaVersion": "3.4.16",
  "updatedAt": "2025-03-20T15:10:16.304Z",
  "devdoc": {
    "kind": "dev",
    "methods": {},
    "version": 1
  },
  "userdoc": {
    "kind": "user",
    "methods": {},
    "version": 1
  }
}