{
  "contractName": "IPRegistry",
  "abi": [
    {
      "anonymous": false,
      "inputs": [
        {
          "indexed": true,
          "internalType": "string",
          "name": "patentNumber",
          "type": "string"
        },
        {
          "indexed": false,
          "internalType": "string",
          "name": "title",
          "type": "string"
        },
        {
          "indexed": false,
          "internalType": "string",
          "name": "applicant",
          "type": "string"
        }
      ],
      "name": "IPRegistered",
      "type": "event"
    },
    {
      "inputs": [
        {
          "internalType": "string",
          "name": "_patentNumber",
          "type": "string"
        },
        {
          "internalType": "string",
          "name": "_title",
          "type": "string"
        },
        {
          "internalType": "string",
          "name": "_applicant",
          "type": "string"
        },
        {
          "internalType": "string",
          "name": "_filingDate",
          "type": "string"
        },
        {
          "internalType": "string",
          "name": "_status",
          "type": "string"
        }
      ],
      "name": "addIP",
      "outputs": [],
      "stateMutability": "nonpayable",
      "type": "function"
    },
    {
      "inputs": [
        {
          "internalType": "string",
          "name": "_patentNumber",
          "type": "string"
        }
      ],
      "name": "getIPDetails",
      "outputs": [
        {
          "internalType": "string",
          "name": "",
          "type": "string"
        },
        {
          "internalType": "string",
          "name": "",
          "type": "string"
        },
        {
          "internalType": "string",
          "name": "",
          "type": "string"
        },
        {
          "internalType": "string",
          "name": "",
          "type": "string"
        }
      ],
      "stateMutability": "view",
      "type": "function"
    }
  ],
  "bytecode": "0x608060405234801561000f575f80fd5b50610cae8061001d5f395ff3fe608060405234801561000f575f80fd5b5060043610610034575f3560e01c80630790084c14610038578063d2689eec1461006b575b5f80fd5b610052600480360381019061004d919061062e565b610087565b60405161006294939291906106ef565b60405180910390f35b6100856004803603810190610080919061074e565b610387565b005b6060806060805f808660405161009d919061088b565b90815260200160405180910390205f0180546100b8906108ce565b9050116100fa576040517f08c379a00000000000000000000000000000000000000000000000000000000081526004016100f190610948565b60405180910390fd5b5f808660405161010a919061088b565b90815260200160405180910390206040518060800160405290815f82018054610132906108ce565b80601f016020809104026020016040519081016040528092919081815260200182805461015e906108ce565b80156101a95780601f10610180576101008083540402835291602001916101a9565b820191905f5260205f20905b81548152906001019060200180831161018c57829003601f168201915b505050505081526020016001820180546101c2906108ce565b80601f01602080910402602001604051908101604052809291908181526020018280546101ee906108ce565b80156102395780601f1061021057610100808354040283529160200191610239565b820191905f5260205f20905b81548152906001019060200180831161021c57829003601f168201915b50505050508152602001600282018054610252906108ce565b80601f016020809104026020016040519081016040528092919081815260200182805461027e906108ce565b80156102c95780601f106102a0576101008083540402835291602001916102c9565b820191905f5260205f20905b8154815290600101906020018083116102ac57829003601f168201915b505050505081526020016003820180546102e2906108ce565b80601f016020809104026020016040519081016040528092919081815260200182805461030e906108ce565b80156103595780601f1061033057610100808354040283529160200191610359565b820191905f5260205f20905b81548152906001019060200180831161033c57829003601f168201915b5050505050815250509050805f01518160200151826040015183606001519450945094509450509193509193565b5f8086604051610397919061088b565b90815260200160405180910390205f0180546103b2906108ce565b9050146103f4576040517f08c379a00000000000000000000000000000000000000000000000000000000081526004016103eb906109b0565b60405180910390fd5b6040518060800160405280858152602001848152602001838152602001828152505f86604051610424919061088b565b90815260200160405180910390205f820151815f0190816104459190610b74565b50602082015181600101908161045b9190610b74565b5060408201518160020190816104719190610b74565b5060608201518160030190816104879190610b74565b5090505084604051610499919061088b565b60405180910390207f61ee41e24a5fc16b0b7ac40d3a7cefb5a821ee4c58decbd35143af8b1795c05b85856040516104d2929190610c43565b60405180910390a25050505050565b5f604051905090565b5f80fd5b5f80fd5b5f80fd5b5f80fd5b5f601f19601f8301169050919050565b7f4e487b71000000000000000000000000000000000000000000000000000000005f52604160045260245ffd5b610540826104fa565b810181811067ffffffffffffffff8211171561055f5761055e61050a565b5b80604052505050565b5f6105716104e1565b905061057d8282610537565b919050565b5f67ffffffffffffffff82111561059c5761059b61050a565b5b6105a5826104fa565b9050602081019050919050565b828183375f83830152505050565b5f6105d26105cd84610582565b610568565b9050828152602081018484840111156105ee576105ed6104f6565b5b6105f98482856105b2565b509392505050565b5f82601f830112610615576106146104f2565b5b81356106258482602086016105c0565b91505092915050565b5f60208284031215610643576106426104ea565b5b5f82013567ffffffffffffffff8111156106605761065f6104ee565b5b61066c84828501610601565b91505092915050565b5f81519050919050565b5f82825260208201905092915050565b5f5b838110156106ac578082015181840152602081019050610691565b5f8484015250505050565b5f6106c182610675565b6106cb818561067f565b93506106db81856020860161068f565b6106e4816104fa565b840191505092915050565b5f6080820190508181035f83015261070781876106b7565b9050818103602083015261071b81866106b7565b9050818103604083015261072f81856106b7565b9050818103606083015261074381846106b7565b905095945050505050565b5f805f805f60a08688031215610767576107666104ea565b5b5f86013567ffffffffffffffff811115610784576107836104ee565b5b61079088828901610601565b955050602086013567ffffffffffffffff8111156107b1576107b06104ee565b5b6107bd88828901610601565b945050604086013567ffffffffffffffff8111156107de576107dd6104ee565b5b6107ea88828901610601565b935050606086013567ffffffffffffffff81111561080b5761080a6104ee565b5b61081788828901610601565b925050608086013567ffffffffffffffff811115610838576108376104ee565b5b61084488828901610601565b9150509295509295909350565b5f81905092915050565b5f61086582610675565b61086f8185610851565b935061087f81856020860161068f565b80840191505092915050565b5f610896828461085b565b915081905092915050565b7f4e487b71000000000000000000000000000000000000000000000000000000005f52602260045260245ffd5b5f60028204905060018216806108e557607f821691505b6020821081036108f8576108f76108a1565b5b50919050565b7f4950206e6f7420666f756e6400000000000000000000000000000000000000005f82015250565b5f610932600c8361067f565b915061093d826108fe565b602082019050919050565b5f6020820190508181035f83015261095f81610926565b9050919050565b7f495020616c7265616479206578697374730000000000000000000000000000005f82015250565b5f61099a60118361067f565b91506109a582610966565b602082019050919050565b5f6020820190508181035f8301526109c78161098e565b9050919050565b5f819050815f5260205f209050919050565b5f6020601f8301049050919050565b5f82821b905092915050565b5f60088302610a2a7fffffffffffffffffffffffffffffffffffffffffffffffffffffffffffffffff826109ef565b610a3486836109ef565b95508019841693508086168417925050509392505050565b5f819050919050565b5f819050919050565b5f610a78610a73610a6e84610a4c565b610a55565b610a4c565b9050919050565b5f819050919050565b610a9183610a5e565b610aa5610a9d82610a7f565b8484546109fb565b825550505050565b5f90565b610ab9610aad565b610ac4818484610a88565b505050565b5b81811015610ae757610adc5f82610ab1565b600181019050610aca565b5050565b601f821115610b2c57610afd816109ce565b610b06846109e0565b81016020851015610b15578190505b610b29610b21856109e0565b830182610ac9565b50505b505050565b5f82821c905092915050565b5f610b4c5f1984600802610b31565b1980831691505092915050565b5f610b648383610b3d565b9150826002028217905092915050565b610b7d82610675565b67ffffffffffffffff811115610b9657610b9561050a565b5b610ba082546108ce565b610bab828285610aeb565b5f60209050601f831160018114610bdc575f8415610bca578287015190505b610bd48582610b59565b865550610c3b565b601f198416610bea866109ce565b5f5b82811015610c1157848901518255600182019150602085019450602081019050610bec565b86831015610c2e5784890151610c2a601f891682610b3d565b8355505b6001600288020188555050505b505050505050565b5f6040820190508181035f830152610c5b81856106b7565b90508181036020830152610c6f81846106b7565b9050939250505056fea2646970667358221220bd43f930982b8a57eddb993908cf1868c3a2eaf048c01ccf4e99f22d7a3d454064736f6c63430008140033",
  "immutableReferences": {},
  "source": "// SPDX-License-Identifier: MIT\r\npragma solidity ^0.8.0;\r\n\r\ncontract IPRegistry {\r\n    struct IPDetails {\r\n        string title;\r\n        string applicant;\r\n        string filingDate;\r\n        string status;\r\n    }\r\n\r\n    mapping(string => IPDetails) private ipDatabase;  // Mapping Patent Number  IP Details\r\n\r\n    // Event for logging new IP registrations\r\n    event IPRegistered(string indexed patentNumber, string title, string applicant);\r\n\r\n    // Function to add IP data (only by owner)\r\n    function addIP(\r\n        string memory _patentNumber,\r\n        string memory _title,\r\n        string memory _applicant,\r\n        string memory _filingDate,\r\n        string memory _status\r\n    ) public {\r\n        require(bytes(ipDatabase[_patentNumber].title).length == 0, \"IP already exists\");\r\n        \r\n        ipDatabase[_patentNumber] = IPDetails(_title, _applicant, _filingDate, _status);\r\n        \r\n        emit IPRegistered(_patentNumber, _title, _applicant);\r\n    }\r\n\r\n    // Function to retrieve IP details\r\n    function getIPDetails(string memory _patentNumber)\r\n        public\r\n        view\r\n        returns (string memory, string memory, string memory, string memory)\r\n    {\r\n        require(bytes(ipDatabase[_patentNumber].title).length > 0, \"IP not found\");\r\n\r\n        IPDetails memory ip = ipDatabase[_patentNumber];\r\n        return (ip.title, ip.applicant, ip.filingDate, ip.status);\r\n    }\r\n}\r\n",
  "sourcePath": "C:\\Users\\Moksh Aithandla\\Intellectual-Identity-ethereum\\smart_contract\\contracts\\IPRegistry.sol",
  "compiler": {
    "name": "solc",
    "version": "0.8.20+commit.a1b79de6.Emscripten.clang"
  },
  "schemaVersion": "3.4.16",
  "updatedAt": "2025-03-20T15:10:16.334Z",
  "devdoc": {
    "kind": "dev",
    "methods": {},
    "version": 1
  },
  "userdoc": {
    "kind": "user",
    "methods": {},
    "version": 1
  }
}