{
  "contractName": "IPRegistry",
  "abi": [
    {
      "anonymous": false,
      "inputs": [
        {
          "indexed": true,
          "internalType": "string",
          "name": "patentNumber",
          "type": "string"
        },
        {
          "indexed": false,
          "internalType": "string",
          "name": "title",
          "type": "string"
        },
        {
          "indexed": false,
          "internalType": "string",
          "name": "applicant",
          "type": "string"
        }
      ],
      "name": "IPRegistered",
      "type": "event"
    },
    {
      "inputs": [
        {
          "internalType": "string",
          "name": "_patentNumber",
          "type": "string"
        },
        {
          "internalType": "string",
          "name": "_title",
          "type": "string"
        },
        {
          "internalType": "string",
          "name": "_applicant",
          "type": "string"
        },
        {
          "internalType": "string",
          "name": "_filingDate",
          "type": "string"
        },
        {
          "internalType": "string",
          "name": "_status",
          "type": "string"
        }
      ],
      "name": "addIP",
      "outputs": [],
      "stateMutability": "nonpayable",
      "type": "function"
    },
    {
      "inputs": [
        {
          "internalType": "string",
          "name": "_patentNumber",
          "type": "string"
        }
      ],
      "name": "getIPDetails",
      "outputs": [
        {
          "internalType": "string",
          "name": "",
          "type": "string"
        },
        {
          "internalType": "string",
          "name": "",
          "type": "string"
        },
        {
          "internalType": "string",
          "name": "",
          "type": "string"
        },
        {
          "internalType": "string",
          "name": "",
          "type": "string"
        }
      ],
      "stateMutability": "view",
      "type": "function"
    }
  ],
  "bytecode": "0x608060405234801561001057600080fd5b506108b6806100206000396000f3fe608060405234801561001057600080fd5b50600436106100365760003560e01c80630790084c1461003b578063d2689eec14610067575b600080fd5b61004e6100493660046105d9565b61007c565b60405161005e9493929190610756565b60405180910390f35b61007a610075366004610614565b61036b565b005b60608060608060008086604051610093919061070c565b90815260405190819003602001902080546100ad9061082f565b9050116100d55760405162461bcd60e51b81526004016100cc906107d9565b60405180910390fd5b600080866040516100e6919061070c565b908152602001604051809103902060405180608001604052908160008201805461010f9061082f565b80601f016020809104026020016040519081016040528092919081815260200182805461013b9061082f565b80156101885780601f1061015d57610100808354040283529160200191610188565b820191906000526020600020905b81548152906001019060200180831161016b57829003601f168201915b505050505081526020016001820180546101a19061082f565b80601f01602080910402602001604051908101604052809291908181526020018280546101cd9061082f565b801561021a5780601f106101ef5761010080835404028352916020019161021a565b820191906000526020600020905b8154815290600101906020018083116101fd57829003601f168201915b505050505081526020016002820180546102339061082f565b80601f016020809104026020016040519081016040528092919081815260200182805461025f9061082f565b80156102ac5780601f10610281576101008083540402835291602001916102ac565b820191906000526020600020905b81548152906001019060200180831161028f57829003601f168201915b505050505081526020016003820180546102c59061082f565b80601f01602080910402602001604051908101604052809291908181526020018280546102f19061082f565b801561033e5780601f106103135761010080835404028352916020019161033e565b820191906000526020600020905b81548152906001019060200180831161032157829003601f168201915b505050919092525050815160208301516040840151606090940151919a9099509297509550909350505050565b60008560405161037b919061070c565b90815260405190819003602001902080546103959061082f565b1590506103b45760405162461bcd60e51b81526004016100cc906107ae565b6040518060800160405280858152602001848152602001838152602001828152506000866040516103e5919061070c565b9081526020016040518091039020600082015181600001908051906020019061040f9291906104b9565b50602082810151805161042892600185019201906104b9565b50604082015180516104449160028401916020909101906104b9565b50606082015180516104609160038401916020909101906104b9565b50506040516104719150869061070c565b60405180910390207f61ee41e24a5fc16b0b7ac40d3a7cefb5a821ee4c58decbd35143af8b1795c05b85856040516104aa929190610728565b60405180910390a25050505050565b8280546104c59061082f565b90600052602060002090601f0160209004810192826104e7576000855561052d565b82601f1061050057805160ff191683800117855561052d565b8280016001018555821561052d579182015b8281111561052d578251825591602001919060010190610512565b5061053992915061053d565b5090565b5b80821115610539576000815560010161053e565b600082601f830112610562578081fd5b813567ffffffffffffffff8082111561057d5761057d61086a565b604051601f8301601f19908116603f011681019082821181831017156105a5576105a561086a565b816040528381528660208588010111156105bd578485fd5b8360208701602083013792830160200193909352509392505050565b6000602082840312156105ea578081fd5b813567ffffffffffffffff811115610600578182fd5b61060c84828501610552565b949350505050565b600080600080600060a0868803121561062b578081fd5b853567ffffffffffffffff80821115610642578283fd5b61064e89838a01610552565b96506020880135915080821115610663578283fd5b61066f89838a01610552565b95506040880135915080821115610684578283fd5b61069089838a01610552565b945060608801359150808211156106a5578283fd5b6106b189838a01610552565b935060808801359150808211156106c6578283fd5b506106d388828901610552565b9150509295509295909350565b600081518084526106f88160208601602086016107ff565b601f01601f19169290920160200192915050565b6000825161071e8184602087016107ff565b9190910192915050565b60006040825261073b60408301856106e0565b828103602084015261074d81856106e0565b95945050505050565b60006080825261076960808301876106e0565b828103602084015261077b81876106e0565b9050828103604084015261078f81866106e0565b905082810360608401526107a381856106e0565b979650505050505050565b602080825260119082015270495020616c72656164792065786973747360781b604082015260600190565b6020808252600c908201526b1254081b9bdd08199bdd5b9960a21b604082015260600190565b60005b8381101561081a578181015183820152602001610802565b83811115610829576000848401525b50505050565b60028104600182168061084357607f821691505b6020821081141561086457634e487b7160e01b600052602260045260246000fd5b50919050565b634e487b7160e01b600052604160045260246000fdfea2646970667358221220fe1b5f26a77ec400f23785870dc8f43a0480f72fb365bc04de258d94376ad2b564736f6c63430008010033",
  "immutableReferences": {},
  "source": "// SPDX-License-Identifier: MIT\r\npragma solidity ^0.8.0;\r\n\r\ncontract IPRegistry {\r\n    struct IPDetails {\r\n        string title;\r\n        string applicant;\r\n        string filingDate;\r\n        string status;\r\n    }\r\n\r\n    mapping(string => IPDetails) private ipDatabase;  // Mapping Patent Number  IP Details\r\n\r\n    // Event for logging new IP registrations\r\n    event IPRegistered(string indexed patentNumber, string title, string applicant);\r\n\r\n    // Function to add IP data (only by owner)\r\n    function addIP(\r\n        string memory _patentNumber,\r\n        string memory _title,\r\n        string memory _applicant,\r\n        string memory _filingDate,\r\n        string memory _status\r\n    ) public {\r\n        require(bytes(ipDatabase[_patentNumber].title).length == 0, \"IP already exists\");\r\n        \r\n        ipDatabase[_patentNumber] = IPDetails(_title, _applicant, _filingDate, _status);\r\n        \r\n        emit IPRegistered(_patentNumber, _title, _applicant);\r\n    }\r\n\r\n    // Function to retrieve IP details\r\n    function getIPDetails(string memory _patentNumber)\r\n        public\r\n        view\r\n        returns (string memory, string memory, string memory, string memory)\r\n    {\r\n        require(bytes(ipDatabase[_patentNumber].title).length > 0, \"IP not found\");\r\n\r\n        IPDetails memory ip = ipDatabase[_patentNumber];\r\n        return (ip.title, ip.applicant, ip.filingDate, ip.status);\r\n    }\r\n}\r\n",
  "sourcePath": "P:\\IPR-Management\\smart_contract\\contracts\\IPRegistry.sol",
  "compiler": {
    "name": "solc",
    "version": "0.8.1+commit.df193b15.Emscripten.clang"
  },
  "schemaVersion": "3.4.16",
  "updatedAt": "2025-04-22T09:46:07.207Z",
  "devdoc": {
    "kind": "dev",
    "methods": {},
    "version": 1
  },
  "userdoc": {
    "kind": "user",
    "methods": {},
    "version": 1
  }
}